{
	"contracts/Auction.sol": {
		"Auction": {
			"abi": [
				{
					"constant": false,
					"inputs": [],
					"name": "register",
					"outputs": [],
					"payable": true,
					"stateMutability": "payable",
					"type": "function"
				},
				{
					"constant": true,
					"inputs": [],
					"name": "beneficiary",
					"outputs": [
						{
							"name": "",
							"type": "address"
						}
					],
					"payable": false,
					"stateMutability": "view",
					"type": "function"
				},
				{
					"constant": false,
					"inputs": [
						{
							"name": "_itemId",
							"type": "uint256"
						},
						{
							"name": "_count",
							"type": "uint256"
						}
					],
					"name": "bid",
					"outputs": [],
					"payable": true,
					"stateMutability": "payable",
					"type": "function"
				},
				{
					"constant": true,
					"inputs": [
						{
							"name": "id",
							"type": "uint256"
						}
					],
					"name": "getPersonDetails",
					"outputs": [
						{
							"name": "",
							"type": "uint256"
						},
						{
							"name": "",
							"type": "uint256"
						},
						{
							"name": "",
							"type": "address"
						}
					],
					"payable": false,
					"stateMutability": "view",
					"type": "function"
				},
				{
					"constant": false,
					"inputs": [],
					"name": "revealWinners",
					"outputs": [],
					"payable": false,
					"stateMutability": "nonpayable",
					"type": "function"
				},
				{
					"constant": true,
					"inputs": [
						{
							"name": "",
							"type": "uint256"
						}
					],
					"name": "winners",
					"outputs": [
						{
							"name": "",
							"type": "address"
						}
					],
					"payable": false,
					"stateMutability": "view",
					"type": "function"
				},
				{
					"constant": true,
					"inputs": [
						{
							"name": "",
							"type": "uint256"
						}
					],
					"name": "items",
					"outputs": [
						{
							"name": "itemId",
							"type": "uint256"
						}
					],
					"payable": false,
					"stateMutability": "view",
					"type": "function"
				},
				{
					"inputs": [
						{
							"name": "",
							"type": "address"
						}
					],
					"payable": true,
					"stateMutability": "payable",
					"type": "constructor"
				}
			],
			"devdoc": {
				"methods": {}
			},
			"evm": {
				"assembly": "    /* \"contracts/Auction.sol\":25:5792  contract Auction {... */\n  mstore(0x40, 0x80)\n    /* \"contracts/Auction.sol\":819:820  0 */\n  0x0\n    /* \"contracts/Auction.sol\":802:820  uint bidderCount=0 */\n  0x17\n  sstore\n    /* \"contracts/Auction.sol\":932:1669  constructor (Auction) public payable{    //constructor... */\n  mload(0x40)\n  0x20\n  dup1\n  bytecodeSize\n  dup4\n  codecopy\n  dup2\n  add\n  dup1\n  0x40\n  mstore\n  dup2\n  add\n  swap1\n  dup1\n  dup1\n  mload\n  swap1\n  0x20\n  add\n  swap1\n  swap3\n  swap2\n  swap1\n  pop\n  pop\n  pop\n    /* \"contracts/Auction.sol\":1295:1319  uint[] memory emptyArray */\n  0x60\n    /* \"contracts/Auction.sol\":1250:1260  msg.sender */\n  caller\n    /* \"contracts/Auction.sol\":1236:1247  beneficiary */\n  0x16\n  0x0\n    /* \"contracts/Auction.sol\":1236:1260  beneficiary = msg.sender */\n  0x100\n  exp\n  dup2\n  sload\n  dup2\n  0xffffffffffffffffffffffffffffffffffffffff\n  mul\n  not\n  and\n  swap1\n  dup4\n  0xffffffffffffffffffffffffffffffffffffffff\n  and\n  mul\n  or\n  swap1\n  sstore\n  pop\n    /* \"contracts/Auction.sol\":1340:1378  Item({itemId:0,itemTokens:emptyArray}) */\n  0x40\n  dup1\n  mload\n  swap1\n  dup2\n  add\n  0x40\n  mstore\n  dup1\n    /* \"contracts/Auction.sol\":1353:1354  0 */\n  0x0\n    /* \"contracts/Auction.sol\":1340:1378  Item({itemId:0,itemTokens:emptyArray}) */\n  dup2\n  mstore\n  0x20\n  add\n    /* \"contracts/Auction.sol\":1366:1376  emptyArray */\n  dup3\n    /* \"contracts/Auction.sol\":1340:1378  Item({itemId:0,itemTokens:emptyArray}) */\n  dup2\n  mstore\n  pop\n    /* \"contracts/Auction.sol\":1329:1334  items */\n  0xd\n    /* \"contracts/Auction.sol\":1335:1336  0 */\n  0x0\n    /* \"contracts/Auction.sol\":1329:1337  items[0] */\n  0x3\n  dup2\n  lt\n  iszero\n  iszero\n  tag_3\n  jumpi\n  invalid\ntag_3:\n  0x2\n  mul\n  add\n    /* \"contracts/Auction.sol\":1329:1378  items[0] = Item({itemId:0,itemTokens:emptyArray}) */\n  0x0\n  dup3\n  add\n  mload\n  dup2\n  0x0\n  add\n  sstore\n  0x20\n  dup3\n  add\n  mload\n  dup2\n  0x1\n  add\n  swap1\n  dup1\n  mload\n  swap1\n  0x20\n  add\n  swap1\n  tag_5\n  swap3\n  swap2\n  swap1\n  jump\t// in(tag_6)\ntag_5:\n  pop\n  swap1\n  pop\n  pop\n    /* \"contracts/Auction.sol\":1536:1574  Item({itemId:1,itemTokens:emptyArray}) */\n  0x40\n  dup1\n  mload\n  swap1\n  dup2\n  add\n  0x40\n  mstore\n  dup1\n    /* \"contracts/Auction.sol\":1549:1550  1 */\n  0x1\n    /* \"contracts/Auction.sol\":1536:1574  Item({itemId:1,itemTokens:emptyArray}) */\n  dup2\n  mstore\n  0x20\n  add\n    /* \"contracts/Auction.sol\":1562:1572  emptyArray */\n  dup3\n    /* \"contracts/Auction.sol\":1536:1574  Item({itemId:1,itemTokens:emptyArray}) */\n  dup2\n  mstore\n  pop\n    /* \"contracts/Auction.sol\":1525:1530  items */\n  0xd\n    /* \"contracts/Auction.sol\":1531:1532  1 */\n  0x1\n    /* \"contracts/Auction.sol\":1525:1533  items[1] */\n  0x3\n  dup2\n  lt\n  iszero\n  iszero\n  tag_7\n  jumpi\n  invalid\ntag_7:\n  0x2\n  mul\n  add\n    /* \"contracts/Auction.sol\":1525:1574  items[1] = Item({itemId:1,itemTokens:emptyArray}) */\n  0x0\n  dup3\n  add\n  mload\n  dup2\n  0x0\n  add\n  sstore\n  0x20\n  dup3\n  add\n  mload\n  dup2\n  0x1\n  add\n  swap1\n  dup1\n  mload\n  swap1\n  0x20\n  add\n  swap1\n  tag_9\n  swap3\n  swap2\n  swap1\n  jump\t// in(tag_6)\ntag_9:\n  pop\n  swap1\n  pop\n  pop\n    /* \"contracts/Auction.sol\":1594:1632  Item({itemId:2,itemTokens:emptyArray}) */\n  0x40\n  dup1\n  mload\n  swap1\n  dup2\n  add\n  0x40\n  mstore\n  dup1\n    /* \"contracts/Auction.sol\":1607:1608  2 */\n  0x2\n    /* \"contracts/Auction.sol\":1594:1632  Item({itemId:2,itemTokens:emptyArray}) */\n  dup2\n  mstore\n  0x20\n  add\n    /* \"contracts/Auction.sol\":1620:1630  emptyArray */\n  dup3\n    /* \"contracts/Auction.sol\":1594:1632  Item({itemId:2,itemTokens:emptyArray}) */\n  dup2\n  mstore\n  pop\n    /* \"contracts/Auction.sol\":1584:1589  items */\n  0xd\n    /* \"contracts/Auction.sol\":1590:1591  2 */\n  0x2\n    /* \"contracts/Auction.sol\":1584:1592  items[2] */\n  0x3\n  dup2\n  lt\n  iszero\n  iszero\n  tag_10\n  jumpi\n  invalid\ntag_10:\n  0x2\n  mul\n  add\n    /* \"contracts/Auction.sol\":1584:1632  items[2] =Item({itemId:2,itemTokens:emptyArray}) */\n  0x0\n  dup3\n  add\n  mload\n  dup2\n  0x0\n  add\n  sstore\n  0x20\n  dup3\n  add\n  mload\n  dup2\n  0x1\n  add\n  swap1\n  dup1\n  mload\n  swap1\n  0x20\n  add\n  swap1\n  tag_12\n  swap3\n  swap2\n  swap1\n  jump\t// in(tag_6)\ntag_12:\n  pop\n  swap1\n  pop\n  pop\n    /* \"contracts/Auction.sol\":932:1669  constructor (Auction) public payable{    //constructor... */\n  pop\n  pop\n    /* \"contracts/Auction.sol\":25:5792  contract Auction {... */\n  jump(tag_13)\ntag_6:\n  dup3\n  dup1\n  sload\n  dup3\n  dup3\n  sstore\n  swap1\n  0x0\n  mstore\n  keccak256(0x0, 0x20)\n  swap1\n  dup2\n  add\n  swap3\n  dup3\n  iszero\n  tag_14\n  jumpi\n  swap2\n  0x20\n  mul\n  dup3\n  add\ntag_15:\n  dup3\n  dup2\n  gt\n  iszero\n  tag_16\n  jumpi\n  dup3\n  mload\n  dup3\n  sstore\n  swap2\n  0x20\n  add\n  swap2\n  swap1\n  0x1\n  add\n  swap1\n  jump(tag_15)\ntag_16:\ntag_14:\n  pop\n  swap1\n  pop\n  tag_17\n  swap2\n  swap1\n  jump\t// in(tag_18)\ntag_17:\n  pop\n  swap1\n  jump\t// out\ntag_18:\n  tag_19\n  swap2\n  swap1\ntag_20:\n  dup1\n  dup3\n  gt\n  iszero\n  tag_21\n  jumpi\n  0x0\n  dup2\n  0x0\n  swap1\n  sstore\n  pop\n  0x1\n  add\n  jump(tag_20)\ntag_21:\n  pop\n  swap1\n  jump\ntag_19:\n  swap1\n  jump\t// out\ntag_13:\n  dataSize(sub_0)\n  dup1\n  dataOffset(sub_0)\n  0x0\n  codecopy\n  0x0\n  return\nstop\n\nsub_0: assembly {\n        /* \"contracts/Auction.sol\":25:5792  contract Auction {... */\n      mstore(0x40, 0x80)\n      jumpi(tag_1, lt(calldatasize, 0x4))\n      calldataload(0x0)\n      0x100000000000000000000000000000000000000000000000000000000\n      swap1\n      div\n      0xffffffff\n      and\n      dup1\n      0x1aa3a008\n      eq\n      tag_2\n      jumpi\n      dup1\n      0x38af3eed\n      eq\n      tag_3\n      jumpi\n      dup1\n      0x598647f8\n      eq\n      tag_4\n      jumpi\n      dup1\n      0x60981705\n      eq\n      tag_5\n      jumpi\n      dup1\n      0x952587d6\n      eq\n      tag_6\n      jumpi\n      dup1\n      0xa2fb1175\n      eq\n      tag_7\n      jumpi\n      dup1\n      0xbfb231d2\n      eq\n      tag_8\n      jumpi\n    tag_1:\n      0x0\n      dup1\n      revert\n        /* \"contracts/Auction.sol\":1680:2262  function register() public payable{... */\n    tag_2:\n      tag_9\n      jump(tag_10)\n    tag_9:\n      stop\n        /* \"contracts/Auction.sol\":736:762  address public beneficiary */\n    tag_3:\n      callvalue\n        /* \"--CODEGEN--\":8:17   */\n      dup1\n        /* \"--CODEGEN--\":5:7   */\n      iszero\n      tag_11\n      jumpi\n        /* \"--CODEGEN--\":30:31   */\n      0x0\n        /* \"--CODEGEN--\":27:28   */\n      dup1\n        /* \"--CODEGEN--\":20:32   */\n      revert\n        /* \"--CODEGEN--\":5:7   */\n    tag_11:\n        /* \"contracts/Auction.sol\":736:762  address public beneficiary */\n      pop\n      tag_12\n      jump(tag_13)\n    tag_12:\n      mload(0x40)\n      dup1\n      dup3\n      0xffffffffffffffffffffffffffffffffffffffff\n      and\n      0xffffffffffffffffffffffffffffffffffffffff\n      and\n      dup2\n      mstore\n      0x20\n      add\n      swap2\n      pop\n      pop\n      mload(0x40)\n      dup1\n      swap2\n      sub\n      swap1\n      return\n        /* \"contracts/Auction.sol\":2272:4037  function bid(uint _itemId, uint _count) public payable{... */\n    tag_4:\n      tag_14\n      0x4\n      dup1\n      calldatasize\n      sub\n      dup2\n      add\n      swap1\n      dup1\n      dup1\n      calldataload\n      swap1\n      0x20\n      add\n      swap1\n      swap3\n      swap2\n      swap1\n      dup1\n      calldataload\n      swap1\n      0x20\n      add\n      swap1\n      swap3\n      swap2\n      swap1\n      pop\n      pop\n      pop\n      jump(tag_15)\n    tag_14:\n      stop\n        /* \"contracts/Auction.sol\":5621:5789  function getPersonDetails(uint id) public constant returns(uint,uint,address){... */\n    tag_5:\n      callvalue\n        /* \"--CODEGEN--\":8:17   */\n      dup1\n        /* \"--CODEGEN--\":5:7   */\n      iszero\n      tag_16\n      jumpi\n        /* \"--CODEGEN--\":30:31   */\n      0x0\n        /* \"--CODEGEN--\":27:28   */\n      dup1\n        /* \"--CODEGEN--\":20:32   */\n      revert\n        /* \"--CODEGEN--\":5:7   */\n    tag_16:\n        /* \"contracts/Auction.sol\":5621:5789  function getPersonDetails(uint id) public constant returns(uint,uint,address){... */\n      pop\n      tag_17\n      0x4\n      dup1\n      calldatasize\n      sub\n      dup2\n      add\n      swap1\n      dup1\n      dup1\n      calldataload\n      swap1\n      0x20\n      add\n      swap1\n      swap3\n      swap2\n      swap1\n      pop\n      pop\n      pop\n      jump(tag_18)\n    tag_17:\n      mload(0x40)\n      dup1\n      dup5\n      dup2\n      mstore\n      0x20\n      add\n      dup4\n      dup2\n      mstore\n      0x20\n      add\n      dup3\n      0xffffffffffffffffffffffffffffffffffffffff\n      and\n      0xffffffffffffffffffffffffffffffffffffffff\n      and\n      dup2\n      mstore\n      0x20\n      add\n      swap4\n      pop\n      pop\n      pop\n      pop\n      mload(0x40)\n      dup1\n      swap2\n      sub\n      swap1\n      return\n        /* \"contracts/Auction.sol\":4429:5519  function revealWinners() public onlyOwner{... */\n    tag_6:\n      callvalue\n        /* \"--CODEGEN--\":8:17   */\n      dup1\n        /* \"--CODEGEN--\":5:7   */\n      iszero\n      tag_19\n      jumpi\n        /* \"--CODEGEN--\":30:31   */\n      0x0\n        /* \"--CODEGEN--\":27:28   */\n      dup1\n        /* \"--CODEGEN--\":20:32   */\n      revert\n        /* \"--CODEGEN--\":5:7   */\n    tag_19:\n        /* \"contracts/Auction.sol\":4429:5519  function revealWinners() public onlyOwner{... */\n      pop\n      tag_20\n      jump(tag_21)\n    tag_20:\n      stop\n        /* \"contracts/Auction.sol\":675:700  address[3] public winners */\n    tag_7:\n      callvalue\n        /* \"--CODEGEN--\":8:17   */\n      dup1\n        /* \"--CODEGEN--\":5:7   */\n      iszero\n      tag_22\n      jumpi\n        /* \"--CODEGEN--\":30:31   */\n      0x0\n        /* \"--CODEGEN--\":27:28   */\n      dup1\n        /* \"--CODEGEN--\":20:32   */\n      revert\n        /* \"--CODEGEN--\":5:7   */\n    tag_22:\n        /* \"contracts/Auction.sol\":675:700  address[3] public winners */\n      pop\n      tag_23\n      0x4\n      dup1\n      calldatasize\n      sub\n      dup2\n      add\n      swap1\n      dup1\n      dup1\n      calldataload\n      swap1\n      0x20\n      add\n      swap1\n      swap3\n      swap2\n      swap1\n      pop\n      pop\n      pop\n      jump(tag_24)\n    tag_23:\n      mload(0x40)\n      dup1\n      dup3\n      0xffffffffffffffffffffffffffffffffffffffff\n      and\n      0xffffffffffffffffffffffffffffffffffffffff\n      and\n      dup2\n      mstore\n      0x20\n      add\n      swap2\n      pop\n      pop\n      mload(0x40)\n      dup1\n      swap2\n      sub\n      swap1\n      return\n        /* \"contracts/Auction.sol\":615:636  Item [3] public items */\n    tag_8:\n      callvalue\n        /* \"--CODEGEN--\":8:17   */\n      dup1\n        /* \"--CODEGEN--\":5:7   */\n      iszero\n      tag_25\n      jumpi\n        /* \"--CODEGEN--\":30:31   */\n      0x0\n        /* \"--CODEGEN--\":27:28   */\n      dup1\n        /* \"--CODEGEN--\":20:32   */\n      revert\n        /* \"--CODEGEN--\":5:7   */\n    tag_25:\n        /* \"contracts/Auction.sol\":615:636  Item [3] public items */\n      pop\n      tag_26\n      0x4\n      dup1\n      calldatasize\n      sub\n      dup2\n      add\n      swap1\n      dup1\n      dup1\n      calldataload\n      swap1\n      0x20\n      add\n      swap1\n      swap3\n      swap2\n      swap1\n      pop\n      pop\n      pop\n      jump(tag_27)\n    tag_26:\n      mload(0x40)\n      dup1\n      dup3\n      dup2\n      mstore\n      0x20\n      add\n      swap2\n      pop\n      pop\n      mload(0x40)\n      dup1\n      swap2\n      sub\n      swap1\n      return\n        /* \"contracts/Auction.sol\":1680:2262  function register() public payable{... */\n    tag_10:\n        /* \"contracts/Auction.sol\":1774:1785  bidderCount */\n      sload(0x17)\n        /* \"contracts/Auction.sol\":1742:1749  bidders */\n      0x1\n        /* \"contracts/Auction.sol\":1750:1761  bidderCount */\n      sload(0x17)\n        /* \"contracts/Auction.sol\":1742:1762  bidders[bidderCount] */\n      0x4\n      dup2\n      lt\n      iszero\n      iszero\n      tag_29\n      jumpi\n      invalid\n    tag_29:\n      0x3\n      mul\n      add\n        /* \"contracts/Auction.sol\":1742:1771  bidders[bidderCount].personId */\n      0x1\n      add\n        /* \"contracts/Auction.sol\":1742:1785  bidders[bidderCount].personId = bidderCount */\n      dup2\n      swap1\n      sstore\n      pop\n        /* \"contracts/Auction.sol\":2060:2070  msg.sender */\n      caller\n        /* \"contracts/Auction.sol\":2032:2039  bidders */\n      0x1\n        /* \"contracts/Auction.sol\":2040:2051  bidderCount */\n      sload(0x17)\n        /* \"contracts/Auction.sol\":2032:2052  bidders[bidderCount] */\n      0x4\n      dup2\n      lt\n      iszero\n      iszero\n      tag_31\n      jumpi\n      invalid\n    tag_31:\n      0x3\n      mul\n      add\n        /* \"contracts/Auction.sol\":2032:2057  bidders[bidderCount].addr */\n      0x2\n      add\n      0x0\n        /* \"contracts/Auction.sol\":2032:2070  bidders[bidderCount].addr = msg.sender */\n      0x100\n      exp\n      dup2\n      sload\n      dup2\n      0xffffffffffffffffffffffffffffffffffffffff\n      mul\n      not\n      and\n      swap1\n      dup4\n      0xffffffffffffffffffffffffffffffffffffffff\n      and\n      mul\n      or\n      swap1\n      sstore\n      pop\n        /* \"contracts/Auction.sol\":2159:2160  5 */\n      0x5\n        /* \"contracts/Auction.sol\":2120:2127  bidders */\n      0x1\n        /* \"contracts/Auction.sol\":2128:2139  bidderCount */\n      sload(0x17)\n        /* \"contracts/Auction.sol\":2120:2140  bidders[bidderCount] */\n      0x4\n      dup2\n      lt\n      iszero\n      iszero\n      tag_33\n      jumpi\n      invalid\n    tag_33:\n      0x3\n      mul\n      add\n        /* \"contracts/Auction.sol\":2120:2156  bidders[bidderCount].remainingTokens */\n      0x0\n      add\n        /* \"contracts/Auction.sol\":2120:2160  bidders[bidderCount].remainingTokens = 5 */\n      dup2\n      swap1\n      sstore\n      pop\n        /* \"contracts/Auction.sol\":2212:2219  bidders */\n      0x1\n        /* \"contracts/Auction.sol\":2220:2231  bidderCount */\n      sload(0x17)\n        /* \"contracts/Auction.sol\":2212:2232  bidders[bidderCount] */\n      0x4\n      dup2\n      lt\n      iszero\n      iszero\n      tag_35\n      jumpi\n      invalid\n    tag_35:\n      0x3\n      mul\n      add\n        /* \"contracts/Auction.sol\":2187:2199  tokenDetails */\n      0x0\n        /* \"contracts/Auction.sol\":2187:2211  tokenDetails[msg.sender] */\n      dup1\n        /* \"contracts/Auction.sol\":2200:2210  msg.sender */\n      caller\n        /* \"contracts/Auction.sol\":2187:2211  tokenDetails[msg.sender] */\n      0xffffffffffffffffffffffffffffffffffffffff\n      and\n      0xffffffffffffffffffffffffffffffffffffffff\n      and\n      dup2\n      mstore\n      0x20\n      add\n      swap1\n      dup2\n      mstore\n      0x20\n      add\n      0x0\n      keccak256\n        /* \"contracts/Auction.sol\":2187:2232  tokenDetails[msg.sender]=bidders[bidderCount] */\n      0x0\n      dup3\n      add\n      sload\n      dup2\n      0x0\n      add\n      sstore\n      0x1\n      dup3\n      add\n      sload\n      dup2\n      0x1\n      add\n      sstore\n      0x2\n      dup3\n      add\n      0x0\n      swap1\n      sload\n      swap1\n      0x100\n      exp\n      swap1\n      div\n      0xffffffffffffffffffffffffffffffffffffffff\n      and\n      dup2\n      0x2\n      add\n      exp(0x100, 0x0)\n      dup2\n      sload\n      dup2\n      0xffffffffffffffffffffffffffffffffffffffff\n      mul\n      not\n      and\n      swap1\n      dup4\n      0xffffffffffffffffffffffffffffffffffffffff\n      and\n      mul\n      or\n      swap1\n      sstore\n      pop\n      swap1\n      pop\n      pop\n        /* \"contracts/Auction.sol\":2242:2253  bidderCount */\n      0x17\n      0x0\n        /* \"contracts/Auction.sol\":2242:2255  bidderCount++ */\n      dup2\n      sload\n      dup1\n      swap3\n      swap2\n      swap1\n      0x1\n      add\n      swap2\n      swap1\n      pop\n      sstore\n      pop\n        /* \"contracts/Auction.sol\":1680:2262  function register() public payable{... */\n      jump\t// out\n        /* \"contracts/Auction.sol\":736:762  address public beneficiary */\n    tag_13:\n      0x16\n      0x0\n      swap1\n      sload\n      swap1\n      0x100\n      exp\n      swap1\n      div\n      0xffffffffffffffffffffffffffffffffffffffff\n      and\n      dup2\n      jump\t// out\n        /* \"contracts/Auction.sol\":2272:4037  function bid(uint _itemId, uint _count) public payable{... */\n    tag_15:\n        /* \"contracts/Auction.sol\":3568:3580  uint balance */\n      0x0\n        /* \"contracts/Auction.sol\":3869:3889  Item storage bidItem */\n      dup1\n        /* \"contracts/Auction.sol\":3920:3926  uint i */\n      0x0\n        /* \"contracts/Auction.sol\":3135:3141  _count */\n      dup4\n        /* \"contracts/Auction.sol\":3092:3104  tokenDetails */\n      0x0\n        /* \"contracts/Auction.sol\":3092:3116  tokenDetails[msg.sender] */\n      dup1\n        /* \"contracts/Auction.sol\":3105:3115  msg.sender */\n      caller\n        /* \"contracts/Auction.sol\":3092:3116  tokenDetails[msg.sender] */\n      0xffffffffffffffffffffffffffffffffffffffff\n      and\n      0xffffffffffffffffffffffffffffffffffffffff\n      and\n      dup2\n      mstore\n      0x20\n      add\n      swap1\n      dup2\n      mstore\n      0x20\n      add\n      0x0\n      keccak256\n        /* \"contracts/Auction.sol\":3092:3132  tokenDetails[msg.sender].remainingTokens */\n      0x0\n      add\n      sload\n        /* \"contracts/Auction.sol\":3092:3141  tokenDetails[msg.sender].remainingTokens < _count */\n      lt\n        /* \"contracts/Auction.sol\":3092:3203  tokenDetails[msg.sender].remainingTokens < _count ... */\n      dup1\n      tag_38\n      jumpi\n      pop\n        /* \"contracts/Auction.sol\":3202:3203  0 */\n      0x0\n        /* \"contracts/Auction.sol\":3158:3170  tokenDetails */\n      dup1\n        /* \"contracts/Auction.sol\":3158:3182  tokenDetails[msg.sender] */\n      0x0\n        /* \"contracts/Auction.sol\":3171:3181  msg.sender */\n      caller\n        /* \"contracts/Auction.sol\":3158:3182  tokenDetails[msg.sender] */\n      0xffffffffffffffffffffffffffffffffffffffff\n      and\n      0xffffffffffffffffffffffffffffffffffffffff\n      and\n      dup2\n      mstore\n      0x20\n      add\n      swap1\n      dup2\n      mstore\n      0x20\n      add\n      0x0\n      keccak256\n        /* \"contracts/Auction.sol\":3158:3198  tokenDetails[msg.sender].remainingTokens */\n      0x0\n      add\n      sload\n        /* \"contracts/Auction.sol\":3158:3203  tokenDetails[msg.sender].remainingTokens == 0 */\n      eq\n        /* \"contracts/Auction.sol\":3092:3203  tokenDetails[msg.sender].remainingTokens < _count ... */\n    tag_38:\n        /* \"contracts/Auction.sol\":3092:3230  tokenDetails[msg.sender].remainingTokens < _count ... */\n      dup1\n      tag_39\n      jumpi\n      pop\n        /* \"contracts/Auction.sol\":3229:3230  2 */\n      0x2\n        /* \"contracts/Auction.sol\":3219:3226  _itemId */\n      dup6\n        /* \"contracts/Auction.sol\":3219:3230  _itemId > 2 */\n      gt\n        /* \"contracts/Auction.sol\":3092:3230  tokenDetails[msg.sender].remainingTokens < _count ... */\n    tag_39:\n        /* \"contracts/Auction.sol\":3088:3240  if (tokenDetails[msg.sender].remainingTokens < _count ... */\n      iszero\n      tag_40\n      jumpi\n        /* \"contracts/Auction.sol\":3232:3240  revert() */\n      0x0\n      dup1\n      revert\n        /* \"contracts/Auction.sol\":3088:3240  if (tokenDetails[msg.sender].remainingTokens < _count ... */\n    tag_40:\n        /* \"contracts/Auction.sol\":3626:3632  _count */\n      dup4\n        /* \"contracts/Auction.sol\":3583:3595  tokenDetails */\n      0x0\n        /* \"contracts/Auction.sol\":3583:3607  tokenDetails[msg.sender] */\n      dup1\n        /* \"contracts/Auction.sol\":3596:3606  msg.sender */\n      caller\n        /* \"contracts/Auction.sol\":3583:3607  tokenDetails[msg.sender] */\n      0xffffffffffffffffffffffffffffffffffffffff\n      and\n      0xffffffffffffffffffffffffffffffffffffffff\n      and\n      dup2\n      mstore\n      0x20\n      add\n      swap1\n      dup2\n      mstore\n      0x20\n      add\n      0x0\n      keccak256\n        /* \"contracts/Auction.sol\":3583:3623  tokenDetails[msg.sender].remainingTokens */\n      0x0\n      add\n      sload\n        /* \"contracts/Auction.sol\":3583:3632  tokenDetails[msg.sender].remainingTokens - _count */\n      sub\n        /* \"contracts/Auction.sol\":3568:3632  uint balance = tokenDetails[msg.sender].remainingTokens - _count */\n      swap3\n      pop\n        /* \"contracts/Auction.sol\":3724:3731  balance */\n      dup3\n        /* \"contracts/Auction.sol\":3682:3694  tokenDetails */\n      0x0\n        /* \"contracts/Auction.sol\":3682:3706  tokenDetails[msg.sender] */\n      dup1\n        /* \"contracts/Auction.sol\":3695:3705  msg.sender */\n      caller\n        /* \"contracts/Auction.sol\":3682:3706  tokenDetails[msg.sender] */\n      0xffffffffffffffffffffffffffffffffffffffff\n      and\n      0xffffffffffffffffffffffffffffffffffffffff\n      and\n      dup2\n      mstore\n      0x20\n      add\n      swap1\n      dup2\n      mstore\n      0x20\n      add\n      0x0\n      keccak256\n        /* \"contracts/Auction.sol\":3682:3722  tokenDetails[msg.sender].remainingTokens */\n      0x0\n      add\n        /* \"contracts/Auction.sol\":3682:3731  tokenDetails[msg.sender].remainingTokens= balance */\n      dup2\n      swap1\n      sstore\n      pop\n        /* \"contracts/Auction.sol\":3800:3807  balance */\n      dup3\n        /* \"contracts/Auction.sol\":3741:3748  bidders */\n      0x1\n        /* \"contracts/Auction.sol\":3749:3761  tokenDetails */\n      0x0\n        /* \"contracts/Auction.sol\":3749:3773  tokenDetails[msg.sender] */\n      dup1\n        /* \"contracts/Auction.sol\":3762:3772  msg.sender */\n      caller\n        /* \"contracts/Auction.sol\":3749:3773  tokenDetails[msg.sender] */\n      0xffffffffffffffffffffffffffffffffffffffff\n      and\n      0xffffffffffffffffffffffffffffffffffffffff\n      and\n      dup2\n      mstore\n      0x20\n      add\n      swap1\n      dup2\n      mstore\n      0x20\n      add\n      0x0\n      keccak256\n        /* \"contracts/Auction.sol\":3749:3782  tokenDetails[msg.sender].personId */\n      0x1\n      add\n      sload\n        /* \"contracts/Auction.sol\":3741:3783  bidders[tokenDetails[msg.sender].personId] */\n      0x4\n      dup2\n      lt\n      iszero\n      iszero\n      tag_41\n      jumpi\n      invalid\n    tag_41:\n      0x3\n      mul\n      add\n        /* \"contracts/Auction.sol\":3741:3799  bidders[tokenDetails[msg.sender].personId].remainingTokens */\n      0x0\n      add\n        /* \"contracts/Auction.sol\":3741:3807  bidders[tokenDetails[msg.sender].personId].remainingTokens=balance */\n      dup2\n      swap1\n      sstore\n      pop\n        /* \"contracts/Auction.sol\":3892:3897  items */\n      0xd\n        /* \"contracts/Auction.sol\":3898:3905  _itemId */\n      dup6\n        /* \"contracts/Auction.sol\":3892:3906  items[_itemId] */\n      0x3\n      dup2\n      lt\n      iszero\n      iszero\n      tag_43\n      jumpi\n      invalid\n    tag_43:\n      0x2\n      mul\n      add\n        /* \"contracts/Auction.sol\":3869:3906  Item storage bidItem = items[_itemId] */\n      swap2\n      pop\n        /* \"contracts/Auction.sol\":3927:3928  0 */\n      0x0\n        /* \"contracts/Auction.sol\":3920:3928  uint i=0 */\n      swap1\n      pop\n        /* \"contracts/Auction.sol\":3916:4031  for(uint i=0; i<_count;i++) {... */\n    tag_45:\n        /* \"contracts/Auction.sol\":3932:3938  _count */\n      dup4\n        /* \"contracts/Auction.sol\":3930:3931  i */\n      dup2\n        /* \"contracts/Auction.sol\":3930:3938  i<_count */\n      lt\n        /* \"contracts/Auction.sol\":3916:4031  for(uint i=0; i<_count;i++) {... */\n      iszero\n      tag_46\n      jumpi\n        /* \"contracts/Auction.sol\":3958:3965  bidItem */\n      dup2\n        /* \"contracts/Auction.sol\":3958:3976  bidItem.itemTokens */\n      0x1\n      add\n        /* \"contracts/Auction.sol\":3982:3994  tokenDetails */\n      0x0\n        /* \"contracts/Auction.sol\":3982:4006  tokenDetails[msg.sender] */\n      dup1\n        /* \"contracts/Auction.sol\":3995:4005  msg.sender */\n      caller\n        /* \"contracts/Auction.sol\":3982:4006  tokenDetails[msg.sender] */\n      0xffffffffffffffffffffffffffffffffffffffff\n      and\n      0xffffffffffffffffffffffffffffffffffffffff\n      and\n      dup2\n      mstore\n      0x20\n      add\n      swap1\n      dup2\n      mstore\n      0x20\n      add\n      0x0\n      keccak256\n        /* \"contracts/Auction.sol\":3982:4015  tokenDetails[msg.sender].personId */\n      0x1\n      add\n      sload\n        /* \"contracts/Auction.sol\":3958:4016  bidItem.itemTokens.push(tokenDetails[msg.sender].personId) */\n      swap1\n      dup1\n        /* \"--CODEGEN--\":39:40   */\n      0x1\n        /* \"--CODEGEN--\":33:36   */\n      dup2\n        /* \"--CODEGEN--\":27:37   */\n      sload\n        /* \"--CODEGEN--\":23:41   */\n      add\n        /* \"--CODEGEN--\":57:67   */\n      dup1\n        /* \"--CODEGEN--\":52:55   */\n      dup3\n        /* \"--CODEGEN--\":45:68   */\n      sstore\n        /* \"--CODEGEN--\":79:89   */\n      dup1\n        /* \"--CODEGEN--\":72:89   */\n      swap2\n      pop\n        /* \"--CODEGEN--\":0:93   */\n      pop\n        /* \"contracts/Auction.sol\":3958:4016  bidItem.itemTokens.push(tokenDetails[msg.sender].personId) */\n      swap1\n      0x1\n      dup3\n      sub\n      swap1\n      0x0\n      mstore\n      keccak256(0x0, 0x20)\n      add\n      0x0\n      swap1\n      swap2\n      swap3\n      swap1\n      swap2\n      swap1\n      swap2\n      pop\n      sstore\n      pop\n        /* \"contracts/Auction.sol\":3939:3942  i++ */\n      dup1\n      dup1\n      0x1\n      add\n      swap2\n      pop\n      pop\n        /* \"contracts/Auction.sol\":3916:4031  for(uint i=0; i<_count;i++) {... */\n      jump(tag_45)\n    tag_46:\n        /* \"contracts/Auction.sol\":2272:4037  function bid(uint _itemId, uint _count) public payable{... */\n      pop\n      pop\n      pop\n      pop\n      pop\n      jump\t// out\n        /* \"contracts/Auction.sol\":5621:5789  function getPersonDetails(uint id) public constant returns(uint,uint,address){... */\n    tag_18:\n        /* \"contracts/Auction.sol\":5680:5684  uint */\n      0x0\n        /* \"contracts/Auction.sol\":5685:5689  uint */\n      dup1\n        /* \"contracts/Auction.sol\":5690:5697  address */\n      0x0\n        /* \"contracts/Auction.sol\":5716:5723  bidders */\n      0x1\n        /* \"contracts/Auction.sol\":5724:5726  id */\n      dup5\n        /* \"contracts/Auction.sol\":5716:5727  bidders[id] */\n      0x4\n      dup2\n      lt\n      iszero\n      iszero\n      tag_50\n      jumpi\n      invalid\n    tag_50:\n      0x3\n      mul\n      add\n        /* \"contracts/Auction.sol\":5716:5743  bidders[id].remainingTokens */\n      0x0\n      add\n      sload\n        /* \"contracts/Auction.sol\":5744:5751  bidders */\n      0x1\n        /* \"contracts/Auction.sol\":5752:5754  id */\n      dup6\n        /* \"contracts/Auction.sol\":5744:5755  bidders[id] */\n      0x4\n      dup2\n      lt\n      iszero\n      iszero\n      tag_52\n      jumpi\n      invalid\n    tag_52:\n      0x3\n      mul\n      add\n        /* \"contracts/Auction.sol\":5744:5764  bidders[id].personId */\n      0x1\n      add\n      sload\n        /* \"contracts/Auction.sol\":5765:5772  bidders */\n      0x1\n        /* \"contracts/Auction.sol\":5773:5775  id */\n      dup7\n        /* \"contracts/Auction.sol\":5765:5776  bidders[id] */\n      0x4\n      dup2\n      lt\n      iszero\n      iszero\n      tag_54\n      jumpi\n      invalid\n    tag_54:\n      0x3\n      mul\n      add\n        /* \"contracts/Auction.sol\":5765:5781  bidders[id].addr */\n      0x2\n      add\n      0x0\n      swap1\n      sload\n      swap1\n      0x100\n      exp\n      swap1\n      div\n      0xffffffffffffffffffffffffffffffffffffffff\n      and\n        /* \"contracts/Auction.sol\":5708:5782  return (bidders[id].remainingTokens,bidders[id].personId,bidders[id].addr) */\n      swap3\n      pop\n      swap3\n      pop\n      swap3\n      pop\n        /* \"contracts/Auction.sol\":5621:5789  function getPersonDetails(uint id) public constant returns(uint,uint,address){... */\n      swap2\n      swap4\n      swap1\n      swap3\n      pop\n      jump\t// out\n        /* \"contracts/Auction.sol\":4429:5519  function revealWinners() public onlyOwner{... */\n    tag_21:\n        /* \"contracts/Auction.sol\":4661:4668  uint id */\n      0x0\n        /* \"contracts/Auction.sol\":4702:4726  Item storage currentItem */\n      dup1\n        /* \"contracts/Auction.sol\":4853:4869  uint randomIndex */\n      0x0\n        /* \"contracts/Auction.sol\":5007:5020  uint winnerId */\n      dup1\n        /* \"contracts/Auction.sol\":4353:4364  beneficiary */\n      0x16\n      0x0\n      swap1\n      sload\n      swap1\n      0x100\n      exp\n      swap1\n      div\n      0xffffffffffffffffffffffffffffffffffffffff\n      and\n        /* \"contracts/Auction.sol\":4339:4364  msg.sender == beneficiary */\n      0xffffffffffffffffffffffffffffffffffffffff\n      and\n        /* \"contracts/Auction.sol\":4339:4349  msg.sender */\n      caller\n        /* \"contracts/Auction.sol\":4339:4364  msg.sender == beneficiary */\n      0xffffffffffffffffffffffffffffffffffffffff\n      and\n      eq\n        /* \"contracts/Auction.sol\":4330:4365  require (msg.sender == beneficiary) */\n      iszero\n      iszero\n      tag_57\n      jumpi\n      0x0\n      dup1\n      revert\n    tag_57:\n        /* \"contracts/Auction.sol\":4671:4672  0 */\n      0x0\n        /* \"contracts/Auction.sol\":4661:4672  uint id = 0 */\n      swap4\n      pop\n        /* \"contracts/Auction.sol\":4656:5513  for (uint id = 0; id < 3; id++) {... */\n    tag_59:\n        /* \"contracts/Auction.sol\":4679:4680  3 */\n      0x3\n        /* \"contracts/Auction.sol\":4674:4676  id */\n      dup5\n        /* \"contracts/Auction.sol\":4674:4680  id < 3 */\n      lt\n        /* \"contracts/Auction.sol\":4656:5513  for (uint id = 0; id < 3; id++) {... */\n      iszero\n      tag_60\n      jumpi\n        /* \"contracts/Auction.sol\":4727:4732  items */\n      0xd\n        /* \"contracts/Auction.sol\":4733:4735  id */\n      dup5\n        /* \"contracts/Auction.sol\":4727:4736  items[id] */\n      0x3\n      dup2\n      lt\n      iszero\n      iszero\n      tag_62\n      jumpi\n      invalid\n    tag_62:\n      0x2\n      mul\n      add\n        /* \"contracts/Auction.sol\":4702:4736  Item storage currentItem=items[id] */\n      swap3\n      pop\n        /* \"contracts/Auction.sol\":4786:4787  0 */\n      0x0\n        /* \"contracts/Auction.sol\":4753:4764  currentItem */\n      dup4\n        /* \"contracts/Auction.sol\":4753:4775  currentItem.itemTokens */\n      0x1\n      add\n        /* \"contracts/Auction.sol\":4753:4782  currentItem.itemTokens.length */\n      dup1\n      sload\n      swap1\n      pop\n        /* \"contracts/Auction.sol\":4753:4787  currentItem.itemTokens.length != 0 */\n      eq\n      iszero\n        /* \"contracts/Auction.sol\":4750:5503  if(currentItem.itemTokens.length != 0){... */\n      iszero\n      tag_64\n      jumpi\n        /* \"contracts/Auction.sol\":4920:4931  currentItem */\n      dup3\n        /* \"contracts/Auction.sol\":4920:4942  currentItem.itemTokens */\n      0x1\n      add\n        /* \"contracts/Auction.sol\":4920:4949  currentItem.itemTokens.length */\n      dup1\n      sload\n      swap1\n      pop\n        /* \"contracts/Auction.sol\":4888:4899  currentItem */\n      dup4\n        /* \"contracts/Auction.sol\":4888:4910  currentItem.itemTokens */\n      0x1\n      add\n        /* \"contracts/Auction.sol\":4888:4917  currentItem.itemTokens.length */\n      dup1\n      sload\n      swap1\n      pop\n        /* \"contracts/Auction.sol\":4873:4885  block.number */\n      number\n        /* \"contracts/Auction.sol\":4873:4917  block.number / currentItem.itemTokens.length */\n      dup2\n      iszero\n      iszero\n      tag_65\n      jumpi\n      invalid\n    tag_65:\n      div\n        /* \"contracts/Auction.sol\":4872:4949  (block.number / currentItem.itemTokens.length)% currentItem.itemTokens.length */\n      dup2\n      iszero\n      iszero\n      tag_66\n      jumpi\n      invalid\n    tag_66:\n      mod\n        /* \"contracts/Auction.sol\":4853:4949  uint randomIndex = (block.number / currentItem.itemTokens.length)% currentItem.itemTokens.length */\n      swap2\n      pop\n        /* \"contracts/Auction.sol\":5023:5034  currentItem */\n      dup3\n        /* \"contracts/Auction.sol\":5023:5045  currentItem.itemTokens */\n      0x1\n      add\n        /* \"contracts/Auction.sol\":5046:5057  randomIndex */\n      dup3\n        /* \"contracts/Auction.sol\":5023:5058  currentItem.itemTokens[randomIndex] */\n      dup2\n      sload\n      dup2\n      lt\n      iszero\n      iszero\n      tag_67\n      jumpi\n      invalid\n    tag_67:\n      swap1\n      0x0\n      mstore\n      keccak256(0x0, 0x20)\n      add\n      sload\n        /* \"contracts/Auction.sol\":5007:5058  uint winnerId = currentItem.itemTokens[randomIndex] */\n      swap1\n      pop\n        /* \"contracts/Auction.sol\":5396:5403  bidders */\n      0x1\n        /* \"contracts/Auction.sol\":5404:5412  winnerId */\n      dup2\n        /* \"contracts/Auction.sol\":5396:5413  bidders[winnerId] */\n      0x4\n      dup2\n      lt\n      iszero\n      iszero\n      tag_69\n      jumpi\n      invalid\n    tag_69:\n      0x3\n      mul\n      add\n        /* \"contracts/Auction.sol\":5396:5418  bidders[winnerId].addr */\n      0x2\n      add\n      0x0\n      swap1\n      sload\n      swap1\n      0x100\n      exp\n      swap1\n      div\n      0xffffffffffffffffffffffffffffffffffffffff\n      and\n        /* \"contracts/Auction.sol\":5382:5389  winners */\n      0x13\n        /* \"contracts/Auction.sol\":5390:5392  id */\n      dup6\n        /* \"contracts/Auction.sol\":5382:5393  winners[id] */\n      0x3\n      dup2\n      lt\n      iszero\n      iszero\n      tag_71\n      jumpi\n      invalid\n    tag_71:\n      add\n      0x0\n        /* \"contracts/Auction.sol\":5382:5418  winners[id] = bidders[winnerId].addr */\n      0x100\n      exp\n      dup2\n      sload\n      dup2\n      0xffffffffffffffffffffffffffffffffffffffff\n      mul\n      not\n      and\n      swap1\n      dup4\n      0xffffffffffffffffffffffffffffffffffffffff\n      and\n      mul\n      or\n      swap1\n      sstore\n      pop\n        /* \"contracts/Auction.sol\":4750:5503  if(currentItem.itemTokens.length != 0){... */\n    tag_64:\n        /* \"contracts/Auction.sol\":4682:4686  id++ */\n      dup4\n      dup1\n      0x1\n      add\n      swap5\n      pop\n      pop\n        /* \"contracts/Auction.sol\":4656:5513  for (uint id = 0; id < 3; id++) {... */\n      jump(tag_59)\n    tag_60:\n        /* \"contracts/Auction.sol\":4429:5519  function revealWinners() public onlyOwner{... */\n      pop\n      pop\n      pop\n      pop\n      jump\t// out\n        /* \"contracts/Auction.sol\":675:700  address[3] public winners */\n    tag_24:\n      0x13\n      dup2\n      0x3\n      dup2\n      lt\n      iszero\n      iszero\n      tag_73\n      jumpi\n      invalid\n    tag_73:\n      add\n      0x0\n      swap2\n      pop\n      sload\n      swap1\n      0x100\n      exp\n      swap1\n      div\n      0xffffffffffffffffffffffffffffffffffffffff\n      and\n      dup2\n      jump\t// out\n        /* \"contracts/Auction.sol\":615:636  Item [3] public items */\n    tag_27:\n      0xd\n      dup2\n      0x3\n      dup2\n      lt\n      iszero\n      iszero\n      tag_75\n      jumpi\n      invalid\n    tag_75:\n      0x2\n      mul\n      add\n      0x0\n      swap2\n      pop\n      swap1\n      pop\n      dup1\n      0x0\n      add\n      sload\n      swap1\n      pop\n      dup2\n      jump\t// out\n\n    auxdata: 0xa165627a7a723058202331ac242a95fd338d8704d59986033a6137104f5f7d0ad7c3551a537c81089b0029\n}\n",
				"bytecode": {
					"linkReferences": {},
					"object": "60806040526000601755604051602080610a8a83398101806040528101908080519060200190929190505050606033601660006101000a81548173ffffffffffffffffffffffffffffffffffffffff021916908373ffffffffffffffffffffffffffffffffffffffff16021790555060408051908101604052806000815260200182815250600d600060038110151561009457fe5b600202016000820151816000015560208201518160010190805190602001906100be929190610171565b5090505060408051908101604052806001815260200182815250600d60016003811015156100e857fe5b60020201600082015181600001556020820151816001019080519060200190610112929190610171565b5090505060408051908101604052806002815260200182815250600d600260038110151561013c57fe5b60020201600082015181600001556020820151816001019080519060200190610166929190610171565b5090505050506101e3565b8280548282559060005260206000209081019282156101ad579160200282015b828111156101ac578251825591602001919060010190610191565b5b5090506101ba91906101be565b5090565b6101e091905b808211156101dc5760008160009055506001016101c4565b5090565b90565b610898806101f26000396000f300608060405260043610610083576000357c0100000000000000000000000000000000000000000000000000000000900463ffffffff1680631aa3a0081461008857806338af3eed14610092578063598647f8146100e95780636098170514610113578063952587d61461018e578063a2fb1175146101a5578063bfb231d214610212575b600080fd5b610090610253565b005b34801561009e57600080fd5b506100a76103cc565b604051808273ffffffffffffffffffffffffffffffffffffffff1673ffffffffffffffffffffffffffffffffffffffff16815260200191505060405180910390f35b61011160048036038101908080359060200190929190803590602001909291905050506103f2565b005b34801561011f57600080fd5b5061013e60048036038101908080359060200190929190505050610629565b604051808481526020018381526020018273ffffffffffffffffffffffffffffffffffffffff1673ffffffffffffffffffffffffffffffffffffffff168152602001935050505060405180910390f35b34801561019a57600080fd5b506101a36106a0565b005b3480156101b157600080fd5b506101d060048036038101908080359060200190929190505050610814565b604051808273ffffffffffffffffffffffffffffffffffffffff1673ffffffffffffffffffffffffffffffffffffffff16815260200191505060405180910390f35b34801561021e57600080fd5b5061023d60048036038101908080359060200190929190505050610849565b6040518082815260200191505060405180910390f35b601754600160175460048110151561026757fe5b600302016001018190555033600160175460048110151561028457fe5b6003020160020160006101000a81548173ffffffffffffffffffffffffffffffffffffffff021916908373ffffffffffffffffffffffffffffffffffffffff160217905550600560016017546004811015156102dc57fe5b600302016000018190555060016017546004811015156102f857fe5b600302016000803373ffffffffffffffffffffffffffffffffffffffff1673ffffffffffffffffffffffffffffffffffffffff16815260200190815260200160002060008201548160000155600182015481600101556002820160009054906101000a900473ffffffffffffffffffffffffffffffffffffffff168160020160006101000a81548173ffffffffffffffffffffffffffffffffffffffff021916908373ffffffffffffffffffffffffffffffffffffffff160217905550905050601760008154809291906001019190505550565b601660009054906101000a900473ffffffffffffffffffffffffffffffffffffffff1681565b6000806000836000803373ffffffffffffffffffffffffffffffffffffffff1673ffffffffffffffffffffffffffffffffffffffff168152602001908152602001600020600001541080610487575060008060003373ffffffffffffffffffffffffffffffffffffffff1673ffffffffffffffffffffffffffffffffffffffff16815260200190815260200160002060000154145b806104925750600285115b1561049c57600080fd5b836000803373ffffffffffffffffffffffffffffffffffffffff1673ffffffffffffffffffffffffffffffffffffffff16815260200190815260200160002060000154039250826000803373ffffffffffffffffffffffffffffffffffffffff1673ffffffffffffffffffffffffffffffffffffffff168152602001908152602001600020600001819055508260016000803373ffffffffffffffffffffffffffffffffffffffff1673ffffffffffffffffffffffffffffffffffffffff1681526020019081526020016000206001015460048110151561057957fe5b6003020160000181905550600d8560038110151561059357fe5b600202019150600090505b8381101561062257816001016000803373ffffffffffffffffffffffffffffffffffffffff1673ffffffffffffffffffffffffffffffffffffffff168152602001908152602001600020600101549080600181540180825580915050906001820390600052602060002001600090919290919091505550808060010191505061059e565b5050505050565b600080600060018460048110151561063d57fe5b600302016000015460018560048110151561065457fe5b600302016001015460018660048110151561066b57fe5b6003020160020160009054906101000a900473ffffffffffffffffffffffffffffffffffffffff169250925092509193909250565b600080600080601660009054906101000a900473ffffffffffffffffffffffffffffffffffffffff1673ffffffffffffffffffffffffffffffffffffffff163373ffffffffffffffffffffffffffffffffffffffff1614151561070257600080fd5b600093505b600384101561080e57600d8460038110151561071f57fe5b6002020192506000836001018054905014151561080157826001018054905083600101805490504381151561075057fe5b0481151561075a57fe5b069150826001018281548110151561076e57fe5b9060005260206000200154905060018160048110151561078a57fe5b6003020160020160009054906101000a900473ffffffffffffffffffffffffffffffffffffffff166013856003811015156107c157fe5b0160006101000a81548173ffffffffffffffffffffffffffffffffffffffff021916908373ffffffffffffffffffffffffffffffffffffffff1602179055505b8380600101945050610707565b50505050565b60138160038110151561082357fe5b016000915054906101000a900473ffffffffffffffffffffffffffffffffffffffff1681565b600d8160038110151561085857fe5b6002020160009150905080600001549050815600a165627a7a723058202331ac242a95fd338d8704d59986033a6137104f5f7d0ad7c3551a537c81089b0029",
					"opcodes": "PUSH1 0x80 PUSH1 0x40 MSTORE PUSH1 0x0 PUSH1 0x17 SSTORE PUSH1 0x40 MLOAD PUSH1 0x20 DUP1 PUSH2 0xA8A DUP4 CODECOPY DUP2 ADD DUP1 PUSH1 0x40 MSTORE DUP2 ADD SWAP1 DUP1 DUP1 MLOAD SWAP1 PUSH1 0x20 ADD SWAP1 SWAP3 SWAP2 SWAP1 POP POP POP PUSH1 0x60 CALLER PUSH1 0x16 PUSH1 0x0 PUSH2 0x100 EXP DUP2 SLOAD DUP2 PUSH20 0xFFFFFFFFFFFFFFFFFFFFFFFFFFFFFFFFFFFFFFFF MUL NOT AND SWAP1 DUP4 PUSH20 0xFFFFFFFFFFFFFFFFFFFFFFFFFFFFFFFFFFFFFFFF AND MUL OR SWAP1 SSTORE POP PUSH1 0x40 DUP1 MLOAD SWAP1 DUP2 ADD PUSH1 0x40 MSTORE DUP1 PUSH1 0x0 DUP2 MSTORE PUSH1 0x20 ADD DUP3 DUP2 MSTORE POP PUSH1 0xD PUSH1 0x0 PUSH1 0x3 DUP2 LT ISZERO ISZERO PUSH2 0x94 JUMPI INVALID JUMPDEST PUSH1 0x2 MUL ADD PUSH1 0x0 DUP3 ADD MLOAD DUP2 PUSH1 0x0 ADD SSTORE PUSH1 0x20 DUP3 ADD MLOAD DUP2 PUSH1 0x1 ADD SWAP1 DUP1 MLOAD SWAP1 PUSH1 0x20 ADD SWAP1 PUSH2 0xBE SWAP3 SWAP2 SWAP1 PUSH2 0x171 JUMP JUMPDEST POP SWAP1 POP POP PUSH1 0x40 DUP1 MLOAD SWAP1 DUP2 ADD PUSH1 0x40 MSTORE DUP1 PUSH1 0x1 DUP2 MSTORE PUSH1 0x20 ADD DUP3 DUP2 MSTORE POP PUSH1 0xD PUSH1 0x1 PUSH1 0x3 DUP2 LT ISZERO ISZERO PUSH2 0xE8 JUMPI INVALID JUMPDEST PUSH1 0x2 MUL ADD PUSH1 0x0 DUP3 ADD MLOAD DUP2 PUSH1 0x0 ADD SSTORE PUSH1 0x20 DUP3 ADD MLOAD DUP2 PUSH1 0x1 ADD SWAP1 DUP1 MLOAD SWAP1 PUSH1 0x20 ADD SWAP1 PUSH2 0x112 SWAP3 SWAP2 SWAP1 PUSH2 0x171 JUMP JUMPDEST POP SWAP1 POP POP PUSH1 0x40 DUP1 MLOAD SWAP1 DUP2 ADD PUSH1 0x40 MSTORE DUP1 PUSH1 0x2 DUP2 MSTORE PUSH1 0x20 ADD DUP3 DUP2 MSTORE POP PUSH1 0xD PUSH1 0x2 PUSH1 0x3 DUP2 LT ISZERO ISZERO PUSH2 0x13C JUMPI INVALID JUMPDEST PUSH1 0x2 MUL ADD PUSH1 0x0 DUP3 ADD MLOAD DUP2 PUSH1 0x0 ADD SSTORE PUSH1 0x20 DUP3 ADD MLOAD DUP2 PUSH1 0x1 ADD SWAP1 DUP1 MLOAD SWAP1 PUSH1 0x20 ADD SWAP1 PUSH2 0x166 SWAP3 SWAP2 SWAP1 PUSH2 0x171 JUMP JUMPDEST POP SWAP1 POP POP POP POP PUSH2 0x1E3 JUMP JUMPDEST DUP3 DUP1 SLOAD DUP3 DUP3 SSTORE SWAP1 PUSH1 0x0 MSTORE PUSH1 0x20 PUSH1 0x0 KECCAK256 SWAP1 DUP2 ADD SWAP3 DUP3 ISZERO PUSH2 0x1AD JUMPI SWAP2 PUSH1 0x20 MUL DUP3 ADD JUMPDEST DUP3 DUP2 GT ISZERO PUSH2 0x1AC JUMPI DUP3 MLOAD DUP3 SSTORE SWAP2 PUSH1 0x20 ADD SWAP2 SWAP1 PUSH1 0x1 ADD SWAP1 PUSH2 0x191 JUMP JUMPDEST JUMPDEST POP SWAP1 POP PUSH2 0x1BA SWAP2 SWAP1 PUSH2 0x1BE JUMP JUMPDEST POP SWAP1 JUMP JUMPDEST PUSH2 0x1E0 SWAP2 SWAP1 JUMPDEST DUP1 DUP3 GT ISZERO PUSH2 0x1DC JUMPI PUSH1 0x0 DUP2 PUSH1 0x0 SWAP1 SSTORE POP PUSH1 0x1 ADD PUSH2 0x1C4 JUMP JUMPDEST POP SWAP1 JUMP JUMPDEST SWAP1 JUMP JUMPDEST PUSH2 0x898 DUP1 PUSH2 0x1F2 PUSH1 0x0 CODECOPY PUSH1 0x0 RETURN STOP PUSH1 0x80 PUSH1 0x40 MSTORE PUSH1 0x4 CALLDATASIZE LT PUSH2 0x83 JUMPI PUSH1 0x0 CALLDATALOAD PUSH29 0x100000000000000000000000000000000000000000000000000000000 SWAP1 DIV PUSH4 0xFFFFFFFF AND DUP1 PUSH4 0x1AA3A008 EQ PUSH2 0x88 JUMPI DUP1 PUSH4 0x38AF3EED EQ PUSH2 0x92 JUMPI DUP1 PUSH4 0x598647F8 EQ PUSH2 0xE9 JUMPI DUP1 PUSH4 0x60981705 EQ PUSH2 0x113 JUMPI DUP1 PUSH4 0x952587D6 EQ PUSH2 0x18E JUMPI DUP1 PUSH4 0xA2FB1175 EQ PUSH2 0x1A5 JUMPI DUP1 PUSH4 0xBFB231D2 EQ PUSH2 0x212 JUMPI JUMPDEST PUSH1 0x0 DUP1 REVERT JUMPDEST PUSH2 0x90 PUSH2 0x253 JUMP JUMPDEST STOP JUMPDEST CALLVALUE DUP1 ISZERO PUSH2 0x9E JUMPI PUSH1 0x0 DUP1 REVERT JUMPDEST POP PUSH2 0xA7 PUSH2 0x3CC JUMP JUMPDEST PUSH1 0x40 MLOAD DUP1 DUP3 PUSH20 0xFFFFFFFFFFFFFFFFFFFFFFFFFFFFFFFFFFFFFFFF AND PUSH20 0xFFFFFFFFFFFFFFFFFFFFFFFFFFFFFFFFFFFFFFFF AND DUP2 MSTORE PUSH1 0x20 ADD SWAP2 POP POP PUSH1 0x40 MLOAD DUP1 SWAP2 SUB SWAP1 RETURN JUMPDEST PUSH2 0x111 PUSH1 0x4 DUP1 CALLDATASIZE SUB DUP2 ADD SWAP1 DUP1 DUP1 CALLDATALOAD SWAP1 PUSH1 0x20 ADD SWAP1 SWAP3 SWAP2 SWAP1 DUP1 CALLDATALOAD SWAP1 PUSH1 0x20 ADD SWAP1 SWAP3 SWAP2 SWAP1 POP POP POP PUSH2 0x3F2 JUMP JUMPDEST STOP JUMPDEST CALLVALUE DUP1 ISZERO PUSH2 0x11F JUMPI PUSH1 0x0 DUP1 REVERT JUMPDEST POP PUSH2 0x13E PUSH1 0x4 DUP1 CALLDATASIZE SUB DUP2 ADD SWAP1 DUP1 DUP1 CALLDATALOAD SWAP1 PUSH1 0x20 ADD SWAP1 SWAP3 SWAP2 SWAP1 POP POP POP PUSH2 0x629 JUMP JUMPDEST PUSH1 0x40 MLOAD DUP1 DUP5 DUP2 MSTORE PUSH1 0x20 ADD DUP4 DUP2 MSTORE PUSH1 0x20 ADD DUP3 PUSH20 0xFFFFFFFFFFFFFFFFFFFFFFFFFFFFFFFFFFFFFFFF AND PUSH20 0xFFFFFFFFFFFFFFFFFFFFFFFFFFFFFFFFFFFFFFFF AND DUP2 MSTORE PUSH1 0x20 ADD SWAP4 POP POP POP POP PUSH1 0x40 MLOAD DUP1 SWAP2 SUB SWAP1 RETURN JUMPDEST CALLVALUE DUP1 ISZERO PUSH2 0x19A JUMPI PUSH1 0x0 DUP1 REVERT JUMPDEST POP PUSH2 0x1A3 PUSH2 0x6A0 JUMP JUMPDEST STOP JUMPDEST CALLVALUE DUP1 ISZERO PUSH2 0x1B1 JUMPI PUSH1 0x0 DUP1 REVERT JUMPDEST POP PUSH2 0x1D0 PUSH1 0x4 DUP1 CALLDATASIZE SUB DUP2 ADD SWAP1 DUP1 DUP1 CALLDATALOAD SWAP1 PUSH1 0x20 ADD SWAP1 SWAP3 SWAP2 SWAP1 POP POP POP PUSH2 0x814 JUMP JUMPDEST PUSH1 0x40 MLOAD DUP1 DUP3 PUSH20 0xFFFFFFFFFFFFFFFFFFFFFFFFFFFFFFFFFFFFFFFF AND PUSH20 0xFFFFFFFFFFFFFFFFFFFFFFFFFFFFFFFFFFFFFFFF AND DUP2 MSTORE PUSH1 0x20 ADD SWAP2 POP POP PUSH1 0x40 MLOAD DUP1 SWAP2 SUB SWAP1 RETURN JUMPDEST CALLVALUE DUP1 ISZERO PUSH2 0x21E JUMPI PUSH1 0x0 DUP1 REVERT JUMPDEST POP PUSH2 0x23D PUSH1 0x4 DUP1 CALLDATASIZE SUB DUP2 ADD SWAP1 DUP1 DUP1 CALLDATALOAD SWAP1 PUSH1 0x20 ADD SWAP1 SWAP3 SWAP2 SWAP1 POP POP POP PUSH2 0x849 JUMP JUMPDEST PUSH1 0x40 MLOAD DUP1 DUP3 DUP2 MSTORE PUSH1 0x20 ADD SWAP2 POP POP PUSH1 0x40 MLOAD DUP1 SWAP2 SUB SWAP1 RETURN JUMPDEST PUSH1 0x17 SLOAD PUSH1 0x1 PUSH1 0x17 SLOAD PUSH1 0x4 DUP2 LT ISZERO ISZERO PUSH2 0x267 JUMPI INVALID JUMPDEST PUSH1 0x3 MUL ADD PUSH1 0x1 ADD DUP2 SWAP1 SSTORE POP CALLER PUSH1 0x1 PUSH1 0x17 SLOAD PUSH1 0x4 DUP2 LT ISZERO ISZERO PUSH2 0x284 JUMPI INVALID JUMPDEST PUSH1 0x3 MUL ADD PUSH1 0x2 ADD PUSH1 0x0 PUSH2 0x100 EXP DUP2 SLOAD DUP2 PUSH20 0xFFFFFFFFFFFFFFFFFFFFFFFFFFFFFFFFFFFFFFFF MUL NOT AND SWAP1 DUP4 PUSH20 0xFFFFFFFFFFFFFFFFFFFFFFFFFFFFFFFFFFFFFFFF AND MUL OR SWAP1 SSTORE POP PUSH1 0x5 PUSH1 0x1 PUSH1 0x17 SLOAD PUSH1 0x4 DUP2 LT ISZERO ISZERO PUSH2 0x2DC JUMPI INVALID JUMPDEST PUSH1 0x3 MUL ADD PUSH1 0x0 ADD DUP2 SWAP1 SSTORE POP PUSH1 0x1 PUSH1 0x17 SLOAD PUSH1 0x4 DUP2 LT ISZERO ISZERO PUSH2 0x2F8 JUMPI INVALID JUMPDEST PUSH1 0x3 MUL ADD PUSH1 0x0 DUP1 CALLER PUSH20 0xFFFFFFFFFFFFFFFFFFFFFFFFFFFFFFFFFFFFFFFF AND PUSH20 0xFFFFFFFFFFFFFFFFFFFFFFFFFFFFFFFFFFFFFFFF AND DUP2 MSTORE PUSH1 0x20 ADD SWAP1 DUP2 MSTORE PUSH1 0x20 ADD PUSH1 0x0 KECCAK256 PUSH1 0x0 DUP3 ADD SLOAD DUP2 PUSH1 0x0 ADD SSTORE PUSH1 0x1 DUP3 ADD SLOAD DUP2 PUSH1 0x1 ADD SSTORE PUSH1 0x2 DUP3 ADD PUSH1 0x0 SWAP1 SLOAD SWAP1 PUSH2 0x100 EXP SWAP1 DIV PUSH20 0xFFFFFFFFFFFFFFFFFFFFFFFFFFFFFFFFFFFFFFFF AND DUP2 PUSH1 0x2 ADD PUSH1 0x0 PUSH2 0x100 EXP DUP2 SLOAD DUP2 PUSH20 0xFFFFFFFFFFFFFFFFFFFFFFFFFFFFFFFFFFFFFFFF MUL NOT AND SWAP1 DUP4 PUSH20 0xFFFFFFFFFFFFFFFFFFFFFFFFFFFFFFFFFFFFFFFF AND MUL OR SWAP1 SSTORE POP SWAP1 POP POP PUSH1 0x17 PUSH1 0x0 DUP2 SLOAD DUP1 SWAP3 SWAP2 SWAP1 PUSH1 0x1 ADD SWAP2 SWAP1 POP SSTORE POP JUMP JUMPDEST PUSH1 0x16 PUSH1 0x0 SWAP1 SLOAD SWAP1 PUSH2 0x100 EXP SWAP1 DIV PUSH20 0xFFFFFFFFFFFFFFFFFFFFFFFFFFFFFFFFFFFFFFFF AND DUP2 JUMP JUMPDEST PUSH1 0x0 DUP1 PUSH1 0x0 DUP4 PUSH1 0x0 DUP1 CALLER PUSH20 0xFFFFFFFFFFFFFFFFFFFFFFFFFFFFFFFFFFFFFFFF AND PUSH20 0xFFFFFFFFFFFFFFFFFFFFFFFFFFFFFFFFFFFFFFFF AND DUP2 MSTORE PUSH1 0x20 ADD SWAP1 DUP2 MSTORE PUSH1 0x20 ADD PUSH1 0x0 KECCAK256 PUSH1 0x0 ADD SLOAD LT DUP1 PUSH2 0x487 JUMPI POP PUSH1 0x0 DUP1 PUSH1 0x0 CALLER PUSH20 0xFFFFFFFFFFFFFFFFFFFFFFFFFFFFFFFFFFFFFFFF AND PUSH20 0xFFFFFFFFFFFFFFFFFFFFFFFFFFFFFFFFFFFFFFFF AND DUP2 MSTORE PUSH1 0x20 ADD SWAP1 DUP2 MSTORE PUSH1 0x20 ADD PUSH1 0x0 KECCAK256 PUSH1 0x0 ADD SLOAD EQ JUMPDEST DUP1 PUSH2 0x492 JUMPI POP PUSH1 0x2 DUP6 GT JUMPDEST ISZERO PUSH2 0x49C JUMPI PUSH1 0x0 DUP1 REVERT JUMPDEST DUP4 PUSH1 0x0 DUP1 CALLER PUSH20 0xFFFFFFFFFFFFFFFFFFFFFFFFFFFFFFFFFFFFFFFF AND PUSH20 0xFFFFFFFFFFFFFFFFFFFFFFFFFFFFFFFFFFFFFFFF AND DUP2 MSTORE PUSH1 0x20 ADD SWAP1 DUP2 MSTORE PUSH1 0x20 ADD PUSH1 0x0 KECCAK256 PUSH1 0x0 ADD SLOAD SUB SWAP3 POP DUP3 PUSH1 0x0 DUP1 CALLER PUSH20 0xFFFFFFFFFFFFFFFFFFFFFFFFFFFFFFFFFFFFFFFF AND PUSH20 0xFFFFFFFFFFFFFFFFFFFFFFFFFFFFFFFFFFFFFFFF AND DUP2 MSTORE PUSH1 0x20 ADD SWAP1 DUP2 MSTORE PUSH1 0x20 ADD PUSH1 0x0 KECCAK256 PUSH1 0x0 ADD DUP2 SWAP1 SSTORE POP DUP3 PUSH1 0x1 PUSH1 0x0 DUP1 CALLER PUSH20 0xFFFFFFFFFFFFFFFFFFFFFFFFFFFFFFFFFFFFFFFF AND PUSH20 0xFFFFFFFFFFFFFFFFFFFFFFFFFFFFFFFFFFFFFFFF AND DUP2 MSTORE PUSH1 0x20 ADD SWAP1 DUP2 MSTORE PUSH1 0x20 ADD PUSH1 0x0 KECCAK256 PUSH1 0x1 ADD SLOAD PUSH1 0x4 DUP2 LT ISZERO ISZERO PUSH2 0x579 JUMPI INVALID JUMPDEST PUSH1 0x3 MUL ADD PUSH1 0x0 ADD DUP2 SWAP1 SSTORE POP PUSH1 0xD DUP6 PUSH1 0x3 DUP2 LT ISZERO ISZERO PUSH2 0x593 JUMPI INVALID JUMPDEST PUSH1 0x2 MUL ADD SWAP2 POP PUSH1 0x0 SWAP1 POP JUMPDEST DUP4 DUP2 LT ISZERO PUSH2 0x622 JUMPI DUP2 PUSH1 0x1 ADD PUSH1 0x0 DUP1 CALLER PUSH20 0xFFFFFFFFFFFFFFFFFFFFFFFFFFFFFFFFFFFFFFFF AND PUSH20 0xFFFFFFFFFFFFFFFFFFFFFFFFFFFFFFFFFFFFFFFF AND DUP2 MSTORE PUSH1 0x20 ADD SWAP1 DUP2 MSTORE PUSH1 0x20 ADD PUSH1 0x0 KECCAK256 PUSH1 0x1 ADD SLOAD SWAP1 DUP1 PUSH1 0x1 DUP2 SLOAD ADD DUP1 DUP3 SSTORE DUP1 SWAP2 POP POP SWAP1 PUSH1 0x1 DUP3 SUB SWAP1 PUSH1 0x0 MSTORE PUSH1 0x20 PUSH1 0x0 KECCAK256 ADD PUSH1 0x0 SWAP1 SWAP2 SWAP3 SWAP1 SWAP2 SWAP1 SWAP2 POP SSTORE POP DUP1 DUP1 PUSH1 0x1 ADD SWAP2 POP POP PUSH2 0x59E JUMP JUMPDEST POP POP POP POP POP JUMP JUMPDEST PUSH1 0x0 DUP1 PUSH1 0x0 PUSH1 0x1 DUP5 PUSH1 0x4 DUP2 LT ISZERO ISZERO PUSH2 0x63D JUMPI INVALID JUMPDEST PUSH1 0x3 MUL ADD PUSH1 0x0 ADD SLOAD PUSH1 0x1 DUP6 PUSH1 0x4 DUP2 LT ISZERO ISZERO PUSH2 0x654 JUMPI INVALID JUMPDEST PUSH1 0x3 MUL ADD PUSH1 0x1 ADD SLOAD PUSH1 0x1 DUP7 PUSH1 0x4 DUP2 LT ISZERO ISZERO PUSH2 0x66B JUMPI INVALID JUMPDEST PUSH1 0x3 MUL ADD PUSH1 0x2 ADD PUSH1 0x0 SWAP1 SLOAD SWAP1 PUSH2 0x100 EXP SWAP1 DIV PUSH20 0xFFFFFFFFFFFFFFFFFFFFFFFFFFFFFFFFFFFFFFFF AND SWAP3 POP SWAP3 POP SWAP3 POP SWAP2 SWAP4 SWAP1 SWAP3 POP JUMP JUMPDEST PUSH1 0x0 DUP1 PUSH1 0x0 DUP1 PUSH1 0x16 PUSH1 0x0 SWAP1 SLOAD SWAP1 PUSH2 0x100 EXP SWAP1 DIV PUSH20 0xFFFFFFFFFFFFFFFFFFFFFFFFFFFFFFFFFFFFFFFF AND PUSH20 0xFFFFFFFFFFFFFFFFFFFFFFFFFFFFFFFFFFFFFFFF AND CALLER PUSH20 0xFFFFFFFFFFFFFFFFFFFFFFFFFFFFFFFFFFFFFFFF AND EQ ISZERO ISZERO PUSH2 0x702 JUMPI PUSH1 0x0 DUP1 REVERT JUMPDEST PUSH1 0x0 SWAP4 POP JUMPDEST PUSH1 0x3 DUP5 LT ISZERO PUSH2 0x80E JUMPI PUSH1 0xD DUP5 PUSH1 0x3 DUP2 LT ISZERO ISZERO PUSH2 0x71F JUMPI INVALID JUMPDEST PUSH1 0x2 MUL ADD SWAP3 POP PUSH1 0x0 DUP4 PUSH1 0x1 ADD DUP1 SLOAD SWAP1 POP EQ ISZERO ISZERO PUSH2 0x801 JUMPI DUP3 PUSH1 0x1 ADD DUP1 SLOAD SWAP1 POP DUP4 PUSH1 0x1 ADD DUP1 SLOAD SWAP1 POP NUMBER DUP2 ISZERO ISZERO PUSH2 0x750 JUMPI INVALID JUMPDEST DIV DUP2 ISZERO ISZERO PUSH2 0x75A JUMPI INVALID JUMPDEST MOD SWAP2 POP DUP3 PUSH1 0x1 ADD DUP3 DUP2 SLOAD DUP2 LT ISZERO ISZERO PUSH2 0x76E JUMPI INVALID JUMPDEST SWAP1 PUSH1 0x0 MSTORE PUSH1 0x20 PUSH1 0x0 KECCAK256 ADD SLOAD SWAP1 POP PUSH1 0x1 DUP2 PUSH1 0x4 DUP2 LT ISZERO ISZERO PUSH2 0x78A JUMPI INVALID JUMPDEST PUSH1 0x3 MUL ADD PUSH1 0x2 ADD PUSH1 0x0 SWAP1 SLOAD SWAP1 PUSH2 0x100 EXP SWAP1 DIV PUSH20 0xFFFFFFFFFFFFFFFFFFFFFFFFFFFFFFFFFFFFFFFF AND PUSH1 0x13 DUP6 PUSH1 0x3 DUP2 LT ISZERO ISZERO PUSH2 0x7C1 JUMPI INVALID JUMPDEST ADD PUSH1 0x0 PUSH2 0x100 EXP DUP2 SLOAD DUP2 PUSH20 0xFFFFFFFFFFFFFFFFFFFFFFFFFFFFFFFFFFFFFFFF MUL NOT AND SWAP1 DUP4 PUSH20 0xFFFFFFFFFFFFFFFFFFFFFFFFFFFFFFFFFFFFFFFF AND MUL OR SWAP1 SSTORE POP JUMPDEST DUP4 DUP1 PUSH1 0x1 ADD SWAP5 POP POP PUSH2 0x707 JUMP JUMPDEST POP POP POP POP JUMP JUMPDEST PUSH1 0x13 DUP2 PUSH1 0x3 DUP2 LT ISZERO ISZERO PUSH2 0x823 JUMPI INVALID JUMPDEST ADD PUSH1 0x0 SWAP2 POP SLOAD SWAP1 PUSH2 0x100 EXP SWAP1 DIV PUSH20 0xFFFFFFFFFFFFFFFFFFFFFFFFFFFFFFFFFFFFFFFF AND DUP2 JUMP JUMPDEST PUSH1 0xD DUP2 PUSH1 0x3 DUP2 LT ISZERO ISZERO PUSH2 0x858 JUMPI INVALID JUMPDEST PUSH1 0x2 MUL ADD PUSH1 0x0 SWAP2 POP SWAP1 POP DUP1 PUSH1 0x0 ADD SLOAD SWAP1 POP DUP2 JUMP STOP LOG1 PUSH6 0x627A7A723058 KECCAK256 0x23 BALANCE 0xac 0x24 0x2a SWAP6 REVERT CALLER DUP14 DUP8 DIV 0xd5 SWAP10 DUP7 SUB GASPRICE PUSH2 0x3710 0x4f 0x5f PUSH30 0xAD7C3551A537C81089B0029000000000000000000000000000000000000 "
				},
				"gasEstimates": {
					"creation": {
						"codeDepositCost": "440000",
						"executionCost": "infinite",
						"totalCost": "infinite"
					},
					"external": {
						"beneficiary()": "464",
						"bid(uint256,uint256)": "infinite",
						"getPersonDetails(uint256)": "1192",
						"items(uint256)": "652",
						"register()": "142883",
						"revealWinners()": "infinite",
						"winners(uint256)": "645"
					}
				},
				"methodIdentifiers": {
					"beneficiary()": "38af3eed",
					"bid(uint256,uint256)": "598647f8",
					"getPersonDetails(uint256)": "60981705",
					"items(uint256)": "bfb231d2",
					"register()": "1aa3a008",
					"revealWinners()": "952587d6",
					"winners(uint256)": "a2fb1175"
				}
			},
			"userdoc": {
				"methods": {}
			}
		}
	}
}