{
	"contracts/Auction.sol": {
		"Auction": {
			"abi": [
				{
					"constant": false,
					"inputs": [],
					"name": "register",
					"outputs": [],
					"payable": true,
					"stateMutability": "payable",
					"type": "function"
				},
				{
					"constant": true,
					"inputs": [],
					"name": "beneficiary",
					"outputs": [
						{
							"name": "",
							"type": "address"
						}
					],
					"payable": false,
					"stateMutability": "view",
					"type": "function"
				},
				{
					"constant": false,
					"inputs": [
						{
							"name": "_itemId",
							"type": "uint256"
						},
						{
							"name": "_count",
							"type": "uint256"
						}
					],
					"name": "bid",
					"outputs": [],
					"payable": true,
					"stateMutability": "payable",
					"type": "function"
				},
				{
					"constant": true,
					"inputs": [
						{
							"name": "id",
							"type": "uint256"
						}
					],
					"name": "getPersonDetails",
					"outputs": [
						{
							"name": "",
							"type": "uint256"
						},
						{
							"name": "",
							"type": "uint256"
						},
						{
							"name": "",
							"type": "address"
						}
					],
					"payable": false,
					"stateMutability": "view",
					"type": "function"
				},
				{
					"constant": false,
					"inputs": [],
					"name": "revealWinners",
					"outputs": [],
					"payable": false,
					"stateMutability": "nonpayable",
					"type": "function"
				},
				{
					"constant": true,
					"inputs": [
						{
							"name": "",
							"type": "uint256"
						}
					],
					"name": "winners",
					"outputs": [
						{
							"name": "",
							"type": "address"
						}
					],
					"payable": false,
					"stateMutability": "view",
					"type": "function"
				},
				{
					"constant": true,
					"inputs": [
						{
							"name": "",
							"type": "uint256"
						}
					],
					"name": "items",
					"outputs": [
						{
							"name": "itemId",
							"type": "uint256"
						}
					],
					"payable": false,
					"stateMutability": "view",
					"type": "function"
				},
				{
					"inputs": [
						{
							"name": "",
							"type": "address"
						}
					],
					"payable": false,
					"stateMutability": "nonpayable",
					"type": "constructor"
				}
			],
			"devdoc": {
				"methods": {}
			},
			"evm": {
				"assembly": "    /* \"contracts/Auction.sol\":25:5767  contract Auction {... */\n  mstore(0x40, 0x80)\n    /* \"contracts/Auction.sol\":819:820  0 */\n  0x0\n    /* \"contracts/Auction.sol\":802:820  uint bidderCount=0 */\n  0x17\n  sstore\n    /* \"contracts/Auction.sol\":932:1662  constructor (Auction) public {    //constructor... */\n  callvalue\n    /* \"--CODEGEN--\":8:17   */\n  dup1\n    /* \"--CODEGEN--\":5:7   */\n  iszero\n  tag_1\n  jumpi\n    /* \"--CODEGEN--\":30:31   */\n  0x0\n    /* \"--CODEGEN--\":27:28   */\n  dup1\n    /* \"--CODEGEN--\":20:32   */\n  revert\n    /* \"--CODEGEN--\":5:7   */\ntag_1:\n    /* \"contracts/Auction.sol\":932:1662  constructor (Auction) public {    //constructor... */\n  pop\n  mload(0x40)\n  0x20\n  dup1\n  bytecodeSize\n  dup4\n  codecopy\n  dup2\n  add\n  dup1\n  0x40\n  mstore\n  dup2\n  add\n  swap1\n  dup1\n  dup1\n  mload\n  swap1\n  0x20\n  add\n  swap1\n  swap3\n  swap2\n  swap1\n  pop\n  pop\n  pop\n    /* \"contracts/Auction.sol\":1288:1312  uint[] memory emptyArray */\n  0x60\n    /* \"contracts/Auction.sol\":1243:1253  msg.sender */\n  caller\n    /* \"contracts/Auction.sol\":1229:1240  beneficiary */\n  0x16\n  0x0\n    /* \"contracts/Auction.sol\":1229:1253  beneficiary = msg.sender */\n  0x100\n  exp\n  dup2\n  sload\n  dup2\n  0xffffffffffffffffffffffffffffffffffffffff\n  mul\n  not\n  and\n  swap1\n  dup4\n  0xffffffffffffffffffffffffffffffffffffffff\n  and\n  mul\n  or\n  swap1\n  sstore\n  pop\n    /* \"contracts/Auction.sol\":1333:1371  Item({itemId:0,itemTokens:emptyArray}) */\n  0x40\n  dup1\n  mload\n  swap1\n  dup2\n  add\n  0x40\n  mstore\n  dup1\n    /* \"contracts/Auction.sol\":1346:1347  0 */\n  0x0\n    /* \"contracts/Auction.sol\":1333:1371  Item({itemId:0,itemTokens:emptyArray}) */\n  dup2\n  mstore\n  0x20\n  add\n    /* \"contracts/Auction.sol\":1359:1369  emptyArray */\n  dup3\n    /* \"contracts/Auction.sol\":1333:1371  Item({itemId:0,itemTokens:emptyArray}) */\n  dup2\n  mstore\n  pop\n    /* \"contracts/Auction.sol\":1322:1327  items */\n  0xd\n    /* \"contracts/Auction.sol\":1328:1329  0 */\n  0x0\n    /* \"contracts/Auction.sol\":1322:1330  items[0] */\n  0x3\n  dup2\n  lt\n  iszero\n  iszero\n  tag_4\n  jumpi\n  invalid\ntag_4:\n  0x2\n  mul\n  add\n    /* \"contracts/Auction.sol\":1322:1371  items[0] = Item({itemId:0,itemTokens:emptyArray}) */\n  0x0\n  dup3\n  add\n  mload\n  dup2\n  0x0\n  add\n  sstore\n  0x20\n  dup3\n  add\n  mload\n  dup2\n  0x1\n  add\n  swap1\n  dup1\n  mload\n  swap1\n  0x20\n  add\n  swap1\n  tag_6\n  swap3\n  swap2\n  swap1\n  jump\t// in(tag_7)\ntag_6:\n  pop\n  swap1\n  pop\n  pop\n    /* \"contracts/Auction.sol\":1529:1567  Item({itemId:1,itemTokens:emptyArray}) */\n  0x40\n  dup1\n  mload\n  swap1\n  dup2\n  add\n  0x40\n  mstore\n  dup1\n    /* \"contracts/Auction.sol\":1542:1543  1 */\n  0x1\n    /* \"contracts/Auction.sol\":1529:1567  Item({itemId:1,itemTokens:emptyArray}) */\n  dup2\n  mstore\n  0x20\n  add\n    /* \"contracts/Auction.sol\":1555:1565  emptyArray */\n  dup3\n    /* \"contracts/Auction.sol\":1529:1567  Item({itemId:1,itemTokens:emptyArray}) */\n  dup2\n  mstore\n  pop\n    /* \"contracts/Auction.sol\":1518:1523  items */\n  0xd\n    /* \"contracts/Auction.sol\":1524:1525  1 */\n  0x1\n    /* \"contracts/Auction.sol\":1518:1526  items[1] */\n  0x3\n  dup2\n  lt\n  iszero\n  iszero\n  tag_8\n  jumpi\n  invalid\ntag_8:\n  0x2\n  mul\n  add\n    /* \"contracts/Auction.sol\":1518:1567  items[1] = Item({itemId:1,itemTokens:emptyArray}) */\n  0x0\n  dup3\n  add\n  mload\n  dup2\n  0x0\n  add\n  sstore\n  0x20\n  dup3\n  add\n  mload\n  dup2\n  0x1\n  add\n  swap1\n  dup1\n  mload\n  swap1\n  0x20\n  add\n  swap1\n  tag_10\n  swap3\n  swap2\n  swap1\n  jump\t// in(tag_7)\ntag_10:\n  pop\n  swap1\n  pop\n  pop\n    /* \"contracts/Auction.sol\":1587:1625  Item({itemId:2,itemTokens:emptyArray}) */\n  0x40\n  dup1\n  mload\n  swap1\n  dup2\n  add\n  0x40\n  mstore\n  dup1\n    /* \"contracts/Auction.sol\":1600:1601  2 */\n  0x2\n    /* \"contracts/Auction.sol\":1587:1625  Item({itemId:2,itemTokens:emptyArray}) */\n  dup2\n  mstore\n  0x20\n  add\n    /* \"contracts/Auction.sol\":1613:1623  emptyArray */\n  dup3\n    /* \"contracts/Auction.sol\":1587:1625  Item({itemId:2,itemTokens:emptyArray}) */\n  dup2\n  mstore\n  pop\n    /* \"contracts/Auction.sol\":1577:1582  items */\n  0xd\n    /* \"contracts/Auction.sol\":1583:1584  2 */\n  0x2\n    /* \"contracts/Auction.sol\":1577:1585  items[2] */\n  0x3\n  dup2\n  lt\n  iszero\n  iszero\n  tag_11\n  jumpi\n  invalid\ntag_11:\n  0x2\n  mul\n  add\n    /* \"contracts/Auction.sol\":1577:1625  items[2] =Item({itemId:2,itemTokens:emptyArray}) */\n  0x0\n  dup3\n  add\n  mload\n  dup2\n  0x0\n  add\n  sstore\n  0x20\n  dup3\n  add\n  mload\n  dup2\n  0x1\n  add\n  swap1\n  dup1\n  mload\n  swap1\n  0x20\n  add\n  swap1\n  tag_13\n  swap3\n  swap2\n  swap1\n  jump\t// in(tag_7)\ntag_13:\n  pop\n  swap1\n  pop\n  pop\n    /* \"contracts/Auction.sol\":932:1662  constructor (Auction) public {    //constructor... */\n  pop\n  pop\n    /* \"contracts/Auction.sol\":25:5767  contract Auction {... */\n  jump(tag_14)\ntag_7:\n  dup3\n  dup1\n  sload\n  dup3\n  dup3\n  sstore\n  swap1\n  0x0\n  mstore\n  keccak256(0x0, 0x20)\n  swap1\n  dup2\n  add\n  swap3\n  dup3\n  iszero\n  tag_15\n  jumpi\n  swap2\n  0x20\n  mul\n  dup3\n  add\ntag_16:\n  dup3\n  dup2\n  gt\n  iszero\n  tag_17\n  jumpi\n  dup3\n  mload\n  dup3\n  sstore\n  swap2\n  0x20\n  add\n  swap2\n  swap1\n  0x1\n  add\n  swap1\n  jump(tag_16)\ntag_17:\ntag_15:\n  pop\n  swap1\n  pop\n  tag_18\n  swap2\n  swap1\n  jump\t// in(tag_19)\ntag_18:\n  pop\n  swap1\n  jump\t// out\ntag_19:\n  tag_20\n  swap2\n  swap1\ntag_21:\n  dup1\n  dup3\n  gt\n  iszero\n  tag_22\n  jumpi\n  0x0\n  dup2\n  0x0\n  swap1\n  sstore\n  pop\n  0x1\n  add\n  jump(tag_21)\ntag_22:\n  pop\n  swap1\n  jump\ntag_20:\n  swap1\n  jump\t// out\ntag_14:\n  dataSize(sub_0)\n  dup1\n  dataOffset(sub_0)\n  0x0\n  codecopy\n  0x0\n  return\nstop\n\nsub_0: assembly {\n        /* \"contracts/Auction.sol\":25:5767  contract Auction {... */\n      mstore(0x40, 0x80)\n      jumpi(tag_1, lt(calldatasize, 0x4))\n      calldataload(0x0)\n      0x100000000000000000000000000000000000000000000000000000000\n      swap1\n      div\n      0xffffffff\n      and\n      dup1\n      0x1aa3a008\n      eq\n      tag_2\n      jumpi\n      dup1\n      0x38af3eed\n      eq\n      tag_3\n      jumpi\n      dup1\n      0x598647f8\n      eq\n      tag_4\n      jumpi\n      dup1\n      0x60981705\n      eq\n      tag_5\n      jumpi\n      dup1\n      0x952587d6\n      eq\n      tag_6\n      jumpi\n      dup1\n      0xa2fb1175\n      eq\n      tag_7\n      jumpi\n      dup1\n      0xbfb231d2\n      eq\n      tag_8\n      jumpi\n    tag_1:\n      0x0\n      dup1\n      revert\n        /* \"contracts/Auction.sol\":1673:2255  function register() public payable{... */\n    tag_2:\n      tag_9\n      jump(tag_10)\n    tag_9:\n      stop\n        /* \"contracts/Auction.sol\":736:762  address public beneficiary */\n    tag_3:\n      callvalue\n        /* \"--CODEGEN--\":8:17   */\n      dup1\n        /* \"--CODEGEN--\":5:7   */\n      iszero\n      tag_11\n      jumpi\n        /* \"--CODEGEN--\":30:31   */\n      0x0\n        /* \"--CODEGEN--\":27:28   */\n      dup1\n        /* \"--CODEGEN--\":20:32   */\n      revert\n        /* \"--CODEGEN--\":5:7   */\n    tag_11:\n        /* \"contracts/Auction.sol\":736:762  address public beneficiary */\n      pop\n      tag_12\n      jump(tag_13)\n    tag_12:\n      mload(0x40)\n      dup1\n      dup3\n      0xffffffffffffffffffffffffffffffffffffffff\n      and\n      0xffffffffffffffffffffffffffffffffffffffff\n      and\n      dup2\n      mstore\n      0x20\n      add\n      swap2\n      pop\n      pop\n      mload(0x40)\n      dup1\n      swap2\n      sub\n      swap1\n      return\n        /* \"contracts/Auction.sol\":2265:4033  function bid(uint _itemId, uint _count) public payable{... */\n    tag_4:\n      tag_14\n      0x4\n      dup1\n      calldatasize\n      sub\n      dup2\n      add\n      swap1\n      dup1\n      dup1\n      calldataload\n      swap1\n      0x20\n      add\n      swap1\n      swap3\n      swap2\n      swap1\n      dup1\n      calldataload\n      swap1\n      0x20\n      add\n      swap1\n      swap3\n      swap2\n      swap1\n      pop\n      pop\n      pop\n      jump(tag_15)\n    tag_14:\n      stop\n        /* \"contracts/Auction.sol\":5596:5764  function getPersonDetails(uint id) public constant returns(uint,uint,address){... */\n    tag_5:\n      callvalue\n        /* \"--CODEGEN--\":8:17   */\n      dup1\n        /* \"--CODEGEN--\":5:7   */\n      iszero\n      tag_16\n      jumpi\n        /* \"--CODEGEN--\":30:31   */\n      0x0\n        /* \"--CODEGEN--\":27:28   */\n      dup1\n        /* \"--CODEGEN--\":20:32   */\n      revert\n        /* \"--CODEGEN--\":5:7   */\n    tag_16:\n        /* \"contracts/Auction.sol\":5596:5764  function getPersonDetails(uint id) public constant returns(uint,uint,address){... */\n      pop\n      tag_17\n      0x4\n      dup1\n      calldatasize\n      sub\n      dup2\n      add\n      swap1\n      dup1\n      dup1\n      calldataload\n      swap1\n      0x20\n      add\n      swap1\n      swap3\n      swap2\n      swap1\n      pop\n      pop\n      pop\n      jump(tag_18)\n    tag_17:\n      mload(0x40)\n      dup1\n      dup5\n      dup2\n      mstore\n      0x20\n      add\n      dup4\n      dup2\n      mstore\n      0x20\n      add\n      dup3\n      0xffffffffffffffffffffffffffffffffffffffff\n      and\n      0xffffffffffffffffffffffffffffffffffffffff\n      and\n      dup2\n      mstore\n      0x20\n      add\n      swap4\n      pop\n      pop\n      pop\n      pop\n      mload(0x40)\n      dup1\n      swap2\n      sub\n      swap1\n      return\n        /* \"contracts/Auction.sol\":4425:5494  function revealWinners() public onlyOwner{... */\n    tag_6:\n      callvalue\n        /* \"--CODEGEN--\":8:17   */\n      dup1\n        /* \"--CODEGEN--\":5:7   */\n      iszero\n      tag_19\n      jumpi\n        /* \"--CODEGEN--\":30:31   */\n      0x0\n        /* \"--CODEGEN--\":27:28   */\n      dup1\n        /* \"--CODEGEN--\":20:32   */\n      revert\n        /* \"--CODEGEN--\":5:7   */\n    tag_19:\n        /* \"contracts/Auction.sol\":4425:5494  function revealWinners() public onlyOwner{... */\n      pop\n      tag_20\n      jump(tag_21)\n    tag_20:\n      stop\n        /* \"contracts/Auction.sol\":675:700  address[3] public winners */\n    tag_7:\n      callvalue\n        /* \"--CODEGEN--\":8:17   */\n      dup1\n        /* \"--CODEGEN--\":5:7   */\n      iszero\n      tag_22\n      jumpi\n        /* \"--CODEGEN--\":30:31   */\n      0x0\n        /* \"--CODEGEN--\":27:28   */\n      dup1\n        /* \"--CODEGEN--\":20:32   */\n      revert\n        /* \"--CODEGEN--\":5:7   */\n    tag_22:\n        /* \"contracts/Auction.sol\":675:700  address[3] public winners */\n      pop\n      tag_23\n      0x4\n      dup1\n      calldatasize\n      sub\n      dup2\n      add\n      swap1\n      dup1\n      dup1\n      calldataload\n      swap1\n      0x20\n      add\n      swap1\n      swap3\n      swap2\n      swap1\n      pop\n      pop\n      pop\n      jump(tag_24)\n    tag_23:\n      mload(0x40)\n      dup1\n      dup3\n      0xffffffffffffffffffffffffffffffffffffffff\n      and\n      0xffffffffffffffffffffffffffffffffffffffff\n      and\n      dup2\n      mstore\n      0x20\n      add\n      swap2\n      pop\n      pop\n      mload(0x40)\n      dup1\n      swap2\n      sub\n      swap1\n      return\n        /* \"contracts/Auction.sol\":615:636  Item [3] public items */\n    tag_8:\n      callvalue\n        /* \"--CODEGEN--\":8:17   */\n      dup1\n        /* \"--CODEGEN--\":5:7   */\n      iszero\n      tag_25\n      jumpi\n        /* \"--CODEGEN--\":30:31   */\n      0x0\n        /* \"--CODEGEN--\":27:28   */\n      dup1\n        /* \"--CODEGEN--\":20:32   */\n      revert\n        /* \"--CODEGEN--\":5:7   */\n    tag_25:\n        /* \"contracts/Auction.sol\":615:636  Item [3] public items */\n      pop\n      tag_26\n      0x4\n      dup1\n      calldatasize\n      sub\n      dup2\n      add\n      swap1\n      dup1\n      dup1\n      calldataload\n      swap1\n      0x20\n      add\n      swap1\n      swap3\n      swap2\n      swap1\n      pop\n      pop\n      pop\n      jump(tag_27)\n    tag_26:\n      mload(0x40)\n      dup1\n      dup3\n      dup2\n      mstore\n      0x20\n      add\n      swap2\n      pop\n      pop\n      mload(0x40)\n      dup1\n      swap2\n      sub\n      swap1\n      return\n        /* \"contracts/Auction.sol\":1673:2255  function register() public payable{... */\n    tag_10:\n        /* \"contracts/Auction.sol\":1767:1778  bidderCount */\n      sload(0x17)\n        /* \"contracts/Auction.sol\":1735:1742  bidders */\n      0x1\n        /* \"contracts/Auction.sol\":1743:1754  bidderCount */\n      sload(0x17)\n        /* \"contracts/Auction.sol\":1735:1755  bidders[bidderCount] */\n      0x4\n      dup2\n      lt\n      iszero\n      iszero\n      tag_29\n      jumpi\n      invalid\n    tag_29:\n      0x3\n      mul\n      add\n        /* \"contracts/Auction.sol\":1735:1764  bidders[bidderCount].personId */\n      0x1\n      add\n        /* \"contracts/Auction.sol\":1735:1778  bidders[bidderCount].personId = bidderCount */\n      dup2\n      swap1\n      sstore\n      pop\n        /* \"contracts/Auction.sol\":2053:2063  msg.sender */\n      caller\n        /* \"contracts/Auction.sol\":2025:2032  bidders */\n      0x1\n        /* \"contracts/Auction.sol\":2033:2044  bidderCount */\n      sload(0x17)\n        /* \"contracts/Auction.sol\":2025:2045  bidders[bidderCount] */\n      0x4\n      dup2\n      lt\n      iszero\n      iszero\n      tag_31\n      jumpi\n      invalid\n    tag_31:\n      0x3\n      mul\n      add\n        /* \"contracts/Auction.sol\":2025:2050  bidders[bidderCount].addr */\n      0x2\n      add\n      0x0\n        /* \"contracts/Auction.sol\":2025:2063  bidders[bidderCount].addr = msg.sender */\n      0x100\n      exp\n      dup2\n      sload\n      dup2\n      0xffffffffffffffffffffffffffffffffffffffff\n      mul\n      not\n      and\n      swap1\n      dup4\n      0xffffffffffffffffffffffffffffffffffffffff\n      and\n      mul\n      or\n      swap1\n      sstore\n      pop\n        /* \"contracts/Auction.sol\":2152:2153  5 */\n      0x5\n        /* \"contracts/Auction.sol\":2113:2120  bidders */\n      0x1\n        /* \"contracts/Auction.sol\":2121:2132  bidderCount */\n      sload(0x17)\n        /* \"contracts/Auction.sol\":2113:2133  bidders[bidderCount] */\n      0x4\n      dup2\n      lt\n      iszero\n      iszero\n      tag_33\n      jumpi\n      invalid\n    tag_33:\n      0x3\n      mul\n      add\n        /* \"contracts/Auction.sol\":2113:2149  bidders[bidderCount].remainingTokens */\n      0x0\n      add\n        /* \"contracts/Auction.sol\":2113:2153  bidders[bidderCount].remainingTokens = 5 */\n      dup2\n      swap1\n      sstore\n      pop\n        /* \"contracts/Auction.sol\":2205:2212  bidders */\n      0x1\n        /* \"contracts/Auction.sol\":2213:2224  bidderCount */\n      sload(0x17)\n        /* \"contracts/Auction.sol\":2205:2225  bidders[bidderCount] */\n      0x4\n      dup2\n      lt\n      iszero\n      iszero\n      tag_35\n      jumpi\n      invalid\n    tag_35:\n      0x3\n      mul\n      add\n        /* \"contracts/Auction.sol\":2180:2192  tokenDetails */\n      0x0\n        /* \"contracts/Auction.sol\":2180:2204  tokenDetails[msg.sender] */\n      dup1\n        /* \"contracts/Auction.sol\":2193:2203  msg.sender */\n      caller\n        /* \"contracts/Auction.sol\":2180:2204  tokenDetails[msg.sender] */\n      0xffffffffffffffffffffffffffffffffffffffff\n      and\n      0xffffffffffffffffffffffffffffffffffffffff\n      and\n      dup2\n      mstore\n      0x20\n      add\n      swap1\n      dup2\n      mstore\n      0x20\n      add\n      0x0\n      keccak256\n        /* \"contracts/Auction.sol\":2180:2225  tokenDetails[msg.sender]=bidders[bidderCount] */\n      0x0\n      dup3\n      add\n      sload\n      dup2\n      0x0\n      add\n      sstore\n      0x1\n      dup3\n      add\n      sload\n      dup2\n      0x1\n      add\n      sstore\n      0x2\n      dup3\n      add\n      0x0\n      swap1\n      sload\n      swap1\n      0x100\n      exp\n      swap1\n      div\n      0xffffffffffffffffffffffffffffffffffffffff\n      and\n      dup2\n      0x2\n      add\n      exp(0x100, 0x0)\n      dup2\n      sload\n      dup2\n      0xffffffffffffffffffffffffffffffffffffffff\n      mul\n      not\n      and\n      swap1\n      dup4\n      0xffffffffffffffffffffffffffffffffffffffff\n      and\n      mul\n      or\n      swap1\n      sstore\n      pop\n      swap1\n      pop\n      pop\n        /* \"contracts/Auction.sol\":2235:2246  bidderCount */\n      0x17\n      0x0\n        /* \"contracts/Auction.sol\":2235:2248  bidderCount++ */\n      dup2\n      sload\n      dup1\n      swap3\n      swap2\n      swap1\n      0x1\n      add\n      swap2\n      swap1\n      pop\n      sstore\n      pop\n        /* \"contracts/Auction.sol\":1673:2255  function register() public payable{... */\n      jump\t// out\n        /* \"contracts/Auction.sol\":736:762  address public beneficiary */\n    tag_13:\n      0x16\n      0x0\n      swap1\n      sload\n      swap1\n      0x100\n      exp\n      swap1\n      div\n      0xffffffffffffffffffffffffffffffffffffffff\n      and\n      dup2\n      jump\t// out\n        /* \"contracts/Auction.sol\":2265:4033  function bid(uint _itemId, uint _count) public payable{... */\n    tag_15:\n        /* \"contracts/Auction.sol\":3561:3573  uint balance */\n      0x0\n        /* \"contracts/Auction.sol\":3865:3885  Item storage bidItem */\n      dup1\n        /* \"contracts/Auction.sol\":3916:3922  uint i */\n      0x0\n        /* \"contracts/Auction.sol\":3128:3134  _count */\n      dup4\n        /* \"contracts/Auction.sol\":3085:3097  tokenDetails */\n      0x0\n        /* \"contracts/Auction.sol\":3085:3109  tokenDetails[msg.sender] */\n      dup1\n        /* \"contracts/Auction.sol\":3098:3108  msg.sender */\n      caller\n        /* \"contracts/Auction.sol\":3085:3109  tokenDetails[msg.sender] */\n      0xffffffffffffffffffffffffffffffffffffffff\n      and\n      0xffffffffffffffffffffffffffffffffffffffff\n      and\n      dup2\n      mstore\n      0x20\n      add\n      swap1\n      dup2\n      mstore\n      0x20\n      add\n      0x0\n      keccak256\n        /* \"contracts/Auction.sol\":3085:3125  tokenDetails[msg.sender].remainingTokens */\n      0x0\n      add\n      sload\n        /* \"contracts/Auction.sol\":3085:3134  tokenDetails[msg.sender].remainingTokens < _count */\n      lt\n        /* \"contracts/Auction.sol\":3085:3196  tokenDetails[msg.sender].remainingTokens < _count ... */\n      dup1\n      tag_38\n      jumpi\n      pop\n        /* \"contracts/Auction.sol\":3195:3196  0 */\n      0x0\n        /* \"contracts/Auction.sol\":3151:3163  tokenDetails */\n      dup1\n        /* \"contracts/Auction.sol\":3151:3175  tokenDetails[msg.sender] */\n      0x0\n        /* \"contracts/Auction.sol\":3164:3174  msg.sender */\n      caller\n        /* \"contracts/Auction.sol\":3151:3175  tokenDetails[msg.sender] */\n      0xffffffffffffffffffffffffffffffffffffffff\n      and\n      0xffffffffffffffffffffffffffffffffffffffff\n      and\n      dup2\n      mstore\n      0x20\n      add\n      swap1\n      dup2\n      mstore\n      0x20\n      add\n      0x0\n      keccak256\n        /* \"contracts/Auction.sol\":3151:3191  tokenDetails[msg.sender].remainingTokens */\n      0x0\n      add\n      sload\n        /* \"contracts/Auction.sol\":3151:3196  tokenDetails[msg.sender].remainingTokens == 0 */\n      eq\n        /* \"contracts/Auction.sol\":3085:3196  tokenDetails[msg.sender].remainingTokens < _count ... */\n    tag_38:\n        /* \"contracts/Auction.sol\":3085:3223  tokenDetails[msg.sender].remainingTokens < _count ... */\n      dup1\n      tag_39\n      jumpi\n      pop\n        /* \"contracts/Auction.sol\":3222:3223  2 */\n      0x2\n        /* \"contracts/Auction.sol\":3212:3219  _itemId */\n      dup6\n        /* \"contracts/Auction.sol\":3212:3223  _itemId > 2 */\n      gt\n        /* \"contracts/Auction.sol\":3085:3223  tokenDetails[msg.sender].remainingTokens < _count ... */\n    tag_39:\n        /* \"contracts/Auction.sol\":3081:3233  if (tokenDetails[msg.sender].remainingTokens < _count ... */\n      iszero\n      tag_40\n      jumpi\n        /* \"contracts/Auction.sol\":3225:3233  revert() */\n      0x0\n      dup1\n      revert\n        /* \"contracts/Auction.sol\":3081:3233  if (tokenDetails[msg.sender].remainingTokens < _count ... */\n    tag_40:\n        /* \"contracts/Auction.sol\":3619:3625  _count */\n      dup4\n        /* \"contracts/Auction.sol\":3576:3588  tokenDetails */\n      0x0\n        /* \"contracts/Auction.sol\":3576:3600  tokenDetails[msg.sender] */\n      dup1\n        /* \"contracts/Auction.sol\":3589:3599  msg.sender */\n      caller\n        /* \"contracts/Auction.sol\":3576:3600  tokenDetails[msg.sender] */\n      0xffffffffffffffffffffffffffffffffffffffff\n      and\n      0xffffffffffffffffffffffffffffffffffffffff\n      and\n      dup2\n      mstore\n      0x20\n      add\n      swap1\n      dup2\n      mstore\n      0x20\n      add\n      0x0\n      keccak256\n        /* \"contracts/Auction.sol\":3576:3616  tokenDetails[msg.sender].remainingTokens */\n      0x0\n      add\n      sload\n        /* \"contracts/Auction.sol\":3576:3625  tokenDetails[msg.sender].remainingTokens - _count */\n      sub\n        /* \"contracts/Auction.sol\":3561:3625  uint balance = tokenDetails[msg.sender].remainingTokens - _count */\n      swap3\n      pop\n        /* \"contracts/Auction.sol\":3718:3725  balance */\n      dup3\n        /* \"contracts/Auction.sol\":3675:3687  tokenDetails */\n      0x0\n        /* \"contracts/Auction.sol\":3675:3699  tokenDetails[msg.sender] */\n      dup1\n        /* \"contracts/Auction.sol\":3688:3698  msg.sender */\n      caller\n        /* \"contracts/Auction.sol\":3675:3699  tokenDetails[msg.sender] */\n      0xffffffffffffffffffffffffffffffffffffffff\n      and\n      0xffffffffffffffffffffffffffffffffffffffff\n      and\n      dup2\n      mstore\n      0x20\n      add\n      swap1\n      dup2\n      mstore\n      0x20\n      add\n      0x0\n      keccak256\n        /* \"contracts/Auction.sol\":3675:3715  tokenDetails[msg.sender].remainingTokens */\n      0x0\n      add\n        /* \"contracts/Auction.sol\":3675:3725  tokenDetails[msg.sender].remainingTokens = balance */\n      dup2\n      swap1\n      sstore\n      pop\n        /* \"contracts/Auction.sol\":3796:3803  balance */\n      dup3\n        /* \"contracts/Auction.sol\":3735:3742  bidders */\n      0x1\n        /* \"contracts/Auction.sol\":3743:3755  tokenDetails */\n      0x0\n        /* \"contracts/Auction.sol\":3743:3767  tokenDetails[msg.sender] */\n      dup1\n        /* \"contracts/Auction.sol\":3756:3766  msg.sender */\n      caller\n        /* \"contracts/Auction.sol\":3743:3767  tokenDetails[msg.sender] */\n      0xffffffffffffffffffffffffffffffffffffffff\n      and\n      0xffffffffffffffffffffffffffffffffffffffff\n      and\n      dup2\n      mstore\n      0x20\n      add\n      swap1\n      dup2\n      mstore\n      0x20\n      add\n      0x0\n      keccak256\n        /* \"contracts/Auction.sol\":3743:3776  tokenDetails[msg.sender].personId */\n      0x1\n      add\n      sload\n        /* \"contracts/Auction.sol\":3735:3777  bidders[tokenDetails[msg.sender].personId] */\n      0x4\n      dup2\n      lt\n      iszero\n      iszero\n      tag_41\n      jumpi\n      invalid\n    tag_41:\n      0x3\n      mul\n      add\n        /* \"contracts/Auction.sol\":3735:3793  bidders[tokenDetails[msg.sender].personId].remainingTokens */\n      0x0\n      add\n        /* \"contracts/Auction.sol\":3735:3803  bidders[tokenDetails[msg.sender].personId].remainingTokens = balance */\n      dup2\n      swap1\n      sstore\n      pop\n        /* \"contracts/Auction.sol\":3888:3893  items */\n      0xd\n        /* \"contracts/Auction.sol\":3894:3901  _itemId */\n      dup6\n        /* \"contracts/Auction.sol\":3888:3902  items[_itemId] */\n      0x3\n      dup2\n      lt\n      iszero\n      iszero\n      tag_43\n      jumpi\n      invalid\n    tag_43:\n      0x2\n      mul\n      add\n        /* \"contracts/Auction.sol\":3865:3902  Item storage bidItem = items[_itemId] */\n      swap2\n      pop\n        /* \"contracts/Auction.sol\":3923:3924  0 */\n      0x0\n        /* \"contracts/Auction.sol\":3916:3924  uint i=0 */\n      swap1\n      pop\n        /* \"contracts/Auction.sol\":3912:4027  for(uint i=0; i<_count;i++) {... */\n    tag_45:\n        /* \"contracts/Auction.sol\":3928:3934  _count */\n      dup4\n        /* \"contracts/Auction.sol\":3926:3927  i */\n      dup2\n        /* \"contracts/Auction.sol\":3926:3934  i<_count */\n      lt\n        /* \"contracts/Auction.sol\":3912:4027  for(uint i=0; i<_count;i++) {... */\n      iszero\n      tag_46\n      jumpi\n        /* \"contracts/Auction.sol\":3954:3961  bidItem */\n      dup2\n        /* \"contracts/Auction.sol\":3954:3972  bidItem.itemTokens */\n      0x1\n      add\n        /* \"contracts/Auction.sol\":3978:3990  tokenDetails */\n      0x0\n        /* \"contracts/Auction.sol\":3978:4002  tokenDetails[msg.sender] */\n      dup1\n        /* \"contracts/Auction.sol\":3991:4001  msg.sender */\n      caller\n        /* \"contracts/Auction.sol\":3978:4002  tokenDetails[msg.sender] */\n      0xffffffffffffffffffffffffffffffffffffffff\n      and\n      0xffffffffffffffffffffffffffffffffffffffff\n      and\n      dup2\n      mstore\n      0x20\n      add\n      swap1\n      dup2\n      mstore\n      0x20\n      add\n      0x0\n      keccak256\n        /* \"contracts/Auction.sol\":3978:4011  tokenDetails[msg.sender].personId */\n      0x1\n      add\n      sload\n        /* \"contracts/Auction.sol\":3954:4012  bidItem.itemTokens.push(tokenDetails[msg.sender].personId) */\n      swap1\n      dup1\n        /* \"--CODEGEN--\":39:40   */\n      0x1\n        /* \"--CODEGEN--\":33:36   */\n      dup2\n        /* \"--CODEGEN--\":27:37   */\n      sload\n        /* \"--CODEGEN--\":23:41   */\n      add\n        /* \"--CODEGEN--\":57:67   */\n      dup1\n        /* \"--CODEGEN--\":52:55   */\n      dup3\n        /* \"--CODEGEN--\":45:68   */\n      sstore\n        /* \"--CODEGEN--\":79:89   */\n      dup1\n        /* \"--CODEGEN--\":72:89   */\n      swap2\n      pop\n        /* \"--CODEGEN--\":0:93   */\n      pop\n        /* \"contracts/Auction.sol\":3954:4012  bidItem.itemTokens.push(tokenDetails[msg.sender].personId) */\n      swap1\n      0x1\n      dup3\n      sub\n      swap1\n      0x0\n      mstore\n      keccak256(0x0, 0x20)\n      add\n      0x0\n      swap1\n      swap2\n      swap3\n      swap1\n      swap2\n      swap1\n      swap2\n      pop\n      sstore\n      pop\n        /* \"contracts/Auction.sol\":3935:3938  i++ */\n      dup1\n      dup1\n      0x1\n      add\n      swap2\n      pop\n      pop\n        /* \"contracts/Auction.sol\":3912:4027  for(uint i=0; i<_count;i++) {... */\n      jump(tag_45)\n    tag_46:\n        /* \"contracts/Auction.sol\":2265:4033  function bid(uint _itemId, uint _count) public payable{... */\n      pop\n      pop\n      pop\n      pop\n      pop\n      jump\t// out\n        /* \"contracts/Auction.sol\":5596:5764  function getPersonDetails(uint id) public constant returns(uint,uint,address){... */\n    tag_18:\n        /* \"contracts/Auction.sol\":5655:5659  uint */\n      0x0\n        /* \"contracts/Auction.sol\":5660:5664  uint */\n      dup1\n        /* \"contracts/Auction.sol\":5665:5672  address */\n      0x0\n        /* \"contracts/Auction.sol\":5691:5698  bidders */\n      0x1\n        /* \"contracts/Auction.sol\":5699:5701  id */\n      dup5\n        /* \"contracts/Auction.sol\":5691:5702  bidders[id] */\n      0x4\n      dup2\n      lt\n      iszero\n      iszero\n      tag_50\n      jumpi\n      invalid\n    tag_50:\n      0x3\n      mul\n      add\n        /* \"contracts/Auction.sol\":5691:5718  bidders[id].remainingTokens */\n      0x0\n      add\n      sload\n        /* \"contracts/Auction.sol\":5719:5726  bidders */\n      0x1\n        /* \"contracts/Auction.sol\":5727:5729  id */\n      dup6\n        /* \"contracts/Auction.sol\":5719:5730  bidders[id] */\n      0x4\n      dup2\n      lt\n      iszero\n      iszero\n      tag_52\n      jumpi\n      invalid\n    tag_52:\n      0x3\n      mul\n      add\n        /* \"contracts/Auction.sol\":5719:5739  bidders[id].personId */\n      0x1\n      add\n      sload\n        /* \"contracts/Auction.sol\":5740:5747  bidders */\n      0x1\n        /* \"contracts/Auction.sol\":5748:5750  id */\n      dup7\n        /* \"contracts/Auction.sol\":5740:5751  bidders[id] */\n      0x4\n      dup2\n      lt\n      iszero\n      iszero\n      tag_54\n      jumpi\n      invalid\n    tag_54:\n      0x3\n      mul\n      add\n        /* \"contracts/Auction.sol\":5740:5756  bidders[id].addr */\n      0x2\n      add\n      0x0\n      swap1\n      sload\n      swap1\n      0x100\n      exp\n      swap1\n      div\n      0xffffffffffffffffffffffffffffffffffffffff\n      and\n        /* \"contracts/Auction.sol\":5683:5757  return (bidders[id].remainingTokens,bidders[id].personId,bidders[id].addr) */\n      swap3\n      pop\n      swap3\n      pop\n      swap3\n      pop\n        /* \"contracts/Auction.sol\":5596:5764  function getPersonDetails(uint id) public constant returns(uint,uint,address){... */\n      swap2\n      swap4\n      swap1\n      swap3\n      pop\n      jump\t// out\n        /* \"contracts/Auction.sol\":4425:5494  function revealWinners() public onlyOwner{... */\n    tag_21:\n        /* \"contracts/Auction.sol\":4657:4664  uint id */\n      0x0\n        /* \"contracts/Auction.sol\":4698:4722  Item storage currentItem */\n      dup1\n        /* \"contracts/Auction.sol\":4849:4865  uint randomIndex */\n      0x0\n        /* \"contracts/Auction.sol\":5003:5016  uint winnerId */\n      dup1\n        /* \"contracts/Auction.sol\":4349:4360  beneficiary */\n      0x16\n      0x0\n      swap1\n      sload\n      swap1\n      0x100\n      exp\n      swap1\n      div\n      0xffffffffffffffffffffffffffffffffffffffff\n      and\n        /* \"contracts/Auction.sol\":4335:4360  msg.sender == beneficiary */\n      0xffffffffffffffffffffffffffffffffffffffff\n      and\n        /* \"contracts/Auction.sol\":4335:4345  msg.sender */\n      caller\n        /* \"contracts/Auction.sol\":4335:4360  msg.sender == beneficiary */\n      0xffffffffffffffffffffffffffffffffffffffff\n      and\n      eq\n        /* \"contracts/Auction.sol\":4326:4361  require (msg.sender == beneficiary) */\n      iszero\n      iszero\n      tag_57\n      jumpi\n      0x0\n      dup1\n      revert\n    tag_57:\n        /* \"contracts/Auction.sol\":4667:4668  0 */\n      0x0\n        /* \"contracts/Auction.sol\":4657:4668  uint id = 0 */\n      swap4\n      pop\n        /* \"contracts/Auction.sol\":4652:5488  for (uint id = 0; id < 3; id++) {... */\n    tag_59:\n        /* \"contracts/Auction.sol\":4675:4676  3 */\n      0x3\n        /* \"contracts/Auction.sol\":4670:4672  id */\n      dup5\n        /* \"contracts/Auction.sol\":4670:4676  id < 3 */\n      lt\n        /* \"contracts/Auction.sol\":4652:5488  for (uint id = 0; id < 3; id++) {... */\n      iszero\n      tag_60\n      jumpi\n        /* \"contracts/Auction.sol\":4723:4728  items */\n      0xd\n        /* \"contracts/Auction.sol\":4729:4731  id */\n      dup5\n        /* \"contracts/Auction.sol\":4723:4732  items[id] */\n      0x3\n      dup2\n      lt\n      iszero\n      iszero\n      tag_62\n      jumpi\n      invalid\n    tag_62:\n      0x2\n      mul\n      add\n        /* \"contracts/Auction.sol\":4698:4732  Item storage currentItem=items[id] */\n      swap3\n      pop\n        /* \"contracts/Auction.sol\":4782:4783  0 */\n      0x0\n        /* \"contracts/Auction.sol\":4749:4760  currentItem */\n      dup4\n        /* \"contracts/Auction.sol\":4749:4771  currentItem.itemTokens */\n      0x1\n      add\n        /* \"contracts/Auction.sol\":4749:4778  currentItem.itemTokens.length */\n      dup1\n      sload\n      swap1\n      pop\n        /* \"contracts/Auction.sol\":4749:4783  currentItem.itemTokens.length != 0 */\n      eq\n      iszero\n        /* \"contracts/Auction.sol\":4746:5478  if(currentItem.itemTokens.length != 0){... */\n      iszero\n      tag_64\n      jumpi\n        /* \"contracts/Auction.sol\":4916:4927  currentItem */\n      dup3\n        /* \"contracts/Auction.sol\":4916:4938  currentItem.itemTokens */\n      0x1\n      add\n        /* \"contracts/Auction.sol\":4916:4945  currentItem.itemTokens.length */\n      dup1\n      sload\n      swap1\n      pop\n        /* \"contracts/Auction.sol\":4884:4895  currentItem */\n      dup4\n        /* \"contracts/Auction.sol\":4884:4906  currentItem.itemTokens */\n      0x1\n      add\n        /* \"contracts/Auction.sol\":4884:4913  currentItem.itemTokens.length */\n      dup1\n      sload\n      swap1\n      pop\n        /* \"contracts/Auction.sol\":4869:4881  block.number */\n      number\n        /* \"contracts/Auction.sol\":4869:4913  block.number / currentItem.itemTokens.length */\n      dup2\n      iszero\n      iszero\n      tag_65\n      jumpi\n      invalid\n    tag_65:\n      div\n        /* \"contracts/Auction.sol\":4868:4945  (block.number / currentItem.itemTokens.length)% currentItem.itemTokens.length */\n      dup2\n      iszero\n      iszero\n      tag_66\n      jumpi\n      invalid\n    tag_66:\n      mod\n        /* \"contracts/Auction.sol\":4849:4945  uint randomIndex = (block.number / currentItem.itemTokens.length)% currentItem.itemTokens.length */\n      swap2\n      pop\n        /* \"contracts/Auction.sol\":5019:5030  currentItem */\n      dup3\n        /* \"contracts/Auction.sol\":5019:5041  currentItem.itemTokens */\n      0x1\n      add\n        /* \"contracts/Auction.sol\":5042:5053  randomIndex */\n      dup3\n        /* \"contracts/Auction.sol\":5019:5054  currentItem.itemTokens[randomIndex] */\n      dup2\n      sload\n      dup2\n      lt\n      iszero\n      iszero\n      tag_67\n      jumpi\n      invalid\n    tag_67:\n      swap1\n      0x0\n      mstore\n      keccak256(0x0, 0x20)\n      add\n      sload\n        /* \"contracts/Auction.sol\":5003:5054  uint winnerId = currentItem.itemTokens[randomIndex] */\n      swap1\n      pop\n        /* \"contracts/Auction.sol\":5392:5399  bidders */\n      0x1\n        /* \"contracts/Auction.sol\":5400:5408  winnerId */\n      dup2\n        /* \"contracts/Auction.sol\":5392:5409  bidders[winnerId] */\n      0x4\n      dup2\n      lt\n      iszero\n      iszero\n      tag_69\n      jumpi\n      invalid\n    tag_69:\n      0x3\n      mul\n      add\n        /* \"contracts/Auction.sol\":5392:5414  bidders[winnerId].addr */\n      0x2\n      add\n      0x0\n      swap1\n      sload\n      swap1\n      0x100\n      exp\n      swap1\n      div\n      0xffffffffffffffffffffffffffffffffffffffff\n      and\n        /* \"contracts/Auction.sol\":5378:5385  winners */\n      0x13\n        /* \"contracts/Auction.sol\":5386:5388  id */\n      dup6\n        /* \"contracts/Auction.sol\":5378:5389  winners[id] */\n      0x3\n      dup2\n      lt\n      iszero\n      iszero\n      tag_71\n      jumpi\n      invalid\n    tag_71:\n      add\n      0x0\n        /* \"contracts/Auction.sol\":5378:5414  winners[id] = bidders[winnerId].addr */\n      0x100\n      exp\n      dup2\n      sload\n      dup2\n      0xffffffffffffffffffffffffffffffffffffffff\n      mul\n      not\n      and\n      swap1\n      dup4\n      0xffffffffffffffffffffffffffffffffffffffff\n      and\n      mul\n      or\n      swap1\n      sstore\n      pop\n        /* \"contracts/Auction.sol\":4746:5478  if(currentItem.itemTokens.length != 0){... */\n    tag_64:\n        /* \"contracts/Auction.sol\":4678:4682  id++ */\n      dup4\n      dup1\n      0x1\n      add\n      swap5\n      pop\n      pop\n        /* \"contracts/Auction.sol\":4652:5488  for (uint id = 0; id < 3; id++) {... */\n      jump(tag_59)\n    tag_60:\n        /* \"contracts/Auction.sol\":4425:5494  function revealWinners() public onlyOwner{... */\n      pop\n      pop\n      pop\n      pop\n      jump\t// out\n        /* \"contracts/Auction.sol\":675:700  address[3] public winners */\n    tag_24:\n      0x13\n      dup2\n      0x3\n      dup2\n      lt\n      iszero\n      iszero\n      tag_73\n      jumpi\n      invalid\n    tag_73:\n      add\n      0x0\n      swap2\n      pop\n      sload\n      swap1\n      0x100\n      exp\n      swap1\n      div\n      0xffffffffffffffffffffffffffffffffffffffff\n      and\n      dup2\n      jump\t// out\n        /* \"contracts/Auction.sol\":615:636  Item [3] public items */\n    tag_27:\n      0xd\n      dup2\n      0x3\n      dup2\n      lt\n      iszero\n      iszero\n      tag_75\n      jumpi\n      invalid\n    tag_75:\n      0x2\n      mul\n      add\n      0x0\n      swap2\n      pop\n      swap1\n      pop\n      dup1\n      0x0\n      add\n      sload\n      swap1\n      pop\n      dup2\n      jump\t// out\n\n    auxdata: 0xa165627a7a723058203cfb41d70305cca2a13ab2466b7e910402e35236f017a6a198404dc91c9ef3760029\n}\n",
				"bytecode": {
					"linkReferences": {},
					"object": "6080604052600060175534801561001557600080fd5b50604051602080610a9783398101806040528101908080519060200190929190505050606033601660006101000a81548173ffffffffffffffffffffffffffffffffffffffff021916908373ffffffffffffffffffffffffffffffffffffffff16021790555060408051908101604052806000815260200182815250600d60006003811015156100a157fe5b600202016000820151816000015560208201518160010190805190602001906100cb92919061017e565b5090505060408051908101604052806001815260200182815250600d60016003811015156100f557fe5b6002020160008201518160000155602082015181600101908051906020019061011f92919061017e565b5090505060408051908101604052806002815260200182815250600d600260038110151561014957fe5b6002020160008201518160000155602082015181600101908051906020019061017392919061017e565b5090505050506101f0565b8280548282559060005260206000209081019282156101ba579160200282015b828111156101b957825182559160200191906001019061019e565b5b5090506101c791906101cb565b5090565b6101ed91905b808211156101e95760008160009055506001016101d1565b5090565b90565b610898806101ff6000396000f300608060405260043610610083576000357c0100000000000000000000000000000000000000000000000000000000900463ffffffff1680631aa3a0081461008857806338af3eed14610092578063598647f8146100e95780636098170514610113578063952587d61461018e578063a2fb1175146101a5578063bfb231d214610212575b600080fd5b610090610253565b005b34801561009e57600080fd5b506100a76103cc565b604051808273ffffffffffffffffffffffffffffffffffffffff1673ffffffffffffffffffffffffffffffffffffffff16815260200191505060405180910390f35b61011160048036038101908080359060200190929190803590602001909291905050506103f2565b005b34801561011f57600080fd5b5061013e60048036038101908080359060200190929190505050610629565b604051808481526020018381526020018273ffffffffffffffffffffffffffffffffffffffff1673ffffffffffffffffffffffffffffffffffffffff168152602001935050505060405180910390f35b34801561019a57600080fd5b506101a36106a0565b005b3480156101b157600080fd5b506101d060048036038101908080359060200190929190505050610814565b604051808273ffffffffffffffffffffffffffffffffffffffff1673ffffffffffffffffffffffffffffffffffffffff16815260200191505060405180910390f35b34801561021e57600080fd5b5061023d60048036038101908080359060200190929190505050610849565b6040518082815260200191505060405180910390f35b601754600160175460048110151561026757fe5b600302016001018190555033600160175460048110151561028457fe5b6003020160020160006101000a81548173ffffffffffffffffffffffffffffffffffffffff021916908373ffffffffffffffffffffffffffffffffffffffff160217905550600560016017546004811015156102dc57fe5b600302016000018190555060016017546004811015156102f857fe5b600302016000803373ffffffffffffffffffffffffffffffffffffffff1673ffffffffffffffffffffffffffffffffffffffff16815260200190815260200160002060008201548160000155600182015481600101556002820160009054906101000a900473ffffffffffffffffffffffffffffffffffffffff168160020160006101000a81548173ffffffffffffffffffffffffffffffffffffffff021916908373ffffffffffffffffffffffffffffffffffffffff160217905550905050601760008154809291906001019190505550565b601660009054906101000a900473ffffffffffffffffffffffffffffffffffffffff1681565b6000806000836000803373ffffffffffffffffffffffffffffffffffffffff1673ffffffffffffffffffffffffffffffffffffffff168152602001908152602001600020600001541080610487575060008060003373ffffffffffffffffffffffffffffffffffffffff1673ffffffffffffffffffffffffffffffffffffffff16815260200190815260200160002060000154145b806104925750600285115b1561049c57600080fd5b836000803373ffffffffffffffffffffffffffffffffffffffff1673ffffffffffffffffffffffffffffffffffffffff16815260200190815260200160002060000154039250826000803373ffffffffffffffffffffffffffffffffffffffff1673ffffffffffffffffffffffffffffffffffffffff168152602001908152602001600020600001819055508260016000803373ffffffffffffffffffffffffffffffffffffffff1673ffffffffffffffffffffffffffffffffffffffff1681526020019081526020016000206001015460048110151561057957fe5b6003020160000181905550600d8560038110151561059357fe5b600202019150600090505b8381101561062257816001016000803373ffffffffffffffffffffffffffffffffffffffff1673ffffffffffffffffffffffffffffffffffffffff168152602001908152602001600020600101549080600181540180825580915050906001820390600052602060002001600090919290919091505550808060010191505061059e565b5050505050565b600080600060018460048110151561063d57fe5b600302016000015460018560048110151561065457fe5b600302016001015460018660048110151561066b57fe5b6003020160020160009054906101000a900473ffffffffffffffffffffffffffffffffffffffff169250925092509193909250565b600080600080601660009054906101000a900473ffffffffffffffffffffffffffffffffffffffff1673ffffffffffffffffffffffffffffffffffffffff163373ffffffffffffffffffffffffffffffffffffffff1614151561070257600080fd5b600093505b600384101561080e57600d8460038110151561071f57fe5b6002020192506000836001018054905014151561080157826001018054905083600101805490504381151561075057fe5b0481151561075a57fe5b069150826001018281548110151561076e57fe5b9060005260206000200154905060018160048110151561078a57fe5b6003020160020160009054906101000a900473ffffffffffffffffffffffffffffffffffffffff166013856003811015156107c157fe5b0160006101000a81548173ffffffffffffffffffffffffffffffffffffffff021916908373ffffffffffffffffffffffffffffffffffffffff1602179055505b8380600101945050610707565b50505050565b60138160038110151561082357fe5b016000915054906101000a900473ffffffffffffffffffffffffffffffffffffffff1681565b600d8160038110151561085857fe5b6002020160009150905080600001549050815600a165627a7a723058203cfb41d70305cca2a13ab2466b7e910402e35236f017a6a198404dc91c9ef3760029",
					"opcodes": "PUSH1 0x80 PUSH1 0x40 MSTORE PUSH1 0x0 PUSH1 0x17 SSTORE CALLVALUE DUP1 ISZERO PUSH2 0x15 JUMPI PUSH1 0x0 DUP1 REVERT JUMPDEST POP PUSH1 0x40 MLOAD PUSH1 0x20 DUP1 PUSH2 0xA97 DUP4 CODECOPY DUP2 ADD DUP1 PUSH1 0x40 MSTORE DUP2 ADD SWAP1 DUP1 DUP1 MLOAD SWAP1 PUSH1 0x20 ADD SWAP1 SWAP3 SWAP2 SWAP1 POP POP POP PUSH1 0x60 CALLER PUSH1 0x16 PUSH1 0x0 PUSH2 0x100 EXP DUP2 SLOAD DUP2 PUSH20 0xFFFFFFFFFFFFFFFFFFFFFFFFFFFFFFFFFFFFFFFF MUL NOT AND SWAP1 DUP4 PUSH20 0xFFFFFFFFFFFFFFFFFFFFFFFFFFFFFFFFFFFFFFFF AND MUL OR SWAP1 SSTORE POP PUSH1 0x40 DUP1 MLOAD SWAP1 DUP2 ADD PUSH1 0x40 MSTORE DUP1 PUSH1 0x0 DUP2 MSTORE PUSH1 0x20 ADD DUP3 DUP2 MSTORE POP PUSH1 0xD PUSH1 0x0 PUSH1 0x3 DUP2 LT ISZERO ISZERO PUSH2 0xA1 JUMPI INVALID JUMPDEST PUSH1 0x2 MUL ADD PUSH1 0x0 DUP3 ADD MLOAD DUP2 PUSH1 0x0 ADD SSTORE PUSH1 0x20 DUP3 ADD MLOAD DUP2 PUSH1 0x1 ADD SWAP1 DUP1 MLOAD SWAP1 PUSH1 0x20 ADD SWAP1 PUSH2 0xCB SWAP3 SWAP2 SWAP1 PUSH2 0x17E JUMP JUMPDEST POP SWAP1 POP POP PUSH1 0x40 DUP1 MLOAD SWAP1 DUP2 ADD PUSH1 0x40 MSTORE DUP1 PUSH1 0x1 DUP2 MSTORE PUSH1 0x20 ADD DUP3 DUP2 MSTORE POP PUSH1 0xD PUSH1 0x1 PUSH1 0x3 DUP2 LT ISZERO ISZERO PUSH2 0xF5 JUMPI INVALID JUMPDEST PUSH1 0x2 MUL ADD PUSH1 0x0 DUP3 ADD MLOAD DUP2 PUSH1 0x0 ADD SSTORE PUSH1 0x20 DUP3 ADD MLOAD DUP2 PUSH1 0x1 ADD SWAP1 DUP1 MLOAD SWAP1 PUSH1 0x20 ADD SWAP1 PUSH2 0x11F SWAP3 SWAP2 SWAP1 PUSH2 0x17E JUMP JUMPDEST POP SWAP1 POP POP PUSH1 0x40 DUP1 MLOAD SWAP1 DUP2 ADD PUSH1 0x40 MSTORE DUP1 PUSH1 0x2 DUP2 MSTORE PUSH1 0x20 ADD DUP3 DUP2 MSTORE POP PUSH1 0xD PUSH1 0x2 PUSH1 0x3 DUP2 LT ISZERO ISZERO PUSH2 0x149 JUMPI INVALID JUMPDEST PUSH1 0x2 MUL ADD PUSH1 0x0 DUP3 ADD MLOAD DUP2 PUSH1 0x0 ADD SSTORE PUSH1 0x20 DUP3 ADD MLOAD DUP2 PUSH1 0x1 ADD SWAP1 DUP1 MLOAD SWAP1 PUSH1 0x20 ADD SWAP1 PUSH2 0x173 SWAP3 SWAP2 SWAP1 PUSH2 0x17E JUMP JUMPDEST POP SWAP1 POP POP POP POP PUSH2 0x1F0 JUMP JUMPDEST DUP3 DUP1 SLOAD DUP3 DUP3 SSTORE SWAP1 PUSH1 0x0 MSTORE PUSH1 0x20 PUSH1 0x0 KECCAK256 SWAP1 DUP2 ADD SWAP3 DUP3 ISZERO PUSH2 0x1BA JUMPI SWAP2 PUSH1 0x20 MUL DUP3 ADD JUMPDEST DUP3 DUP2 GT ISZERO PUSH2 0x1B9 JUMPI DUP3 MLOAD DUP3 SSTORE SWAP2 PUSH1 0x20 ADD SWAP2 SWAP1 PUSH1 0x1 ADD SWAP1 PUSH2 0x19E JUMP JUMPDEST JUMPDEST POP SWAP1 POP PUSH2 0x1C7 SWAP2 SWAP1 PUSH2 0x1CB JUMP JUMPDEST POP SWAP1 JUMP JUMPDEST PUSH2 0x1ED SWAP2 SWAP1 JUMPDEST DUP1 DUP3 GT ISZERO PUSH2 0x1E9 JUMPI PUSH1 0x0 DUP2 PUSH1 0x0 SWAP1 SSTORE POP PUSH1 0x1 ADD PUSH2 0x1D1 JUMP JUMPDEST POP SWAP1 JUMP JUMPDEST SWAP1 JUMP JUMPDEST PUSH2 0x898 DUP1 PUSH2 0x1FF PUSH1 0x0 CODECOPY PUSH1 0x0 RETURN STOP PUSH1 0x80 PUSH1 0x40 MSTORE PUSH1 0x4 CALLDATASIZE LT PUSH2 0x83 JUMPI PUSH1 0x0 CALLDATALOAD PUSH29 0x100000000000000000000000000000000000000000000000000000000 SWAP1 DIV PUSH4 0xFFFFFFFF AND DUP1 PUSH4 0x1AA3A008 EQ PUSH2 0x88 JUMPI DUP1 PUSH4 0x38AF3EED EQ PUSH2 0x92 JUMPI DUP1 PUSH4 0x598647F8 EQ PUSH2 0xE9 JUMPI DUP1 PUSH4 0x60981705 EQ PUSH2 0x113 JUMPI DUP1 PUSH4 0x952587D6 EQ PUSH2 0x18E JUMPI DUP1 PUSH4 0xA2FB1175 EQ PUSH2 0x1A5 JUMPI DUP1 PUSH4 0xBFB231D2 EQ PUSH2 0x212 JUMPI JUMPDEST PUSH1 0x0 DUP1 REVERT JUMPDEST PUSH2 0x90 PUSH2 0x253 JUMP JUMPDEST STOP JUMPDEST CALLVALUE DUP1 ISZERO PUSH2 0x9E JUMPI PUSH1 0x0 DUP1 REVERT JUMPDEST POP PUSH2 0xA7 PUSH2 0x3CC JUMP JUMPDEST PUSH1 0x40 MLOAD DUP1 DUP3 PUSH20 0xFFFFFFFFFFFFFFFFFFFFFFFFFFFFFFFFFFFFFFFF AND PUSH20 0xFFFFFFFFFFFFFFFFFFFFFFFFFFFFFFFFFFFFFFFF AND DUP2 MSTORE PUSH1 0x20 ADD SWAP2 POP POP PUSH1 0x40 MLOAD DUP1 SWAP2 SUB SWAP1 RETURN JUMPDEST PUSH2 0x111 PUSH1 0x4 DUP1 CALLDATASIZE SUB DUP2 ADD SWAP1 DUP1 DUP1 CALLDATALOAD SWAP1 PUSH1 0x20 ADD SWAP1 SWAP3 SWAP2 SWAP1 DUP1 CALLDATALOAD SWAP1 PUSH1 0x20 ADD SWAP1 SWAP3 SWAP2 SWAP1 POP POP POP PUSH2 0x3F2 JUMP JUMPDEST STOP JUMPDEST CALLVALUE DUP1 ISZERO PUSH2 0x11F JUMPI PUSH1 0x0 DUP1 REVERT JUMPDEST POP PUSH2 0x13E PUSH1 0x4 DUP1 CALLDATASIZE SUB DUP2 ADD SWAP1 DUP1 DUP1 CALLDATALOAD SWAP1 PUSH1 0x20 ADD SWAP1 SWAP3 SWAP2 SWAP1 POP POP POP PUSH2 0x629 JUMP JUMPDEST PUSH1 0x40 MLOAD DUP1 DUP5 DUP2 MSTORE PUSH1 0x20 ADD DUP4 DUP2 MSTORE PUSH1 0x20 ADD DUP3 PUSH20 0xFFFFFFFFFFFFFFFFFFFFFFFFFFFFFFFFFFFFFFFF AND PUSH20 0xFFFFFFFFFFFFFFFFFFFFFFFFFFFFFFFFFFFFFFFF AND DUP2 MSTORE PUSH1 0x20 ADD SWAP4 POP POP POP POP PUSH1 0x40 MLOAD DUP1 SWAP2 SUB SWAP1 RETURN JUMPDEST CALLVALUE DUP1 ISZERO PUSH2 0x19A JUMPI PUSH1 0x0 DUP1 REVERT JUMPDEST POP PUSH2 0x1A3 PUSH2 0x6A0 JUMP JUMPDEST STOP JUMPDEST CALLVALUE DUP1 ISZERO PUSH2 0x1B1 JUMPI PUSH1 0x0 DUP1 REVERT JUMPDEST POP PUSH2 0x1D0 PUSH1 0x4 DUP1 CALLDATASIZE SUB DUP2 ADD SWAP1 DUP1 DUP1 CALLDATALOAD SWAP1 PUSH1 0x20 ADD SWAP1 SWAP3 SWAP2 SWAP1 POP POP POP PUSH2 0x814 JUMP JUMPDEST PUSH1 0x40 MLOAD DUP1 DUP3 PUSH20 0xFFFFFFFFFFFFFFFFFFFFFFFFFFFFFFFFFFFFFFFF AND PUSH20 0xFFFFFFFFFFFFFFFFFFFFFFFFFFFFFFFFFFFFFFFF AND DUP2 MSTORE PUSH1 0x20 ADD SWAP2 POP POP PUSH1 0x40 MLOAD DUP1 SWAP2 SUB SWAP1 RETURN JUMPDEST CALLVALUE DUP1 ISZERO PUSH2 0x21E JUMPI PUSH1 0x0 DUP1 REVERT JUMPDEST POP PUSH2 0x23D PUSH1 0x4 DUP1 CALLDATASIZE SUB DUP2 ADD SWAP1 DUP1 DUP1 CALLDATALOAD SWAP1 PUSH1 0x20 ADD SWAP1 SWAP3 SWAP2 SWAP1 POP POP POP PUSH2 0x849 JUMP JUMPDEST PUSH1 0x40 MLOAD DUP1 DUP3 DUP2 MSTORE PUSH1 0x20 ADD SWAP2 POP POP PUSH1 0x40 MLOAD DUP1 SWAP2 SUB SWAP1 RETURN JUMPDEST PUSH1 0x17 SLOAD PUSH1 0x1 PUSH1 0x17 SLOAD PUSH1 0x4 DUP2 LT ISZERO ISZERO PUSH2 0x267 JUMPI INVALID JUMPDEST PUSH1 0x3 MUL ADD PUSH1 0x1 ADD DUP2 SWAP1 SSTORE POP CALLER PUSH1 0x1 PUSH1 0x17 SLOAD PUSH1 0x4 DUP2 LT ISZERO ISZERO PUSH2 0x284 JUMPI INVALID JUMPDEST PUSH1 0x3 MUL ADD PUSH1 0x2 ADD PUSH1 0x0 PUSH2 0x100 EXP DUP2 SLOAD DUP2 PUSH20 0xFFFFFFFFFFFFFFFFFFFFFFFFFFFFFFFFFFFFFFFF MUL NOT AND SWAP1 DUP4 PUSH20 0xFFFFFFFFFFFFFFFFFFFFFFFFFFFFFFFFFFFFFFFF AND MUL OR SWAP1 SSTORE POP PUSH1 0x5 PUSH1 0x1 PUSH1 0x17 SLOAD PUSH1 0x4 DUP2 LT ISZERO ISZERO PUSH2 0x2DC JUMPI INVALID JUMPDEST PUSH1 0x3 MUL ADD PUSH1 0x0 ADD DUP2 SWAP1 SSTORE POP PUSH1 0x1 PUSH1 0x17 SLOAD PUSH1 0x4 DUP2 LT ISZERO ISZERO PUSH2 0x2F8 JUMPI INVALID JUMPDEST PUSH1 0x3 MUL ADD PUSH1 0x0 DUP1 CALLER PUSH20 0xFFFFFFFFFFFFFFFFFFFFFFFFFFFFFFFFFFFFFFFF AND PUSH20 0xFFFFFFFFFFFFFFFFFFFFFFFFFFFFFFFFFFFFFFFF AND DUP2 MSTORE PUSH1 0x20 ADD SWAP1 DUP2 MSTORE PUSH1 0x20 ADD PUSH1 0x0 KECCAK256 PUSH1 0x0 DUP3 ADD SLOAD DUP2 PUSH1 0x0 ADD SSTORE PUSH1 0x1 DUP3 ADD SLOAD DUP2 PUSH1 0x1 ADD SSTORE PUSH1 0x2 DUP3 ADD PUSH1 0x0 SWAP1 SLOAD SWAP1 PUSH2 0x100 EXP SWAP1 DIV PUSH20 0xFFFFFFFFFFFFFFFFFFFFFFFFFFFFFFFFFFFFFFFF AND DUP2 PUSH1 0x2 ADD PUSH1 0x0 PUSH2 0x100 EXP DUP2 SLOAD DUP2 PUSH20 0xFFFFFFFFFFFFFFFFFFFFFFFFFFFFFFFFFFFFFFFF MUL NOT AND SWAP1 DUP4 PUSH20 0xFFFFFFFFFFFFFFFFFFFFFFFFFFFFFFFFFFFFFFFF AND MUL OR SWAP1 SSTORE POP SWAP1 POP POP PUSH1 0x17 PUSH1 0x0 DUP2 SLOAD DUP1 SWAP3 SWAP2 SWAP1 PUSH1 0x1 ADD SWAP2 SWAP1 POP SSTORE POP JUMP JUMPDEST PUSH1 0x16 PUSH1 0x0 SWAP1 SLOAD SWAP1 PUSH2 0x100 EXP SWAP1 DIV PUSH20 0xFFFFFFFFFFFFFFFFFFFFFFFFFFFFFFFFFFFFFFFF AND DUP2 JUMP JUMPDEST PUSH1 0x0 DUP1 PUSH1 0x0 DUP4 PUSH1 0x0 DUP1 CALLER PUSH20 0xFFFFFFFFFFFFFFFFFFFFFFFFFFFFFFFFFFFFFFFF AND PUSH20 0xFFFFFFFFFFFFFFFFFFFFFFFFFFFFFFFFFFFFFFFF AND DUP2 MSTORE PUSH1 0x20 ADD SWAP1 DUP2 MSTORE PUSH1 0x20 ADD PUSH1 0x0 KECCAK256 PUSH1 0x0 ADD SLOAD LT DUP1 PUSH2 0x487 JUMPI POP PUSH1 0x0 DUP1 PUSH1 0x0 CALLER PUSH20 0xFFFFFFFFFFFFFFFFFFFFFFFFFFFFFFFFFFFFFFFF AND PUSH20 0xFFFFFFFFFFFFFFFFFFFFFFFFFFFFFFFFFFFFFFFF AND DUP2 MSTORE PUSH1 0x20 ADD SWAP1 DUP2 MSTORE PUSH1 0x20 ADD PUSH1 0x0 KECCAK256 PUSH1 0x0 ADD SLOAD EQ JUMPDEST DUP1 PUSH2 0x492 JUMPI POP PUSH1 0x2 DUP6 GT JUMPDEST ISZERO PUSH2 0x49C JUMPI PUSH1 0x0 DUP1 REVERT JUMPDEST DUP4 PUSH1 0x0 DUP1 CALLER PUSH20 0xFFFFFFFFFFFFFFFFFFFFFFFFFFFFFFFFFFFFFFFF AND PUSH20 0xFFFFFFFFFFFFFFFFFFFFFFFFFFFFFFFFFFFFFFFF AND DUP2 MSTORE PUSH1 0x20 ADD SWAP1 DUP2 MSTORE PUSH1 0x20 ADD PUSH1 0x0 KECCAK256 PUSH1 0x0 ADD SLOAD SUB SWAP3 POP DUP3 PUSH1 0x0 DUP1 CALLER PUSH20 0xFFFFFFFFFFFFFFFFFFFFFFFFFFFFFFFFFFFFFFFF AND PUSH20 0xFFFFFFFFFFFFFFFFFFFFFFFFFFFFFFFFFFFFFFFF AND DUP2 MSTORE PUSH1 0x20 ADD SWAP1 DUP2 MSTORE PUSH1 0x20 ADD PUSH1 0x0 KECCAK256 PUSH1 0x0 ADD DUP2 SWAP1 SSTORE POP DUP3 PUSH1 0x1 PUSH1 0x0 DUP1 CALLER PUSH20 0xFFFFFFFFFFFFFFFFFFFFFFFFFFFFFFFFFFFFFFFF AND PUSH20 0xFFFFFFFFFFFFFFFFFFFFFFFFFFFFFFFFFFFFFFFF AND DUP2 MSTORE PUSH1 0x20 ADD SWAP1 DUP2 MSTORE PUSH1 0x20 ADD PUSH1 0x0 KECCAK256 PUSH1 0x1 ADD SLOAD PUSH1 0x4 DUP2 LT ISZERO ISZERO PUSH2 0x579 JUMPI INVALID JUMPDEST PUSH1 0x3 MUL ADD PUSH1 0x0 ADD DUP2 SWAP1 SSTORE POP PUSH1 0xD DUP6 PUSH1 0x3 DUP2 LT ISZERO ISZERO PUSH2 0x593 JUMPI INVALID JUMPDEST PUSH1 0x2 MUL ADD SWAP2 POP PUSH1 0x0 SWAP1 POP JUMPDEST DUP4 DUP2 LT ISZERO PUSH2 0x622 JUMPI DUP2 PUSH1 0x1 ADD PUSH1 0x0 DUP1 CALLER PUSH20 0xFFFFFFFFFFFFFFFFFFFFFFFFFFFFFFFFFFFFFFFF AND PUSH20 0xFFFFFFFFFFFFFFFFFFFFFFFFFFFFFFFFFFFFFFFF AND DUP2 MSTORE PUSH1 0x20 ADD SWAP1 DUP2 MSTORE PUSH1 0x20 ADD PUSH1 0x0 KECCAK256 PUSH1 0x1 ADD SLOAD SWAP1 DUP1 PUSH1 0x1 DUP2 SLOAD ADD DUP1 DUP3 SSTORE DUP1 SWAP2 POP POP SWAP1 PUSH1 0x1 DUP3 SUB SWAP1 PUSH1 0x0 MSTORE PUSH1 0x20 PUSH1 0x0 KECCAK256 ADD PUSH1 0x0 SWAP1 SWAP2 SWAP3 SWAP1 SWAP2 SWAP1 SWAP2 POP SSTORE POP DUP1 DUP1 PUSH1 0x1 ADD SWAP2 POP POP PUSH2 0x59E JUMP JUMPDEST POP POP POP POP POP JUMP JUMPDEST PUSH1 0x0 DUP1 PUSH1 0x0 PUSH1 0x1 DUP5 PUSH1 0x4 DUP2 LT ISZERO ISZERO PUSH2 0x63D JUMPI INVALID JUMPDEST PUSH1 0x3 MUL ADD PUSH1 0x0 ADD SLOAD PUSH1 0x1 DUP6 PUSH1 0x4 DUP2 LT ISZERO ISZERO PUSH2 0x654 JUMPI INVALID JUMPDEST PUSH1 0x3 MUL ADD PUSH1 0x1 ADD SLOAD PUSH1 0x1 DUP7 PUSH1 0x4 DUP2 LT ISZERO ISZERO PUSH2 0x66B JUMPI INVALID JUMPDEST PUSH1 0x3 MUL ADD PUSH1 0x2 ADD PUSH1 0x0 SWAP1 SLOAD SWAP1 PUSH2 0x100 EXP SWAP1 DIV PUSH20 0xFFFFFFFFFFFFFFFFFFFFFFFFFFFFFFFFFFFFFFFF AND SWAP3 POP SWAP3 POP SWAP3 POP SWAP2 SWAP4 SWAP1 SWAP3 POP JUMP JUMPDEST PUSH1 0x0 DUP1 PUSH1 0x0 DUP1 PUSH1 0x16 PUSH1 0x0 SWAP1 SLOAD SWAP1 PUSH2 0x100 EXP SWAP1 DIV PUSH20 0xFFFFFFFFFFFFFFFFFFFFFFFFFFFFFFFFFFFFFFFF AND PUSH20 0xFFFFFFFFFFFFFFFFFFFFFFFFFFFFFFFFFFFFFFFF AND CALLER PUSH20 0xFFFFFFFFFFFFFFFFFFFFFFFFFFFFFFFFFFFFFFFF AND EQ ISZERO ISZERO PUSH2 0x702 JUMPI PUSH1 0x0 DUP1 REVERT JUMPDEST PUSH1 0x0 SWAP4 POP JUMPDEST PUSH1 0x3 DUP5 LT ISZERO PUSH2 0x80E JUMPI PUSH1 0xD DUP5 PUSH1 0x3 DUP2 LT ISZERO ISZERO PUSH2 0x71F JUMPI INVALID JUMPDEST PUSH1 0x2 MUL ADD SWAP3 POP PUSH1 0x0 DUP4 PUSH1 0x1 ADD DUP1 SLOAD SWAP1 POP EQ ISZERO ISZERO PUSH2 0x801 JUMPI DUP3 PUSH1 0x1 ADD DUP1 SLOAD SWAP1 POP DUP4 PUSH1 0x1 ADD DUP1 SLOAD SWAP1 POP NUMBER DUP2 ISZERO ISZERO PUSH2 0x750 JUMPI INVALID JUMPDEST DIV DUP2 ISZERO ISZERO PUSH2 0x75A JUMPI INVALID JUMPDEST MOD SWAP2 POP DUP3 PUSH1 0x1 ADD DUP3 DUP2 SLOAD DUP2 LT ISZERO ISZERO PUSH2 0x76E JUMPI INVALID JUMPDEST SWAP1 PUSH1 0x0 MSTORE PUSH1 0x20 PUSH1 0x0 KECCAK256 ADD SLOAD SWAP1 POP PUSH1 0x1 DUP2 PUSH1 0x4 DUP2 LT ISZERO ISZERO PUSH2 0x78A JUMPI INVALID JUMPDEST PUSH1 0x3 MUL ADD PUSH1 0x2 ADD PUSH1 0x0 SWAP1 SLOAD SWAP1 PUSH2 0x100 EXP SWAP1 DIV PUSH20 0xFFFFFFFFFFFFFFFFFFFFFFFFFFFFFFFFFFFFFFFF AND PUSH1 0x13 DUP6 PUSH1 0x3 DUP2 LT ISZERO ISZERO PUSH2 0x7C1 JUMPI INVALID JUMPDEST ADD PUSH1 0x0 PUSH2 0x100 EXP DUP2 SLOAD DUP2 PUSH20 0xFFFFFFFFFFFFFFFFFFFFFFFFFFFFFFFFFFFFFFFF MUL NOT AND SWAP1 DUP4 PUSH20 0xFFFFFFFFFFFFFFFFFFFFFFFFFFFFFFFFFFFFFFFF AND MUL OR SWAP1 SSTORE POP JUMPDEST DUP4 DUP1 PUSH1 0x1 ADD SWAP5 POP POP PUSH2 0x707 JUMP JUMPDEST POP POP POP POP JUMP JUMPDEST PUSH1 0x13 DUP2 PUSH1 0x3 DUP2 LT ISZERO ISZERO PUSH2 0x823 JUMPI INVALID JUMPDEST ADD PUSH1 0x0 SWAP2 POP SLOAD SWAP1 PUSH2 0x100 EXP SWAP1 DIV PUSH20 0xFFFFFFFFFFFFFFFFFFFFFFFFFFFFFFFFFFFFFFFF AND DUP2 JUMP JUMPDEST PUSH1 0xD DUP2 PUSH1 0x3 DUP2 LT ISZERO ISZERO PUSH2 0x858 JUMPI INVALID JUMPDEST PUSH1 0x2 MUL ADD PUSH1 0x0 SWAP2 POP SWAP1 POP DUP1 PUSH1 0x0 ADD SLOAD SWAP1 POP DUP2 JUMP STOP LOG1 PUSH6 0x627A7A723058 KECCAK256 EXTCODECOPY CREATE2 COINBASE 0xd7 SUB SDIV 0xcc LOG2 LOG1 GASPRICE 0xb2 0x46 PUSH12 0x7E910402E35236F017A6A198 BLOCKHASH 0x4d 0xc9 SHR SWAP15 RETURN PUSH23 0x29000000000000000000000000000000000000000000 "
				},
				"gasEstimates": {
					"creation": {
						"codeDepositCost": "440000",
						"executionCost": "infinite",
						"totalCost": "infinite"
					},
					"external": {
						"beneficiary()": "464",
						"bid(uint256,uint256)": "infinite",
						"getPersonDetails(uint256)": "1192",
						"items(uint256)": "652",
						"register()": "142883",
						"revealWinners()": "infinite",
						"winners(uint256)": "645"
					}
				},
				"methodIdentifiers": {
					"beneficiary()": "38af3eed",
					"bid(uint256,uint256)": "598647f8",
					"getPersonDetails(uint256)": "60981705",
					"items(uint256)": "bfb231d2",
					"register()": "1aa3a008",
					"revealWinners()": "952587d6",
					"winners(uint256)": "a2fb1175"
				}
			},
			"userdoc": {
				"methods": {}
			}
		}
	}
}