{
	"contracts/Auction.sol": {
		"Auction": {
			"abi": [
				{
					"constant": false,
					"inputs": [],
					"name": "register",
					"outputs": [],
					"payable": true,
					"stateMutability": "payable",
					"type": "function"
				},
				{
					"constant": true,
					"inputs": [],
					"name": "beneficiary",
					"outputs": [
						{
							"name": "",
							"type": "address"
						}
					],
					"payable": false,
					"stateMutability": "view",
					"type": "function"
				},
				{
					"constant": false,
					"inputs": [
						{
							"name": "_itemId",
							"type": "uint256"
						},
						{
							"name": "_count",
							"type": "uint256"
						}
					],
					"name": "bid",
					"outputs": [],
					"payable": true,
					"stateMutability": "payable",
					"type": "function"
				},
				{
					"constant": true,
					"inputs": [
						{
							"name": "id",
							"type": "uint256"
						}
					],
					"name": "getPersonDetails",
					"outputs": [
						{
							"name": "",
							"type": "uint256"
						},
						{
							"name": "",
							"type": "uint256"
						},
						{
							"name": "",
							"type": "address"
						}
					],
					"payable": false,
					"stateMutability": "view",
					"type": "function"
				},
				{
					"constant": false,
					"inputs": [],
					"name": "revealWinners",
					"outputs": [],
					"payable": false,
					"stateMutability": "nonpayable",
					"type": "function"
				},
				{
					"constant": true,
					"inputs": [
						{
							"name": "",
							"type": "uint256"
						}
					],
					"name": "winners",
					"outputs": [
						{
							"name": "",
							"type": "address"
						}
					],
					"payable": false,
					"stateMutability": "view",
					"type": "function"
				},
				{
					"constant": true,
					"inputs": [
						{
							"name": "",
							"type": "uint256"
						}
					],
					"name": "items",
					"outputs": [
						{
							"name": "itemId",
							"type": "uint256"
						}
					],
					"payable": false,
					"stateMutability": "view",
					"type": "function"
				},
				{
					"inputs": [],
					"payable": true,
					"stateMutability": "payable",
					"type": "constructor"
				}
			],
			"devdoc": {
				"methods": {}
			},
			"evm": {
				"assembly": "    /* \"contracts/Auction.sol\":25:5712  contract Auction {... */\n  mstore(0x40, 0x80)\n    /* \"contracts/Auction.sol\":819:820  0 */\n  0x0\n    /* \"contracts/Auction.sol\":802:820  uint bidderCount=0 */\n  0x17\n  sstore\n    /* \"contracts/Auction.sol\":1216:1240  uint[] memory emptyArray */\n  0x60\n    /* \"contracts/Auction.sol\":1171:1181  msg.sender */\n  caller\n    /* \"contracts/Auction.sol\":1157:1168  beneficiary */\n  0x16\n  0x0\n    /* \"contracts/Auction.sol\":1157:1181  beneficiary = msg.sender */\n  0x100\n  exp\n  dup2\n  sload\n  dup2\n  0xffffffffffffffffffffffffffffffffffffffff\n  mul\n  not\n  and\n  swap1\n  dup4\n  0xffffffffffffffffffffffffffffffffffffffff\n  and\n  mul\n  or\n  swap1\n  sstore\n  pop\n    /* \"contracts/Auction.sol\":1261:1299  Item({itemId:0,itemTokens:emptyArray}) */\n  0x40\n  dup1\n  mload\n  swap1\n  dup2\n  add\n  0x40\n  mstore\n  dup1\n    /* \"contracts/Auction.sol\":1274:1275  0 */\n  0x0\n    /* \"contracts/Auction.sol\":1261:1299  Item({itemId:0,itemTokens:emptyArray}) */\n  dup2\n  mstore\n  0x20\n  add\n    /* \"contracts/Auction.sol\":1287:1297  emptyArray */\n  dup3\n    /* \"contracts/Auction.sol\":1261:1299  Item({itemId:0,itemTokens:emptyArray}) */\n  dup2\n  mstore\n  pop\n    /* \"contracts/Auction.sol\":1250:1255  items */\n  0xd\n    /* \"contracts/Auction.sol\":1256:1257  0 */\n  0x0\n    /* \"contracts/Auction.sol\":1250:1258  items[0] */\n  0x3\n  dup2\n  lt\n  iszero\n  iszero\n  tag_3\n  jumpi\n  invalid\ntag_3:\n  0x2\n  mul\n  add\n    /* \"contracts/Auction.sol\":1250:1299  items[0] = Item({itemId:0,itemTokens:emptyArray}) */\n  0x0\n  dup3\n  add\n  mload\n  dup2\n  0x0\n  add\n  sstore\n  0x20\n  dup3\n  add\n  mload\n  dup2\n  0x1\n  add\n  swap1\n  dup1\n  mload\n  swap1\n  0x20\n  add\n  swap1\n  tag_5\n  swap3\n  swap2\n  swap1\n  jump\t// in(tag_6)\ntag_5:\n  pop\n  swap1\n  pop\n  pop\n    /* \"contracts/Auction.sol\":1457:1495  Item({itemId:1,itemTokens:emptyArray}) */\n  0x40\n  dup1\n  mload\n  swap1\n  dup2\n  add\n  0x40\n  mstore\n  dup1\n    /* \"contracts/Auction.sol\":1470:1471  1 */\n  0x1\n    /* \"contracts/Auction.sol\":1457:1495  Item({itemId:1,itemTokens:emptyArray}) */\n  dup2\n  mstore\n  0x20\n  add\n    /* \"contracts/Auction.sol\":1483:1493  emptyArray */\n  dup3\n    /* \"contracts/Auction.sol\":1457:1495  Item({itemId:1,itemTokens:emptyArray}) */\n  dup2\n  mstore\n  pop\n    /* \"contracts/Auction.sol\":1446:1451  items */\n  0xd\n    /* \"contracts/Auction.sol\":1452:1453  1 */\n  0x1\n    /* \"contracts/Auction.sol\":1446:1454  items[1] */\n  0x3\n  dup2\n  lt\n  iszero\n  iszero\n  tag_7\n  jumpi\n  invalid\ntag_7:\n  0x2\n  mul\n  add\n    /* \"contracts/Auction.sol\":1446:1495  items[1] = Item({itemId:1,itemTokens:emptyArray}) */\n  0x0\n  dup3\n  add\n  mload\n  dup2\n  0x0\n  add\n  sstore\n  0x20\n  dup3\n  add\n  mload\n  dup2\n  0x1\n  add\n  swap1\n  dup1\n  mload\n  swap1\n  0x20\n  add\n  swap1\n  tag_9\n  swap3\n  swap2\n  swap1\n  jump\t// in(tag_6)\ntag_9:\n  pop\n  swap1\n  pop\n  pop\n    /* \"contracts/Auction.sol\":1515:1553  Item({itemId:2,itemTokens:emptyArray}) */\n  0x40\n  dup1\n  mload\n  swap1\n  dup2\n  add\n  0x40\n  mstore\n  dup1\n    /* \"contracts/Auction.sol\":1528:1529  2 */\n  0x2\n    /* \"contracts/Auction.sol\":1515:1553  Item({itemId:2,itemTokens:emptyArray}) */\n  dup2\n  mstore\n  0x20\n  add\n    /* \"contracts/Auction.sol\":1541:1551  emptyArray */\n  dup3\n    /* \"contracts/Auction.sol\":1515:1553  Item({itemId:2,itemTokens:emptyArray}) */\n  dup2\n  mstore\n  pop\n    /* \"contracts/Auction.sol\":1505:1510  items */\n  0xd\n    /* \"contracts/Auction.sol\":1511:1512  2 */\n  0x2\n    /* \"contracts/Auction.sol\":1505:1513  items[2] */\n  0x3\n  dup2\n  lt\n  iszero\n  iszero\n  tag_10\n  jumpi\n  invalid\ntag_10:\n  0x2\n  mul\n  add\n    /* \"contracts/Auction.sol\":1505:1553  items[2] =Item({itemId:2,itemTokens:emptyArray}) */\n  0x0\n  dup3\n  add\n  mload\n  dup2\n  0x0\n  add\n  sstore\n  0x20\n  dup3\n  add\n  mload\n  dup2\n  0x1\n  add\n  swap1\n  dup1\n  mload\n  swap1\n  0x20\n  add\n  swap1\n  tag_12\n  swap3\n  swap2\n  swap1\n  jump\t// in(tag_6)\ntag_12:\n  pop\n  swap1\n  pop\n  pop\n    /* \"contracts/Auction.sol\":857:1590  function Auction() public payable{    //deprecated... */\n  pop\n    /* \"contracts/Auction.sol\":25:5712  contract Auction {... */\n  jump(tag_13)\ntag_6:\n  dup3\n  dup1\n  sload\n  dup3\n  dup3\n  sstore\n  swap1\n  0x0\n  mstore\n  keccak256(0x0, 0x20)\n  swap1\n  dup2\n  add\n  swap3\n  dup3\n  iszero\n  tag_14\n  jumpi\n  swap2\n  0x20\n  mul\n  dup3\n  add\ntag_15:\n  dup3\n  dup2\n  gt\n  iszero\n  tag_16\n  jumpi\n  dup3\n  mload\n  dup3\n  sstore\n  swap2\n  0x20\n  add\n  swap2\n  swap1\n  0x1\n  add\n  swap1\n  jump(tag_15)\ntag_16:\ntag_14:\n  pop\n  swap1\n  pop\n  tag_17\n  swap2\n  swap1\n  jump\t// in(tag_18)\ntag_17:\n  pop\n  swap1\n  jump\t// out\ntag_18:\n  tag_19\n  swap2\n  swap1\ntag_20:\n  dup1\n  dup3\n  gt\n  iszero\n  tag_21\n  jumpi\n  0x0\n  dup2\n  0x0\n  swap1\n  sstore\n  pop\n  0x1\n  add\n  jump(tag_20)\ntag_21:\n  pop\n  swap1\n  jump\ntag_19:\n  swap1\n  jump\t// out\ntag_13:\n  dataSize(sub_0)\n  dup1\n  dataOffset(sub_0)\n  0x0\n  codecopy\n  0x0\n  return\nstop\n\nsub_0: assembly {\n        /* \"contracts/Auction.sol\":25:5712  contract Auction {... */\n      mstore(0x40, 0x80)\n      jumpi(tag_1, lt(calldatasize, 0x4))\n      calldataload(0x0)\n      0x100000000000000000000000000000000000000000000000000000000\n      swap1\n      div\n      0xffffffff\n      and\n      dup1\n      0x1aa3a008\n      eq\n      tag_2\n      jumpi\n      dup1\n      0x38af3eed\n      eq\n      tag_3\n      jumpi\n      dup1\n      0x598647f8\n      eq\n      tag_4\n      jumpi\n      dup1\n      0x60981705\n      eq\n      tag_5\n      jumpi\n      dup1\n      0x952587d6\n      eq\n      tag_6\n      jumpi\n      dup1\n      0xa2fb1175\n      eq\n      tag_7\n      jumpi\n      dup1\n      0xbfb231d2\n      eq\n      tag_8\n      jumpi\n    tag_1:\n      0x0\n      dup1\n      revert\n        /* \"contracts/Auction.sol\":1601:2183  function register() public payable{... */\n    tag_2:\n      tag_9\n      jump(tag_10)\n    tag_9:\n      stop\n        /* \"contracts/Auction.sol\":736:762  address public beneficiary */\n    tag_3:\n      callvalue\n        /* \"--CODEGEN--\":8:17   */\n      dup1\n        /* \"--CODEGEN--\":5:7   */\n      iszero\n      tag_11\n      jumpi\n        /* \"--CODEGEN--\":30:31   */\n      0x0\n        /* \"--CODEGEN--\":27:28   */\n      dup1\n        /* \"--CODEGEN--\":20:32   */\n      revert\n        /* \"--CODEGEN--\":5:7   */\n    tag_11:\n        /* \"contracts/Auction.sol\":736:762  address public beneficiary */\n      pop\n      tag_12\n      jump(tag_13)\n    tag_12:\n      mload(0x40)\n      dup1\n      dup3\n      0xffffffffffffffffffffffffffffffffffffffff\n      and\n      0xffffffffffffffffffffffffffffffffffffffff\n      and\n      dup2\n      mstore\n      0x20\n      add\n      swap2\n      pop\n      pop\n      mload(0x40)\n      dup1\n      swap2\n      sub\n      swap1\n      return\n        /* \"contracts/Auction.sol\":2193:3957  function bid(uint _itemId, uint _count) public payable{... */\n    tag_4:\n      tag_14\n      0x4\n      dup1\n      calldatasize\n      sub\n      dup2\n      add\n      swap1\n      dup1\n      dup1\n      calldataload\n      swap1\n      0x20\n      add\n      swap1\n      swap3\n      swap2\n      swap1\n      dup1\n      calldataload\n      swap1\n      0x20\n      add\n      swap1\n      swap3\n      swap2\n      swap1\n      pop\n      pop\n      pop\n      jump(tag_15)\n    tag_14:\n      stop\n        /* \"contracts/Auction.sol\":5541:5709  function getPersonDetails(uint id) public constant returns(uint,uint,address){... */\n    tag_5:\n      callvalue\n        /* \"--CODEGEN--\":8:17   */\n      dup1\n        /* \"--CODEGEN--\":5:7   */\n      iszero\n      tag_16\n      jumpi\n        /* \"--CODEGEN--\":30:31   */\n      0x0\n        /* \"--CODEGEN--\":27:28   */\n      dup1\n        /* \"--CODEGEN--\":20:32   */\n      revert\n        /* \"--CODEGEN--\":5:7   */\n    tag_16:\n        /* \"contracts/Auction.sol\":5541:5709  function getPersonDetails(uint id) public constant returns(uint,uint,address){... */\n      pop\n      tag_17\n      0x4\n      dup1\n      calldatasize\n      sub\n      dup2\n      add\n      swap1\n      dup1\n      dup1\n      calldataload\n      swap1\n      0x20\n      add\n      swap1\n      swap3\n      swap2\n      swap1\n      pop\n      pop\n      pop\n      jump(tag_18)\n    tag_17:\n      mload(0x40)\n      dup1\n      dup5\n      dup2\n      mstore\n      0x20\n      add\n      dup4\n      dup2\n      mstore\n      0x20\n      add\n      dup3\n      0xffffffffffffffffffffffffffffffffffffffff\n      and\n      0xffffffffffffffffffffffffffffffffffffffff\n      and\n      dup2\n      mstore\n      0x20\n      add\n      swap4\n      pop\n      pop\n      pop\n      pop\n      mload(0x40)\n      dup1\n      swap2\n      sub\n      swap1\n      return\n        /* \"contracts/Auction.sol\":4349:5439  function revealWinners() public onlyOwner{... */\n    tag_6:\n      callvalue\n        /* \"--CODEGEN--\":8:17   */\n      dup1\n        /* \"--CODEGEN--\":5:7   */\n      iszero\n      tag_19\n      jumpi\n        /* \"--CODEGEN--\":30:31   */\n      0x0\n        /* \"--CODEGEN--\":27:28   */\n      dup1\n        /* \"--CODEGEN--\":20:32   */\n      revert\n        /* \"--CODEGEN--\":5:7   */\n    tag_19:\n        /* \"contracts/Auction.sol\":4349:5439  function revealWinners() public onlyOwner{... */\n      pop\n      tag_20\n      jump(tag_21)\n    tag_20:\n      stop\n        /* \"contracts/Auction.sol\":675:700  address[3] public winners */\n    tag_7:\n      callvalue\n        /* \"--CODEGEN--\":8:17   */\n      dup1\n        /* \"--CODEGEN--\":5:7   */\n      iszero\n      tag_22\n      jumpi\n        /* \"--CODEGEN--\":30:31   */\n      0x0\n        /* \"--CODEGEN--\":27:28   */\n      dup1\n        /* \"--CODEGEN--\":20:32   */\n      revert\n        /* \"--CODEGEN--\":5:7   */\n    tag_22:\n        /* \"contracts/Auction.sol\":675:700  address[3] public winners */\n      pop\n      tag_23\n      0x4\n      dup1\n      calldatasize\n      sub\n      dup2\n      add\n      swap1\n      dup1\n      dup1\n      calldataload\n      swap1\n      0x20\n      add\n      swap1\n      swap3\n      swap2\n      swap1\n      pop\n      pop\n      pop\n      jump(tag_24)\n    tag_23:\n      mload(0x40)\n      dup1\n      dup3\n      0xffffffffffffffffffffffffffffffffffffffff\n      and\n      0xffffffffffffffffffffffffffffffffffffffff\n      and\n      dup2\n      mstore\n      0x20\n      add\n      swap2\n      pop\n      pop\n      mload(0x40)\n      dup1\n      swap2\n      sub\n      swap1\n      return\n        /* \"contracts/Auction.sol\":615:636  Item [3] public items */\n    tag_8:\n      callvalue\n        /* \"--CODEGEN--\":8:17   */\n      dup1\n        /* \"--CODEGEN--\":5:7   */\n      iszero\n      tag_25\n      jumpi\n        /* \"--CODEGEN--\":30:31   */\n      0x0\n        /* \"--CODEGEN--\":27:28   */\n      dup1\n        /* \"--CODEGEN--\":20:32   */\n      revert\n        /* \"--CODEGEN--\":5:7   */\n    tag_25:\n        /* \"contracts/Auction.sol\":615:636  Item [3] public items */\n      pop\n      tag_26\n      0x4\n      dup1\n      calldatasize\n      sub\n      dup2\n      add\n      swap1\n      dup1\n      dup1\n      calldataload\n      swap1\n      0x20\n      add\n      swap1\n      swap3\n      swap2\n      swap1\n      pop\n      pop\n      pop\n      jump(tag_27)\n    tag_26:\n      mload(0x40)\n      dup1\n      dup3\n      dup2\n      mstore\n      0x20\n      add\n      swap2\n      pop\n      pop\n      mload(0x40)\n      dup1\n      swap2\n      sub\n      swap1\n      return\n        /* \"contracts/Auction.sol\":1601:2183  function register() public payable{... */\n    tag_10:\n        /* \"contracts/Auction.sol\":1695:1706  bidderCount */\n      sload(0x17)\n        /* \"contracts/Auction.sol\":1663:1670  bidders */\n      0x1\n        /* \"contracts/Auction.sol\":1671:1682  bidderCount */\n      sload(0x17)\n        /* \"contracts/Auction.sol\":1663:1683  bidders[bidderCount] */\n      0x4\n      dup2\n      lt\n      iszero\n      iszero\n      tag_29\n      jumpi\n      invalid\n    tag_29:\n      0x3\n      mul\n      add\n        /* \"contracts/Auction.sol\":1663:1692  bidders[bidderCount].personId */\n      0x1\n      add\n        /* \"contracts/Auction.sol\":1663:1706  bidders[bidderCount].personId = bidderCount */\n      dup2\n      swap1\n      sstore\n      pop\n        /* \"contracts/Auction.sol\":1981:1991  msg.sender */\n      caller\n        /* \"contracts/Auction.sol\":1953:1960  bidders */\n      0x1\n        /* \"contracts/Auction.sol\":1961:1972  bidderCount */\n      sload(0x17)\n        /* \"contracts/Auction.sol\":1953:1973  bidders[bidderCount] */\n      0x4\n      dup2\n      lt\n      iszero\n      iszero\n      tag_31\n      jumpi\n      invalid\n    tag_31:\n      0x3\n      mul\n      add\n        /* \"contracts/Auction.sol\":1953:1978  bidders[bidderCount].addr */\n      0x2\n      add\n      0x0\n        /* \"contracts/Auction.sol\":1953:1991  bidders[bidderCount].addr = msg.sender */\n      0x100\n      exp\n      dup2\n      sload\n      dup2\n      0xffffffffffffffffffffffffffffffffffffffff\n      mul\n      not\n      and\n      swap1\n      dup4\n      0xffffffffffffffffffffffffffffffffffffffff\n      and\n      mul\n      or\n      swap1\n      sstore\n      pop\n        /* \"contracts/Auction.sol\":2080:2081  5 */\n      0x5\n        /* \"contracts/Auction.sol\":2041:2048  bidders */\n      0x1\n        /* \"contracts/Auction.sol\":2049:2060  bidderCount */\n      sload(0x17)\n        /* \"contracts/Auction.sol\":2041:2061  bidders[bidderCount] */\n      0x4\n      dup2\n      lt\n      iszero\n      iszero\n      tag_33\n      jumpi\n      invalid\n    tag_33:\n      0x3\n      mul\n      add\n        /* \"contracts/Auction.sol\":2041:2077  bidders[bidderCount].remainingTokens */\n      0x0\n      add\n        /* \"contracts/Auction.sol\":2041:2081  bidders[bidderCount].remainingTokens = 5 */\n      dup2\n      swap1\n      sstore\n      pop\n        /* \"contracts/Auction.sol\":2133:2140  bidders */\n      0x1\n        /* \"contracts/Auction.sol\":2141:2152  bidderCount */\n      sload(0x17)\n        /* \"contracts/Auction.sol\":2133:2153  bidders[bidderCount] */\n      0x4\n      dup2\n      lt\n      iszero\n      iszero\n      tag_35\n      jumpi\n      invalid\n    tag_35:\n      0x3\n      mul\n      add\n        /* \"contracts/Auction.sol\":2108:2120  tokenDetails */\n      0x0\n        /* \"contracts/Auction.sol\":2108:2132  tokenDetails[msg.sender] */\n      dup1\n        /* \"contracts/Auction.sol\":2121:2131  msg.sender */\n      caller\n        /* \"contracts/Auction.sol\":2108:2132  tokenDetails[msg.sender] */\n      0xffffffffffffffffffffffffffffffffffffffff\n      and\n      0xffffffffffffffffffffffffffffffffffffffff\n      and\n      dup2\n      mstore\n      0x20\n      add\n      swap1\n      dup2\n      mstore\n      0x20\n      add\n      0x0\n      keccak256\n        /* \"contracts/Auction.sol\":2108:2153  tokenDetails[msg.sender]=bidders[bidderCount] */\n      0x0\n      dup3\n      add\n      sload\n      dup2\n      0x0\n      add\n      sstore\n      0x1\n      dup3\n      add\n      sload\n      dup2\n      0x1\n      add\n      sstore\n      0x2\n      dup3\n      add\n      0x0\n      swap1\n      sload\n      swap1\n      0x100\n      exp\n      swap1\n      div\n      0xffffffffffffffffffffffffffffffffffffffff\n      and\n      dup2\n      0x2\n      add\n      exp(0x100, 0x0)\n      dup2\n      sload\n      dup2\n      0xffffffffffffffffffffffffffffffffffffffff\n      mul\n      not\n      and\n      swap1\n      dup4\n      0xffffffffffffffffffffffffffffffffffffffff\n      and\n      mul\n      or\n      swap1\n      sstore\n      pop\n      swap1\n      pop\n      pop\n        /* \"contracts/Auction.sol\":2163:2174  bidderCount */\n      0x17\n      0x0\n        /* \"contracts/Auction.sol\":2163:2176  bidderCount++ */\n      dup2\n      sload\n      dup1\n      swap3\n      swap2\n      swap1\n      0x1\n      add\n      swap2\n      swap1\n      pop\n      sstore\n      pop\n        /* \"contracts/Auction.sol\":1601:2183  function register() public payable{... */\n      jump\t// out\n        /* \"contracts/Auction.sol\":736:762  address public beneficiary */\n    tag_13:\n      0x16\n      0x0\n      swap1\n      sload\n      swap1\n      0x100\n      exp\n      swap1\n      div\n      0xffffffffffffffffffffffffffffffffffffffff\n      and\n      dup2\n      jump\t// out\n        /* \"contracts/Auction.sol\":2193:3957  function bid(uint _itemId, uint _count) public payable{... */\n    tag_15:\n        /* \"contracts/Auction.sol\":3489:3501  uint balance */\n      0x0\n        /* \"contracts/Auction.sol\":3789:3809  Item storage bidItem */\n      dup1\n        /* \"contracts/Auction.sol\":3840:3846  uint i */\n      0x0\n        /* \"contracts/Auction.sol\":3056:3062  _count */\n      dup4\n        /* \"contracts/Auction.sol\":3013:3025  tokenDetails */\n      0x0\n        /* \"contracts/Auction.sol\":3013:3037  tokenDetails[msg.sender] */\n      dup1\n        /* \"contracts/Auction.sol\":3026:3036  msg.sender */\n      caller\n        /* \"contracts/Auction.sol\":3013:3037  tokenDetails[msg.sender] */\n      0xffffffffffffffffffffffffffffffffffffffff\n      and\n      0xffffffffffffffffffffffffffffffffffffffff\n      and\n      dup2\n      mstore\n      0x20\n      add\n      swap1\n      dup2\n      mstore\n      0x20\n      add\n      0x0\n      keccak256\n        /* \"contracts/Auction.sol\":3013:3053  tokenDetails[msg.sender].remainingTokens */\n      0x0\n      add\n      sload\n        /* \"contracts/Auction.sol\":3013:3062  tokenDetails[msg.sender].remainingTokens < _count */\n      lt\n        /* \"contracts/Auction.sol\":3013:3124  tokenDetails[msg.sender].remainingTokens < _count ... */\n      dup1\n      tag_38\n      jumpi\n      pop\n        /* \"contracts/Auction.sol\":3123:3124  0 */\n      0x0\n        /* \"contracts/Auction.sol\":3079:3091  tokenDetails */\n      dup1\n        /* \"contracts/Auction.sol\":3079:3103  tokenDetails[msg.sender] */\n      0x0\n        /* \"contracts/Auction.sol\":3092:3102  msg.sender */\n      caller\n        /* \"contracts/Auction.sol\":3079:3103  tokenDetails[msg.sender] */\n      0xffffffffffffffffffffffffffffffffffffffff\n      and\n      0xffffffffffffffffffffffffffffffffffffffff\n      and\n      dup2\n      mstore\n      0x20\n      add\n      swap1\n      dup2\n      mstore\n      0x20\n      add\n      0x0\n      keccak256\n        /* \"contracts/Auction.sol\":3079:3119  tokenDetails[msg.sender].remainingTokens */\n      0x0\n      add\n      sload\n        /* \"contracts/Auction.sol\":3079:3124  tokenDetails[msg.sender].remainingTokens == 0 */\n      eq\n        /* \"contracts/Auction.sol\":3013:3124  tokenDetails[msg.sender].remainingTokens < _count ... */\n    tag_38:\n        /* \"contracts/Auction.sol\":3013:3151  tokenDetails[msg.sender].remainingTokens < _count ... */\n      dup1\n      tag_39\n      jumpi\n      pop\n        /* \"contracts/Auction.sol\":3150:3151  2 */\n      0x2\n        /* \"contracts/Auction.sol\":3140:3147  _itemId */\n      dup6\n        /* \"contracts/Auction.sol\":3140:3151  _itemId > 2 */\n      gt\n        /* \"contracts/Auction.sol\":3013:3151  tokenDetails[msg.sender].remainingTokens < _count ... */\n    tag_39:\n        /* \"contracts/Auction.sol\":3009:3161  if (tokenDetails[msg.sender].remainingTokens < _count ... */\n      iszero\n      tag_40\n      jumpi\n        /* \"contracts/Auction.sol\":3153:3161  revert() */\n      0x0\n      dup1\n      revert\n        /* \"contracts/Auction.sol\":3009:3161  if (tokenDetails[msg.sender].remainingTokens < _count ... */\n    tag_40:\n        /* \"contracts/Auction.sol\":3547:3553  _count */\n      dup4\n        /* \"contracts/Auction.sol\":3504:3516  tokenDetails */\n      0x0\n        /* \"contracts/Auction.sol\":3504:3528  tokenDetails[msg.sender] */\n      dup1\n        /* \"contracts/Auction.sol\":3517:3527  msg.sender */\n      caller\n        /* \"contracts/Auction.sol\":3504:3528  tokenDetails[msg.sender] */\n      0xffffffffffffffffffffffffffffffffffffffff\n      and\n      0xffffffffffffffffffffffffffffffffffffffff\n      and\n      dup2\n      mstore\n      0x20\n      add\n      swap1\n      dup2\n      mstore\n      0x20\n      add\n      0x0\n      keccak256\n        /* \"contracts/Auction.sol\":3504:3544  tokenDetails[msg.sender].remainingTokens */\n      0x0\n      add\n      sload\n        /* \"contracts/Auction.sol\":3504:3553  tokenDetails[msg.sender].remainingTokens - _count */\n      sub\n        /* \"contracts/Auction.sol\":3489:3553  uint balance = tokenDetails[msg.sender].remainingTokens - _count */\n      swap3\n      pop\n        /* \"contracts/Auction.sol\":3644:3651  balance */\n      dup3\n        /* \"contracts/Auction.sol\":3603:3615  tokenDetails */\n      0x0\n        /* \"contracts/Auction.sol\":3603:3627  tokenDetails[msg.sender] */\n      dup1\n        /* \"contracts/Auction.sol\":3616:3626  msg.sender */\n      caller\n        /* \"contracts/Auction.sol\":3603:3627  tokenDetails[msg.sender] */\n      0xffffffffffffffffffffffffffffffffffffffff\n      and\n      0xffffffffffffffffffffffffffffffffffffffff\n      and\n      dup2\n      mstore\n      0x20\n      add\n      swap1\n      dup2\n      mstore\n      0x20\n      add\n      0x0\n      keccak256\n        /* \"contracts/Auction.sol\":3603:3643  tokenDetails[msg.sender].remainingTokens */\n      0x0\n      add\n        /* \"contracts/Auction.sol\":3603:3651  tokenDetails[msg.sender].remainingTokens=balance */\n      dup2\n      swap1\n      sstore\n      pop\n        /* \"contracts/Auction.sol\":3720:3727  balance */\n      dup3\n        /* \"contracts/Auction.sol\":3661:3668  bidders */\n      0x1\n        /* \"contracts/Auction.sol\":3669:3681  tokenDetails */\n      0x0\n        /* \"contracts/Auction.sol\":3669:3693  tokenDetails[msg.sender] */\n      dup1\n        /* \"contracts/Auction.sol\":3682:3692  msg.sender */\n      caller\n        /* \"contracts/Auction.sol\":3669:3693  tokenDetails[msg.sender] */\n      0xffffffffffffffffffffffffffffffffffffffff\n      and\n      0xffffffffffffffffffffffffffffffffffffffff\n      and\n      dup2\n      mstore\n      0x20\n      add\n      swap1\n      dup2\n      mstore\n      0x20\n      add\n      0x0\n      keccak256\n        /* \"contracts/Auction.sol\":3669:3702  tokenDetails[msg.sender].personId */\n      0x1\n      add\n      sload\n        /* \"contracts/Auction.sol\":3661:3703  bidders[tokenDetails[msg.sender].personId] */\n      0x4\n      dup2\n      lt\n      iszero\n      iszero\n      tag_41\n      jumpi\n      invalid\n    tag_41:\n      0x3\n      mul\n      add\n        /* \"contracts/Auction.sol\":3661:3719  bidders[tokenDetails[msg.sender].personId].remainingTokens */\n      0x0\n      add\n        /* \"contracts/Auction.sol\":3661:3727  bidders[tokenDetails[msg.sender].personId].remainingTokens=balance */\n      dup2\n      swap1\n      sstore\n      pop\n        /* \"contracts/Auction.sol\":3812:3817  items */\n      0xd\n        /* \"contracts/Auction.sol\":3818:3825  _itemId */\n      dup6\n        /* \"contracts/Auction.sol\":3812:3826  items[_itemId] */\n      0x3\n      dup2\n      lt\n      iszero\n      iszero\n      tag_43\n      jumpi\n      invalid\n    tag_43:\n      0x2\n      mul\n      add\n        /* \"contracts/Auction.sol\":3789:3826  Item storage bidItem = items[_itemId] */\n      swap2\n      pop\n        /* \"contracts/Auction.sol\":3847:3848  0 */\n      0x0\n        /* \"contracts/Auction.sol\":3840:3848  uint i=0 */\n      swap1\n      pop\n        /* \"contracts/Auction.sol\":3836:3951  for(uint i=0; i<_count;i++) {... */\n    tag_45:\n        /* \"contracts/Auction.sol\":3852:3858  _count */\n      dup4\n        /* \"contracts/Auction.sol\":3850:3851  i */\n      dup2\n        /* \"contracts/Auction.sol\":3850:3858  i<_count */\n      lt\n        /* \"contracts/Auction.sol\":3836:3951  for(uint i=0; i<_count;i++) {... */\n      iszero\n      tag_46\n      jumpi\n        /* \"contracts/Auction.sol\":3878:3885  bidItem */\n      dup2\n        /* \"contracts/Auction.sol\":3878:3896  bidItem.itemTokens */\n      0x1\n      add\n        /* \"contracts/Auction.sol\":3902:3914  tokenDetails */\n      0x0\n        /* \"contracts/Auction.sol\":3902:3926  tokenDetails[msg.sender] */\n      dup1\n        /* \"contracts/Auction.sol\":3915:3925  msg.sender */\n      caller\n        /* \"contracts/Auction.sol\":3902:3926  tokenDetails[msg.sender] */\n      0xffffffffffffffffffffffffffffffffffffffff\n      and\n      0xffffffffffffffffffffffffffffffffffffffff\n      and\n      dup2\n      mstore\n      0x20\n      add\n      swap1\n      dup2\n      mstore\n      0x20\n      add\n      0x0\n      keccak256\n        /* \"contracts/Auction.sol\":3902:3935  tokenDetails[msg.sender].personId */\n      0x1\n      add\n      sload\n        /* \"contracts/Auction.sol\":3878:3936  bidItem.itemTokens.push(tokenDetails[msg.sender].personId) */\n      swap1\n      dup1\n        /* \"--CODEGEN--\":39:40   */\n      0x1\n        /* \"--CODEGEN--\":33:36   */\n      dup2\n        /* \"--CODEGEN--\":27:37   */\n      sload\n        /* \"--CODEGEN--\":23:41   */\n      add\n        /* \"--CODEGEN--\":57:67   */\n      dup1\n        /* \"--CODEGEN--\":52:55   */\n      dup3\n        /* \"--CODEGEN--\":45:68   */\n      sstore\n        /* \"--CODEGEN--\":79:89   */\n      dup1\n        /* \"--CODEGEN--\":72:89   */\n      swap2\n      pop\n        /* \"--CODEGEN--\":0:93   */\n      pop\n        /* \"contracts/Auction.sol\":3878:3936  bidItem.itemTokens.push(tokenDetails[msg.sender].personId) */\n      swap1\n      0x1\n      dup3\n      sub\n      swap1\n      0x0\n      mstore\n      keccak256(0x0, 0x20)\n      add\n      0x0\n      swap1\n      swap2\n      swap3\n      swap1\n      swap2\n      swap1\n      swap2\n      pop\n      sstore\n      pop\n        /* \"contracts/Auction.sol\":3859:3862  i++ */\n      dup1\n      dup1\n      0x1\n      add\n      swap2\n      pop\n      pop\n        /* \"contracts/Auction.sol\":3836:3951  for(uint i=0; i<_count;i++) {... */\n      jump(tag_45)\n    tag_46:\n        /* \"contracts/Auction.sol\":2193:3957  function bid(uint _itemId, uint _count) public payable{... */\n      pop\n      pop\n      pop\n      pop\n      pop\n      jump\t// out\n        /* \"contracts/Auction.sol\":5541:5709  function getPersonDetails(uint id) public constant returns(uint,uint,address){... */\n    tag_18:\n        /* \"contracts/Auction.sol\":5600:5604  uint */\n      0x0\n        /* \"contracts/Auction.sol\":5605:5609  uint */\n      dup1\n        /* \"contracts/Auction.sol\":5610:5617  address */\n      0x0\n        /* \"contracts/Auction.sol\":5636:5643  bidders */\n      0x1\n        /* \"contracts/Auction.sol\":5644:5646  id */\n      dup5\n        /* \"contracts/Auction.sol\":5636:5647  bidders[id] */\n      0x4\n      dup2\n      lt\n      iszero\n      iszero\n      tag_50\n      jumpi\n      invalid\n    tag_50:\n      0x3\n      mul\n      add\n        /* \"contracts/Auction.sol\":5636:5663  bidders[id].remainingTokens */\n      0x0\n      add\n      sload\n        /* \"contracts/Auction.sol\":5664:5671  bidders */\n      0x1\n        /* \"contracts/Auction.sol\":5672:5674  id */\n      dup6\n        /* \"contracts/Auction.sol\":5664:5675  bidders[id] */\n      0x4\n      dup2\n      lt\n      iszero\n      iszero\n      tag_52\n      jumpi\n      invalid\n    tag_52:\n      0x3\n      mul\n      add\n        /* \"contracts/Auction.sol\":5664:5684  bidders[id].personId */\n      0x1\n      add\n      sload\n        /* \"contracts/Auction.sol\":5685:5692  bidders */\n      0x1\n        /* \"contracts/Auction.sol\":5693:5695  id */\n      dup7\n        /* \"contracts/Auction.sol\":5685:5696  bidders[id] */\n      0x4\n      dup2\n      lt\n      iszero\n      iszero\n      tag_54\n      jumpi\n      invalid\n    tag_54:\n      0x3\n      mul\n      add\n        /* \"contracts/Auction.sol\":5685:5701  bidders[id].addr */\n      0x2\n      add\n      0x0\n      swap1\n      sload\n      swap1\n      0x100\n      exp\n      swap1\n      div\n      0xffffffffffffffffffffffffffffffffffffffff\n      and\n        /* \"contracts/Auction.sol\":5628:5702  return (bidders[id].remainingTokens,bidders[id].personId,bidders[id].addr) */\n      swap3\n      pop\n      swap3\n      pop\n      swap3\n      pop\n        /* \"contracts/Auction.sol\":5541:5709  function getPersonDetails(uint id) public constant returns(uint,uint,address){... */\n      swap2\n      swap4\n      swap1\n      swap3\n      pop\n      jump\t// out\n        /* \"contracts/Auction.sol\":4349:5439  function revealWinners() public onlyOwner{... */\n    tag_21:\n        /* \"contracts/Auction.sol\":4581:4588  uint id */\n      0x0\n        /* \"contracts/Auction.sol\":4622:4646  Item storage currentItem */\n      dup1\n        /* \"contracts/Auction.sol\":4773:4789  uint randomIndex */\n      0x0\n        /* \"contracts/Auction.sol\":4927:4940  uint winnerId */\n      dup1\n        /* \"contracts/Auction.sol\":4273:4284  beneficiary */\n      0x16\n      0x0\n      swap1\n      sload\n      swap1\n      0x100\n      exp\n      swap1\n      div\n      0xffffffffffffffffffffffffffffffffffffffff\n      and\n        /* \"contracts/Auction.sol\":4259:4284  msg.sender == beneficiary */\n      0xffffffffffffffffffffffffffffffffffffffff\n      and\n        /* \"contracts/Auction.sol\":4259:4269  msg.sender */\n      caller\n        /* \"contracts/Auction.sol\":4259:4284  msg.sender == beneficiary */\n      0xffffffffffffffffffffffffffffffffffffffff\n      and\n      eq\n        /* \"contracts/Auction.sol\":4250:4285  require (msg.sender == beneficiary) */\n      iszero\n      iszero\n      tag_57\n      jumpi\n      0x0\n      dup1\n      revert\n    tag_57:\n        /* \"contracts/Auction.sol\":4591:4592  0 */\n      0x0\n        /* \"contracts/Auction.sol\":4581:4592  uint id = 0 */\n      swap4\n      pop\n        /* \"contracts/Auction.sol\":4576:5433  for (uint id = 0; id < 3; id++) {... */\n    tag_59:\n        /* \"contracts/Auction.sol\":4599:4600  3 */\n      0x3\n        /* \"contracts/Auction.sol\":4594:4596  id */\n      dup5\n        /* \"contracts/Auction.sol\":4594:4600  id < 3 */\n      lt\n        /* \"contracts/Auction.sol\":4576:5433  for (uint id = 0; id < 3; id++) {... */\n      iszero\n      tag_60\n      jumpi\n        /* \"contracts/Auction.sol\":4647:4652  items */\n      0xd\n        /* \"contracts/Auction.sol\":4653:4655  id */\n      dup5\n        /* \"contracts/Auction.sol\":4647:4656  items[id] */\n      0x3\n      dup2\n      lt\n      iszero\n      iszero\n      tag_62\n      jumpi\n      invalid\n    tag_62:\n      0x2\n      mul\n      add\n        /* \"contracts/Auction.sol\":4622:4656  Item storage currentItem=items[id] */\n      swap3\n      pop\n        /* \"contracts/Auction.sol\":4706:4707  0 */\n      0x0\n        /* \"contracts/Auction.sol\":4673:4684  currentItem */\n      dup4\n        /* \"contracts/Auction.sol\":4673:4695  currentItem.itemTokens */\n      0x1\n      add\n        /* \"contracts/Auction.sol\":4673:4702  currentItem.itemTokens.length */\n      dup1\n      sload\n      swap1\n      pop\n        /* \"contracts/Auction.sol\":4673:4707  currentItem.itemTokens.length != 0 */\n      eq\n      iszero\n        /* \"contracts/Auction.sol\":4670:5423  if(currentItem.itemTokens.length != 0){... */\n      iszero\n      tag_64\n      jumpi\n        /* \"contracts/Auction.sol\":4840:4851  currentItem */\n      dup3\n        /* \"contracts/Auction.sol\":4840:4862  currentItem.itemTokens */\n      0x1\n      add\n        /* \"contracts/Auction.sol\":4840:4869  currentItem.itemTokens.length */\n      dup1\n      sload\n      swap1\n      pop\n        /* \"contracts/Auction.sol\":4808:4819  currentItem */\n      dup4\n        /* \"contracts/Auction.sol\":4808:4830  currentItem.itemTokens */\n      0x1\n      add\n        /* \"contracts/Auction.sol\":4808:4837  currentItem.itemTokens.length */\n      dup1\n      sload\n      swap1\n      pop\n        /* \"contracts/Auction.sol\":4793:4805  block.number */\n      number\n        /* \"contracts/Auction.sol\":4793:4837  block.number / currentItem.itemTokens.length */\n      dup2\n      iszero\n      iszero\n      tag_65\n      jumpi\n      invalid\n    tag_65:\n      div\n        /* \"contracts/Auction.sol\":4792:4869  (block.number / currentItem.itemTokens.length)% currentItem.itemTokens.length */\n      dup2\n      iszero\n      iszero\n      tag_66\n      jumpi\n      invalid\n    tag_66:\n      mod\n        /* \"contracts/Auction.sol\":4773:4869  uint randomIndex = (block.number / currentItem.itemTokens.length)% currentItem.itemTokens.length */\n      swap2\n      pop\n        /* \"contracts/Auction.sol\":4943:4954  currentItem */\n      dup3\n        /* \"contracts/Auction.sol\":4943:4965  currentItem.itemTokens */\n      0x1\n      add\n        /* \"contracts/Auction.sol\":4966:4977  randomIndex */\n      dup3\n        /* \"contracts/Auction.sol\":4943:4978  currentItem.itemTokens[randomIndex] */\n      dup2\n      sload\n      dup2\n      lt\n      iszero\n      iszero\n      tag_67\n      jumpi\n      invalid\n    tag_67:\n      swap1\n      0x0\n      mstore\n      keccak256(0x0, 0x20)\n      add\n      sload\n        /* \"contracts/Auction.sol\":4927:4978  uint winnerId = currentItem.itemTokens[randomIndex] */\n      swap1\n      pop\n        /* \"contracts/Auction.sol\":5316:5323  bidders */\n      0x1\n        /* \"contracts/Auction.sol\":5324:5332  winnerId */\n      dup2\n        /* \"contracts/Auction.sol\":5316:5333  bidders[winnerId] */\n      0x4\n      dup2\n      lt\n      iszero\n      iszero\n      tag_69\n      jumpi\n      invalid\n    tag_69:\n      0x3\n      mul\n      add\n        /* \"contracts/Auction.sol\":5316:5338  bidders[winnerId].addr */\n      0x2\n      add\n      0x0\n      swap1\n      sload\n      swap1\n      0x100\n      exp\n      swap1\n      div\n      0xffffffffffffffffffffffffffffffffffffffff\n      and\n        /* \"contracts/Auction.sol\":5302:5309  winners */\n      0x13\n        /* \"contracts/Auction.sol\":5310:5312  id */\n      dup6\n        /* \"contracts/Auction.sol\":5302:5313  winners[id] */\n      0x3\n      dup2\n      lt\n      iszero\n      iszero\n      tag_71\n      jumpi\n      invalid\n    tag_71:\n      add\n      0x0\n        /* \"contracts/Auction.sol\":5302:5338  winners[id] = bidders[winnerId].addr */\n      0x100\n      exp\n      dup2\n      sload\n      dup2\n      0xffffffffffffffffffffffffffffffffffffffff\n      mul\n      not\n      and\n      swap1\n      dup4\n      0xffffffffffffffffffffffffffffffffffffffff\n      and\n      mul\n      or\n      swap1\n      sstore\n      pop\n        /* \"contracts/Auction.sol\":4670:5423  if(currentItem.itemTokens.length != 0){... */\n    tag_64:\n        /* \"contracts/Auction.sol\":4602:4606  id++ */\n      dup4\n      dup1\n      0x1\n      add\n      swap5\n      pop\n      pop\n        /* \"contracts/Auction.sol\":4576:5433  for (uint id = 0; id < 3; id++) {... */\n      jump(tag_59)\n    tag_60:\n        /* \"contracts/Auction.sol\":4349:5439  function revealWinners() public onlyOwner{... */\n      pop\n      pop\n      pop\n      pop\n      jump\t// out\n        /* \"contracts/Auction.sol\":675:700  address[3] public winners */\n    tag_24:\n      0x13\n      dup2\n      0x3\n      dup2\n      lt\n      iszero\n      iszero\n      tag_73\n      jumpi\n      invalid\n    tag_73:\n      add\n      0x0\n      swap2\n      pop\n      sload\n      swap1\n      0x100\n      exp\n      swap1\n      div\n      0xffffffffffffffffffffffffffffffffffffffff\n      and\n      dup2\n      jump\t// out\n        /* \"contracts/Auction.sol\":615:636  Item [3] public items */\n    tag_27:\n      0xd\n      dup2\n      0x3\n      dup2\n      lt\n      iszero\n      iszero\n      tag_75\n      jumpi\n      invalid\n    tag_75:\n      0x2\n      mul\n      add\n      0x0\n      swap2\n      pop\n      swap1\n      pop\n      dup1\n      0x0\n      add\n      sload\n      swap1\n      pop\n      dup2\n      jump\t// out\n\n    auxdata: 0xa165627a7a7230582068ffd04c9b4d691e7d46296c89f20f97a5c20e58fed25c7b183be57d7cdcec550029\n}\n",
				"bytecode": {
					"linkReferences": {},
					"object": "60806040526000601755606033601660006101000a81548173ffffffffffffffffffffffffffffffffffffffff021916908373ffffffffffffffffffffffffffffffffffffffff16021790555060408051908101604052806000815260200182815250600d600060038110151561007257fe5b6002020160008201518160000155602082015181600101908051906020019061009c92919061014e565b5090505060408051908101604052806001815260200182815250600d60016003811015156100c657fe5b600202016000820151816000015560208201518160010190805190602001906100f092919061014e565b5090505060408051908101604052806002815260200182815250600d600260038110151561011a57fe5b6002020160008201518160000155602082015181600101908051906020019061014492919061014e565b50905050506101c0565b82805482825590600052602060002090810192821561018a579160200282015b8281111561018957825182559160200191906001019061016e565b5b509050610197919061019b565b5090565b6101bd91905b808211156101b95760008160009055506001016101a1565b5090565b90565b610898806101cf6000396000f300608060405260043610610083576000357c0100000000000000000000000000000000000000000000000000000000900463ffffffff1680631aa3a0081461008857806338af3eed14610092578063598647f8146100e95780636098170514610113578063952587d61461018e578063a2fb1175146101a5578063bfb231d214610212575b600080fd5b610090610253565b005b34801561009e57600080fd5b506100a76103cc565b604051808273ffffffffffffffffffffffffffffffffffffffff1673ffffffffffffffffffffffffffffffffffffffff16815260200191505060405180910390f35b61011160048036038101908080359060200190929190803590602001909291905050506103f2565b005b34801561011f57600080fd5b5061013e60048036038101908080359060200190929190505050610629565b604051808481526020018381526020018273ffffffffffffffffffffffffffffffffffffffff1673ffffffffffffffffffffffffffffffffffffffff168152602001935050505060405180910390f35b34801561019a57600080fd5b506101a36106a0565b005b3480156101b157600080fd5b506101d060048036038101908080359060200190929190505050610814565b604051808273ffffffffffffffffffffffffffffffffffffffff1673ffffffffffffffffffffffffffffffffffffffff16815260200191505060405180910390f35b34801561021e57600080fd5b5061023d60048036038101908080359060200190929190505050610849565b6040518082815260200191505060405180910390f35b601754600160175460048110151561026757fe5b600302016001018190555033600160175460048110151561028457fe5b6003020160020160006101000a81548173ffffffffffffffffffffffffffffffffffffffff021916908373ffffffffffffffffffffffffffffffffffffffff160217905550600560016017546004811015156102dc57fe5b600302016000018190555060016017546004811015156102f857fe5b600302016000803373ffffffffffffffffffffffffffffffffffffffff1673ffffffffffffffffffffffffffffffffffffffff16815260200190815260200160002060008201548160000155600182015481600101556002820160009054906101000a900473ffffffffffffffffffffffffffffffffffffffff168160020160006101000a81548173ffffffffffffffffffffffffffffffffffffffff021916908373ffffffffffffffffffffffffffffffffffffffff160217905550905050601760008154809291906001019190505550565b601660009054906101000a900473ffffffffffffffffffffffffffffffffffffffff1681565b6000806000836000803373ffffffffffffffffffffffffffffffffffffffff1673ffffffffffffffffffffffffffffffffffffffff168152602001908152602001600020600001541080610487575060008060003373ffffffffffffffffffffffffffffffffffffffff1673ffffffffffffffffffffffffffffffffffffffff16815260200190815260200160002060000154145b806104925750600285115b1561049c57600080fd5b836000803373ffffffffffffffffffffffffffffffffffffffff1673ffffffffffffffffffffffffffffffffffffffff16815260200190815260200160002060000154039250826000803373ffffffffffffffffffffffffffffffffffffffff1673ffffffffffffffffffffffffffffffffffffffff168152602001908152602001600020600001819055508260016000803373ffffffffffffffffffffffffffffffffffffffff1673ffffffffffffffffffffffffffffffffffffffff1681526020019081526020016000206001015460048110151561057957fe5b6003020160000181905550600d8560038110151561059357fe5b600202019150600090505b8381101561062257816001016000803373ffffffffffffffffffffffffffffffffffffffff1673ffffffffffffffffffffffffffffffffffffffff168152602001908152602001600020600101549080600181540180825580915050906001820390600052602060002001600090919290919091505550808060010191505061059e565b5050505050565b600080600060018460048110151561063d57fe5b600302016000015460018560048110151561065457fe5b600302016001015460018660048110151561066b57fe5b6003020160020160009054906101000a900473ffffffffffffffffffffffffffffffffffffffff169250925092509193909250565b600080600080601660009054906101000a900473ffffffffffffffffffffffffffffffffffffffff1673ffffffffffffffffffffffffffffffffffffffff163373ffffffffffffffffffffffffffffffffffffffff1614151561070257600080fd5b600093505b600384101561080e57600d8460038110151561071f57fe5b6002020192506000836001018054905014151561080157826001018054905083600101805490504381151561075057fe5b0481151561075a57fe5b069150826001018281548110151561076e57fe5b9060005260206000200154905060018160048110151561078a57fe5b6003020160020160009054906101000a900473ffffffffffffffffffffffffffffffffffffffff166013856003811015156107c157fe5b0160006101000a81548173ffffffffffffffffffffffffffffffffffffffff021916908373ffffffffffffffffffffffffffffffffffffffff1602179055505b8380600101945050610707565b50505050565b60138160038110151561082357fe5b016000915054906101000a900473ffffffffffffffffffffffffffffffffffffffff1681565b600d8160038110151561085857fe5b6002020160009150905080600001549050815600a165627a7a7230582068ffd04c9b4d691e7d46296c89f20f97a5c20e58fed25c7b183be57d7cdcec550029",
					"opcodes": "PUSH1 0x80 PUSH1 0x40 MSTORE PUSH1 0x0 PUSH1 0x17 SSTORE PUSH1 0x60 CALLER PUSH1 0x16 PUSH1 0x0 PUSH2 0x100 EXP DUP2 SLOAD DUP2 PUSH20 0xFFFFFFFFFFFFFFFFFFFFFFFFFFFFFFFFFFFFFFFF MUL NOT AND SWAP1 DUP4 PUSH20 0xFFFFFFFFFFFFFFFFFFFFFFFFFFFFFFFFFFFFFFFF AND MUL OR SWAP1 SSTORE POP PUSH1 0x40 DUP1 MLOAD SWAP1 DUP2 ADD PUSH1 0x40 MSTORE DUP1 PUSH1 0x0 DUP2 MSTORE PUSH1 0x20 ADD DUP3 DUP2 MSTORE POP PUSH1 0xD PUSH1 0x0 PUSH1 0x3 DUP2 LT ISZERO ISZERO PUSH2 0x72 JUMPI INVALID JUMPDEST PUSH1 0x2 MUL ADD PUSH1 0x0 DUP3 ADD MLOAD DUP2 PUSH1 0x0 ADD SSTORE PUSH1 0x20 DUP3 ADD MLOAD DUP2 PUSH1 0x1 ADD SWAP1 DUP1 MLOAD SWAP1 PUSH1 0x20 ADD SWAP1 PUSH2 0x9C SWAP3 SWAP2 SWAP1 PUSH2 0x14E JUMP JUMPDEST POP SWAP1 POP POP PUSH1 0x40 DUP1 MLOAD SWAP1 DUP2 ADD PUSH1 0x40 MSTORE DUP1 PUSH1 0x1 DUP2 MSTORE PUSH1 0x20 ADD DUP3 DUP2 MSTORE POP PUSH1 0xD PUSH1 0x1 PUSH1 0x3 DUP2 LT ISZERO ISZERO PUSH2 0xC6 JUMPI INVALID JUMPDEST PUSH1 0x2 MUL ADD PUSH1 0x0 DUP3 ADD MLOAD DUP2 PUSH1 0x0 ADD SSTORE PUSH1 0x20 DUP3 ADD MLOAD DUP2 PUSH1 0x1 ADD SWAP1 DUP1 MLOAD SWAP1 PUSH1 0x20 ADD SWAP1 PUSH2 0xF0 SWAP3 SWAP2 SWAP1 PUSH2 0x14E JUMP JUMPDEST POP SWAP1 POP POP PUSH1 0x40 DUP1 MLOAD SWAP1 DUP2 ADD PUSH1 0x40 MSTORE DUP1 PUSH1 0x2 DUP2 MSTORE PUSH1 0x20 ADD DUP3 DUP2 MSTORE POP PUSH1 0xD PUSH1 0x2 PUSH1 0x3 DUP2 LT ISZERO ISZERO PUSH2 0x11A JUMPI INVALID JUMPDEST PUSH1 0x2 MUL ADD PUSH1 0x0 DUP3 ADD MLOAD DUP2 PUSH1 0x0 ADD SSTORE PUSH1 0x20 DUP3 ADD MLOAD DUP2 PUSH1 0x1 ADD SWAP1 DUP1 MLOAD SWAP1 PUSH1 0x20 ADD SWAP1 PUSH2 0x144 SWAP3 SWAP2 SWAP1 PUSH2 0x14E JUMP JUMPDEST POP SWAP1 POP POP POP PUSH2 0x1C0 JUMP JUMPDEST DUP3 DUP1 SLOAD DUP3 DUP3 SSTORE SWAP1 PUSH1 0x0 MSTORE PUSH1 0x20 PUSH1 0x0 KECCAK256 SWAP1 DUP2 ADD SWAP3 DUP3 ISZERO PUSH2 0x18A JUMPI SWAP2 PUSH1 0x20 MUL DUP3 ADD JUMPDEST DUP3 DUP2 GT ISZERO PUSH2 0x189 JUMPI DUP3 MLOAD DUP3 SSTORE SWAP2 PUSH1 0x20 ADD SWAP2 SWAP1 PUSH1 0x1 ADD SWAP1 PUSH2 0x16E JUMP JUMPDEST JUMPDEST POP SWAP1 POP PUSH2 0x197 SWAP2 SWAP1 PUSH2 0x19B JUMP JUMPDEST POP SWAP1 JUMP JUMPDEST PUSH2 0x1BD SWAP2 SWAP1 JUMPDEST DUP1 DUP3 GT ISZERO PUSH2 0x1B9 JUMPI PUSH1 0x0 DUP2 PUSH1 0x0 SWAP1 SSTORE POP PUSH1 0x1 ADD PUSH2 0x1A1 JUMP JUMPDEST POP SWAP1 JUMP JUMPDEST SWAP1 JUMP JUMPDEST PUSH2 0x898 DUP1 PUSH2 0x1CF PUSH1 0x0 CODECOPY PUSH1 0x0 RETURN STOP PUSH1 0x80 PUSH1 0x40 MSTORE PUSH1 0x4 CALLDATASIZE LT PUSH2 0x83 JUMPI PUSH1 0x0 CALLDATALOAD PUSH29 0x100000000000000000000000000000000000000000000000000000000 SWAP1 DIV PUSH4 0xFFFFFFFF AND DUP1 PUSH4 0x1AA3A008 EQ PUSH2 0x88 JUMPI DUP1 PUSH4 0x38AF3EED EQ PUSH2 0x92 JUMPI DUP1 PUSH4 0x598647F8 EQ PUSH2 0xE9 JUMPI DUP1 PUSH4 0x60981705 EQ PUSH2 0x113 JUMPI DUP1 PUSH4 0x952587D6 EQ PUSH2 0x18E JUMPI DUP1 PUSH4 0xA2FB1175 EQ PUSH2 0x1A5 JUMPI DUP1 PUSH4 0xBFB231D2 EQ PUSH2 0x212 JUMPI JUMPDEST PUSH1 0x0 DUP1 REVERT JUMPDEST PUSH2 0x90 PUSH2 0x253 JUMP JUMPDEST STOP JUMPDEST CALLVALUE DUP1 ISZERO PUSH2 0x9E JUMPI PUSH1 0x0 DUP1 REVERT JUMPDEST POP PUSH2 0xA7 PUSH2 0x3CC JUMP JUMPDEST PUSH1 0x40 MLOAD DUP1 DUP3 PUSH20 0xFFFFFFFFFFFFFFFFFFFFFFFFFFFFFFFFFFFFFFFF AND PUSH20 0xFFFFFFFFFFFFFFFFFFFFFFFFFFFFFFFFFFFFFFFF AND DUP2 MSTORE PUSH1 0x20 ADD SWAP2 POP POP PUSH1 0x40 MLOAD DUP1 SWAP2 SUB SWAP1 RETURN JUMPDEST PUSH2 0x111 PUSH1 0x4 DUP1 CALLDATASIZE SUB DUP2 ADD SWAP1 DUP1 DUP1 CALLDATALOAD SWAP1 PUSH1 0x20 ADD SWAP1 SWAP3 SWAP2 SWAP1 DUP1 CALLDATALOAD SWAP1 PUSH1 0x20 ADD SWAP1 SWAP3 SWAP2 SWAP1 POP POP POP PUSH2 0x3F2 JUMP JUMPDEST STOP JUMPDEST CALLVALUE DUP1 ISZERO PUSH2 0x11F JUMPI PUSH1 0x0 DUP1 REVERT JUMPDEST POP PUSH2 0x13E PUSH1 0x4 DUP1 CALLDATASIZE SUB DUP2 ADD SWAP1 DUP1 DUP1 CALLDATALOAD SWAP1 PUSH1 0x20 ADD SWAP1 SWAP3 SWAP2 SWAP1 POP POP POP PUSH2 0x629 JUMP JUMPDEST PUSH1 0x40 MLOAD DUP1 DUP5 DUP2 MSTORE PUSH1 0x20 ADD DUP4 DUP2 MSTORE PUSH1 0x20 ADD DUP3 PUSH20 0xFFFFFFFFFFFFFFFFFFFFFFFFFFFFFFFFFFFFFFFF AND PUSH20 0xFFFFFFFFFFFFFFFFFFFFFFFFFFFFFFFFFFFFFFFF AND DUP2 MSTORE PUSH1 0x20 ADD SWAP4 POP POP POP POP PUSH1 0x40 MLOAD DUP1 SWAP2 SUB SWAP1 RETURN JUMPDEST CALLVALUE DUP1 ISZERO PUSH2 0x19A JUMPI PUSH1 0x0 DUP1 REVERT JUMPDEST POP PUSH2 0x1A3 PUSH2 0x6A0 JUMP JUMPDEST STOP JUMPDEST CALLVALUE DUP1 ISZERO PUSH2 0x1B1 JUMPI PUSH1 0x0 DUP1 REVERT JUMPDEST POP PUSH2 0x1D0 PUSH1 0x4 DUP1 CALLDATASIZE SUB DUP2 ADD SWAP1 DUP1 DUP1 CALLDATALOAD SWAP1 PUSH1 0x20 ADD SWAP1 SWAP3 SWAP2 SWAP1 POP POP POP PUSH2 0x814 JUMP JUMPDEST PUSH1 0x40 MLOAD DUP1 DUP3 PUSH20 0xFFFFFFFFFFFFFFFFFFFFFFFFFFFFFFFFFFFFFFFF AND PUSH20 0xFFFFFFFFFFFFFFFFFFFFFFFFFFFFFFFFFFFFFFFF AND DUP2 MSTORE PUSH1 0x20 ADD SWAP2 POP POP PUSH1 0x40 MLOAD DUP1 SWAP2 SUB SWAP1 RETURN JUMPDEST CALLVALUE DUP1 ISZERO PUSH2 0x21E JUMPI PUSH1 0x0 DUP1 REVERT JUMPDEST POP PUSH2 0x23D PUSH1 0x4 DUP1 CALLDATASIZE SUB DUP2 ADD SWAP1 DUP1 DUP1 CALLDATALOAD SWAP1 PUSH1 0x20 ADD SWAP1 SWAP3 SWAP2 SWAP1 POP POP POP PUSH2 0x849 JUMP JUMPDEST PUSH1 0x40 MLOAD DUP1 DUP3 DUP2 MSTORE PUSH1 0x20 ADD SWAP2 POP POP PUSH1 0x40 MLOAD DUP1 SWAP2 SUB SWAP1 RETURN JUMPDEST PUSH1 0x17 SLOAD PUSH1 0x1 PUSH1 0x17 SLOAD PUSH1 0x4 DUP2 LT ISZERO ISZERO PUSH2 0x267 JUMPI INVALID JUMPDEST PUSH1 0x3 MUL ADD PUSH1 0x1 ADD DUP2 SWAP1 SSTORE POP CALLER PUSH1 0x1 PUSH1 0x17 SLOAD PUSH1 0x4 DUP2 LT ISZERO ISZERO PUSH2 0x284 JUMPI INVALID JUMPDEST PUSH1 0x3 MUL ADD PUSH1 0x2 ADD PUSH1 0x0 PUSH2 0x100 EXP DUP2 SLOAD DUP2 PUSH20 0xFFFFFFFFFFFFFFFFFFFFFFFFFFFFFFFFFFFFFFFF MUL NOT AND SWAP1 DUP4 PUSH20 0xFFFFFFFFFFFFFFFFFFFFFFFFFFFFFFFFFFFFFFFF AND MUL OR SWAP1 SSTORE POP PUSH1 0x5 PUSH1 0x1 PUSH1 0x17 SLOAD PUSH1 0x4 DUP2 LT ISZERO ISZERO PUSH2 0x2DC JUMPI INVALID JUMPDEST PUSH1 0x3 MUL ADD PUSH1 0x0 ADD DUP2 SWAP1 SSTORE POP PUSH1 0x1 PUSH1 0x17 SLOAD PUSH1 0x4 DUP2 LT ISZERO ISZERO PUSH2 0x2F8 JUMPI INVALID JUMPDEST PUSH1 0x3 MUL ADD PUSH1 0x0 DUP1 CALLER PUSH20 0xFFFFFFFFFFFFFFFFFFFFFFFFFFFFFFFFFFFFFFFF AND PUSH20 0xFFFFFFFFFFFFFFFFFFFFFFFFFFFFFFFFFFFFFFFF AND DUP2 MSTORE PUSH1 0x20 ADD SWAP1 DUP2 MSTORE PUSH1 0x20 ADD PUSH1 0x0 KECCAK256 PUSH1 0x0 DUP3 ADD SLOAD DUP2 PUSH1 0x0 ADD SSTORE PUSH1 0x1 DUP3 ADD SLOAD DUP2 PUSH1 0x1 ADD SSTORE PUSH1 0x2 DUP3 ADD PUSH1 0x0 SWAP1 SLOAD SWAP1 PUSH2 0x100 EXP SWAP1 DIV PUSH20 0xFFFFFFFFFFFFFFFFFFFFFFFFFFFFFFFFFFFFFFFF AND DUP2 PUSH1 0x2 ADD PUSH1 0x0 PUSH2 0x100 EXP DUP2 SLOAD DUP2 PUSH20 0xFFFFFFFFFFFFFFFFFFFFFFFFFFFFFFFFFFFFFFFF MUL NOT AND SWAP1 DUP4 PUSH20 0xFFFFFFFFFFFFFFFFFFFFFFFFFFFFFFFFFFFFFFFF AND MUL OR SWAP1 SSTORE POP SWAP1 POP POP PUSH1 0x17 PUSH1 0x0 DUP2 SLOAD DUP1 SWAP3 SWAP2 SWAP1 PUSH1 0x1 ADD SWAP2 SWAP1 POP SSTORE POP JUMP JUMPDEST PUSH1 0x16 PUSH1 0x0 SWAP1 SLOAD SWAP1 PUSH2 0x100 EXP SWAP1 DIV PUSH20 0xFFFFFFFFFFFFFFFFFFFFFFFFFFFFFFFFFFFFFFFF AND DUP2 JUMP JUMPDEST PUSH1 0x0 DUP1 PUSH1 0x0 DUP4 PUSH1 0x0 DUP1 CALLER PUSH20 0xFFFFFFFFFFFFFFFFFFFFFFFFFFFFFFFFFFFFFFFF AND PUSH20 0xFFFFFFFFFFFFFFFFFFFFFFFFFFFFFFFFFFFFFFFF AND DUP2 MSTORE PUSH1 0x20 ADD SWAP1 DUP2 MSTORE PUSH1 0x20 ADD PUSH1 0x0 KECCAK256 PUSH1 0x0 ADD SLOAD LT DUP1 PUSH2 0x487 JUMPI POP PUSH1 0x0 DUP1 PUSH1 0x0 CALLER PUSH20 0xFFFFFFFFFFFFFFFFFFFFFFFFFFFFFFFFFFFFFFFF AND PUSH20 0xFFFFFFFFFFFFFFFFFFFFFFFFFFFFFFFFFFFFFFFF AND DUP2 MSTORE PUSH1 0x20 ADD SWAP1 DUP2 MSTORE PUSH1 0x20 ADD PUSH1 0x0 KECCAK256 PUSH1 0x0 ADD SLOAD EQ JUMPDEST DUP1 PUSH2 0x492 JUMPI POP PUSH1 0x2 DUP6 GT JUMPDEST ISZERO PUSH2 0x49C JUMPI PUSH1 0x0 DUP1 REVERT JUMPDEST DUP4 PUSH1 0x0 DUP1 CALLER PUSH20 0xFFFFFFFFFFFFFFFFFFFFFFFFFFFFFFFFFFFFFFFF AND PUSH20 0xFFFFFFFFFFFFFFFFFFFFFFFFFFFFFFFFFFFFFFFF AND DUP2 MSTORE PUSH1 0x20 ADD SWAP1 DUP2 MSTORE PUSH1 0x20 ADD PUSH1 0x0 KECCAK256 PUSH1 0x0 ADD SLOAD SUB SWAP3 POP DUP3 PUSH1 0x0 DUP1 CALLER PUSH20 0xFFFFFFFFFFFFFFFFFFFFFFFFFFFFFFFFFFFFFFFF AND PUSH20 0xFFFFFFFFFFFFFFFFFFFFFFFFFFFFFFFFFFFFFFFF AND DUP2 MSTORE PUSH1 0x20 ADD SWAP1 DUP2 MSTORE PUSH1 0x20 ADD PUSH1 0x0 KECCAK256 PUSH1 0x0 ADD DUP2 SWAP1 SSTORE POP DUP3 PUSH1 0x1 PUSH1 0x0 DUP1 CALLER PUSH20 0xFFFFFFFFFFFFFFFFFFFFFFFFFFFFFFFFFFFFFFFF AND PUSH20 0xFFFFFFFFFFFFFFFFFFFFFFFFFFFFFFFFFFFFFFFF AND DUP2 MSTORE PUSH1 0x20 ADD SWAP1 DUP2 MSTORE PUSH1 0x20 ADD PUSH1 0x0 KECCAK256 PUSH1 0x1 ADD SLOAD PUSH1 0x4 DUP2 LT ISZERO ISZERO PUSH2 0x579 JUMPI INVALID JUMPDEST PUSH1 0x3 MUL ADD PUSH1 0x0 ADD DUP2 SWAP1 SSTORE POP PUSH1 0xD DUP6 PUSH1 0x3 DUP2 LT ISZERO ISZERO PUSH2 0x593 JUMPI INVALID JUMPDEST PUSH1 0x2 MUL ADD SWAP2 POP PUSH1 0x0 SWAP1 POP JUMPDEST DUP4 DUP2 LT ISZERO PUSH2 0x622 JUMPI DUP2 PUSH1 0x1 ADD PUSH1 0x0 DUP1 CALLER PUSH20 0xFFFFFFFFFFFFFFFFFFFFFFFFFFFFFFFFFFFFFFFF AND PUSH20 0xFFFFFFFFFFFFFFFFFFFFFFFFFFFFFFFFFFFFFFFF AND DUP2 MSTORE PUSH1 0x20 ADD SWAP1 DUP2 MSTORE PUSH1 0x20 ADD PUSH1 0x0 KECCAK256 PUSH1 0x1 ADD SLOAD SWAP1 DUP1 PUSH1 0x1 DUP2 SLOAD ADD DUP1 DUP3 SSTORE DUP1 SWAP2 POP POP SWAP1 PUSH1 0x1 DUP3 SUB SWAP1 PUSH1 0x0 MSTORE PUSH1 0x20 PUSH1 0x0 KECCAK256 ADD PUSH1 0x0 SWAP1 SWAP2 SWAP3 SWAP1 SWAP2 SWAP1 SWAP2 POP SSTORE POP DUP1 DUP1 PUSH1 0x1 ADD SWAP2 POP POP PUSH2 0x59E JUMP JUMPDEST POP POP POP POP POP JUMP JUMPDEST PUSH1 0x0 DUP1 PUSH1 0x0 PUSH1 0x1 DUP5 PUSH1 0x4 DUP2 LT ISZERO ISZERO PUSH2 0x63D JUMPI INVALID JUMPDEST PUSH1 0x3 MUL ADD PUSH1 0x0 ADD SLOAD PUSH1 0x1 DUP6 PUSH1 0x4 DUP2 LT ISZERO ISZERO PUSH2 0x654 JUMPI INVALID JUMPDEST PUSH1 0x3 MUL ADD PUSH1 0x1 ADD SLOAD PUSH1 0x1 DUP7 PUSH1 0x4 DUP2 LT ISZERO ISZERO PUSH2 0x66B JUMPI INVALID JUMPDEST PUSH1 0x3 MUL ADD PUSH1 0x2 ADD PUSH1 0x0 SWAP1 SLOAD SWAP1 PUSH2 0x100 EXP SWAP1 DIV PUSH20 0xFFFFFFFFFFFFFFFFFFFFFFFFFFFFFFFFFFFFFFFF AND SWAP3 POP SWAP3 POP SWAP3 POP SWAP2 SWAP4 SWAP1 SWAP3 POP JUMP JUMPDEST PUSH1 0x0 DUP1 PUSH1 0x0 DUP1 PUSH1 0x16 PUSH1 0x0 SWAP1 SLOAD SWAP1 PUSH2 0x100 EXP SWAP1 DIV PUSH20 0xFFFFFFFFFFFFFFFFFFFFFFFFFFFFFFFFFFFFFFFF AND PUSH20 0xFFFFFFFFFFFFFFFFFFFFFFFFFFFFFFFFFFFFFFFF AND CALLER PUSH20 0xFFFFFFFFFFFFFFFFFFFFFFFFFFFFFFFFFFFFFFFF AND EQ ISZERO ISZERO PUSH2 0x702 JUMPI PUSH1 0x0 DUP1 REVERT JUMPDEST PUSH1 0x0 SWAP4 POP JUMPDEST PUSH1 0x3 DUP5 LT ISZERO PUSH2 0x80E JUMPI PUSH1 0xD DUP5 PUSH1 0x3 DUP2 LT ISZERO ISZERO PUSH2 0x71F JUMPI INVALID JUMPDEST PUSH1 0x2 MUL ADD SWAP3 POP PUSH1 0x0 DUP4 PUSH1 0x1 ADD DUP1 SLOAD SWAP1 POP EQ ISZERO ISZERO PUSH2 0x801 JUMPI DUP3 PUSH1 0x1 ADD DUP1 SLOAD SWAP1 POP DUP4 PUSH1 0x1 ADD DUP1 SLOAD SWAP1 POP NUMBER DUP2 ISZERO ISZERO PUSH2 0x750 JUMPI INVALID JUMPDEST DIV DUP2 ISZERO ISZERO PUSH2 0x75A JUMPI INVALID JUMPDEST MOD SWAP2 POP DUP3 PUSH1 0x1 ADD DUP3 DUP2 SLOAD DUP2 LT ISZERO ISZERO PUSH2 0x76E JUMPI INVALID JUMPDEST SWAP1 PUSH1 0x0 MSTORE PUSH1 0x20 PUSH1 0x0 KECCAK256 ADD SLOAD SWAP1 POP PUSH1 0x1 DUP2 PUSH1 0x4 DUP2 LT ISZERO ISZERO PUSH2 0x78A JUMPI INVALID JUMPDEST PUSH1 0x3 MUL ADD PUSH1 0x2 ADD PUSH1 0x0 SWAP1 SLOAD SWAP1 PUSH2 0x100 EXP SWAP1 DIV PUSH20 0xFFFFFFFFFFFFFFFFFFFFFFFFFFFFFFFFFFFFFFFF AND PUSH1 0x13 DUP6 PUSH1 0x3 DUP2 LT ISZERO ISZERO PUSH2 0x7C1 JUMPI INVALID JUMPDEST ADD PUSH1 0x0 PUSH2 0x100 EXP DUP2 SLOAD DUP2 PUSH20 0xFFFFFFFFFFFFFFFFFFFFFFFFFFFFFFFFFFFFFFFF MUL NOT AND SWAP1 DUP4 PUSH20 0xFFFFFFFFFFFFFFFFFFFFFFFFFFFFFFFFFFFFFFFF AND MUL OR SWAP1 SSTORE POP JUMPDEST DUP4 DUP1 PUSH1 0x1 ADD SWAP5 POP POP PUSH2 0x707 JUMP JUMPDEST POP POP POP POP JUMP JUMPDEST PUSH1 0x13 DUP2 PUSH1 0x3 DUP2 LT ISZERO ISZERO PUSH2 0x823 JUMPI INVALID JUMPDEST ADD PUSH1 0x0 SWAP2 POP SLOAD SWAP1 PUSH2 0x100 EXP SWAP1 DIV PUSH20 0xFFFFFFFFFFFFFFFFFFFFFFFFFFFFFFFFFFFFFFFF AND DUP2 JUMP JUMPDEST PUSH1 0xD DUP2 PUSH1 0x3 DUP2 LT ISZERO ISZERO PUSH2 0x858 JUMPI INVALID JUMPDEST PUSH1 0x2 MUL ADD PUSH1 0x0 SWAP2 POP SWAP1 POP DUP1 PUSH1 0x0 ADD SLOAD SWAP1 POP DUP2 JUMP STOP LOG1 PUSH6 0x627A7A723058 KECCAK256 PUSH9 0xFFD04C9B4D691E7D46 0x29 PUSH13 0x89F20F97A5C20E58FED25C7B18 EXTCODESIZE 0xe5 PUSH30 0x7CDCEC550029000000000000000000000000000000000000000000000000 "
				},
				"gasEstimates": {
					"creation": {
						"codeDepositCost": "440000",
						"executionCost": "infinite",
						"totalCost": "infinite"
					},
					"external": {
						"beneficiary()": "464",
						"bid(uint256,uint256)": "infinite",
						"getPersonDetails(uint256)": "1192",
						"items(uint256)": "652",
						"register()": "142883",
						"revealWinners()": "infinite",
						"winners(uint256)": "645"
					}
				},
				"methodIdentifiers": {
					"beneficiary()": "38af3eed",
					"bid(uint256,uint256)": "598647f8",
					"getPersonDetails(uint256)": "60981705",
					"items(uint256)": "bfb231d2",
					"register()": "1aa3a008",
					"revealWinners()": "952587d6",
					"winners(uint256)": "a2fb1175"
				}
			},
			"userdoc": {
				"methods": {}
			}
		}
	}
}